{"abi":[{"type":"constructor","inputs":[{"name":"_gencore","type":"address","internalType":"address"},{"name":"_adminsContract","type":"address","internalType":"address"},{"name":"_streamDrops","type":"address","internalType":"address"}],"stateMutability":"nonpayable"},{"type":"function","name":"emergencyWithdraw","inputs":[],"outputs":[],"stateMutability":"nonpayable"},{"type":"function","name":"gencore","inputs":[],"outputs":[{"name":"","type":"address","internalType":"contract IStreamCore"}],"stateMutability":"view"},{"type":"function","name":"getAuctionEndTime","inputs":[{"name":"_tokenId","type":"uint256","internalType":"uint256"}],"outputs":[{"name":"","type":"uint256","internalType":"uint256"}],"stateMutability":"view"},{"type":"function","name":"getAuctionStatus","inputs":[{"name":"_tokenId","type":"uint256","internalType":"uint256"}],"outputs":[{"name":"","type":"bool","internalType":"bool"}],"stateMutability":"view"},{"type":"function","name":"getEndTime","inputs":[{"name":"_collectionID","type":"uint256","internalType":"uint256"}],"outputs":[{"name":"","type":"uint256","internalType":"uint256"}],"stateMutability":"view"},{"type":"function","name":"isMinterContract","inputs":[],"outputs":[{"name":"","type":"bool","internalType":"bool"}],"stateMutability":"view"},{"type":"function","name":"mint","inputs":[{"name":"_recipients","type":"address[]","internalType":"address[]"},{"name":"_tokenData","type":"string[]","internalType":"string[]"},{"name":"_saltfun_o","type":"uint256[]","internalType":"uint256[]"},{"name":"_collectionID","type":"uint256","internalType":"uint256"},{"name":"_numberOfTokens","type":"uint256[]","internalType":"uint256[]"}],"outputs":[{"name":"","type":"uint256","internalType":"uint256"}],"stateMutability":"nonpayable"},{"type":"function","name":"mintAndAuction","inputs":[{"name":"_recipient","type":"address","internalType":"address"},{"name":"_tokenData","type":"string","internalType":"string"},{"name":"_saltfun_o","type":"uint256","internalType":"uint256"},{"name":"_collectionID","type":"uint256","internalType":"uint256"},{"name":"_auctionEndTime","type":"uint256","internalType":"uint256"}],"outputs":[{"name":"","type":"uint256","internalType":"uint256"}],"stateMutability":"nonpayable"},{"type":"function","name":"retrieveCollectionPhases","inputs":[{"name":"_collectionID","type":"uint256","internalType":"uint256"}],"outputs":[{"name":"","type":"uint256","internalType":"uint256"},{"name":"","type":"uint256","internalType":"uint256"}],"stateMutability":"view"},{"type":"function","name":"setCollectionPhases","inputs":[{"name":"_collectionID","type":"uint256","internalType":"uint256"},{"name":"_publicStartTime","type":"uint256","internalType":"uint256"},{"name":"_publicEndTime","type":"uint256","internalType":"uint256"}],"outputs":[],"stateMutability":"nonpayable"},{"type":"function","name":"streamDrops","inputs":[],"outputs":[{"name":"","type":"address","internalType":"address"}],"stateMutability":"view"},{"type":"function","name":"updateAuctionEndTime","inputs":[{"name":"_tokenId","type":"uint256","internalType":"uint256"},{"name":"_auctionEndTime","type":"uint256","internalType":"uint256"}],"outputs":[],"stateMutability":"nonpayable"},{"type":"function","name":"updateContracts","inputs":[{"name":"_opt","type":"uint256","internalType":"uint256"},{"name":"_newContract","type":"address","internalType":"address"}],"outputs":[],"stateMutability":"nonpayable"},{"type":"event","name":"Withdraw","inputs":[{"name":"_add","type":"address","indexed":true,"internalType":"address"},{"name":"status","type":"bool","indexed":false,"internalType":"bool"},{"name":"funds","type":"uint256","indexed":true,"internalType":"uint256"}],"anonymous":false}],"bytecode":{"object":"0x60806040523480156200001157600080fd5b5060405162002b7d38038062002b7d83398181016040528101906200003791906200016d565b82600460006101000a81548173ffffffffffffffffffffffffffffffffffffffff021916908373ffffffffffffffffffffffffffffffffffffffff16021790555081600560006101000a81548173ffffffffffffffffffffffffffffffffffffffff021916908373ffffffffffffffffffffffffffffffffffffffff16021790555080600660006101000a81548173ffffffffffffffffffffffffffffffffffffffff021916908373ffffffffffffffffffffffffffffffffffffffff160217905550505050620001c9565b600080fd5b600073ffffffffffffffffffffffffffffffffffffffff82169050919050565b6000620001358262000108565b9050919050565b620001478162000128565b81146200015357600080fd5b50565b60008151905062000167816200013c565b92915050565b60008060006060848603121562000189576200018862000103565b5b6000620001998682870162000156565b9350506020620001ac8682870162000156565b9250506040620001bf8682870162000156565b9150509250925092565b6129a480620001d96000396000f3fe608060405234801561001057600080fd5b50600436106100cf5760003560e01c8063930e79f11161008c578063cd967f0d11610066578063cd967f0d1461024d578063d9f303a214610269578063db2e21bc14610285578063fb9422ff1461028f576100cf565b8063930e79f1146101ce5780639e424a93146101fe578063b5bc955f1461022f576100cf565b80630e420cd2146100d45780631f14ec74146100f25780632eea79751461012257806346372ba61461013e5780637765c52c1461016e5780639067b6771461019e575b600080fd5b6100dc6102ad565b6040516100e99190611b44565b60405180910390f35b61010c60048036038101906101079190611f87565b6102d3565b6040516101199190612081565b60405180910390f35b61013c6004803603810190610137919061209c565b61093f565b005b610158600480360381019061015391906120ef565b610bf3565b6040516101659190612081565b60405180910390f35b61018860048036038101906101839190612186565b6111e6565b60405161019591906121ce565b60405180910390f35b6101b860048036038101906101b39190612186565b611210565b6040516101c59190612081565b60405180910390f35b6101e860048036038101906101e39190612186565b611230565b6040516101f59190612081565b60405180910390f35b61021860048036038101906102139190612186565b61124d565b6040516102269291906121e9565b60405180910390f35b610237611287565b6040516102449190612271565b60405180910390f35b6102676004803603810190610262919061228c565b6112ad565b005b610283600480360381019061027e91906122cc565b6115e5565b005b61028d6117c9565b005b610297611afa565b6040516102a491906121ce565b60405180910390f35b600660009054906101000a900473ffffffffffffffffffffffffffffffffffffffff1681565b6000600660009054906101000a900473ffffffffffffffffffffffffffffffffffffffff1673ffffffffffffffffffffffffffffffffffffffff163373ffffffffffffffffffffffffffffffffffffffff1614610365576040517f08c379a000000000000000000000000000000000000000000000000000000000815260040161035c90612369565b60405180910390fd5b600060016000858152602001908152602001600020600001541180156103a1575060016000848152602001908152602001600020600001544210155b6103e0576040517f08c379a00000000000000000000000000000000000000000000000000000000081526004016103d7906123d5565b60405180910390fd5b6000600160008581526020019081526020016000206001015411801561041c575060016000848152602001908152602001600020600101544211155b61045b576040517f08c379a000000000000000000000000000000000000000000000000000000000815260040161045290612441565b60405180910390fd5b60008060005b885181101561093057600185828151811061047f5761047e612461565b5b6020026020010151600460009054906101000a900473ffffffffffffffffffffffffffffffffffffffff1673ffffffffffffffffffffffffffffffffffffffff1663af569fd4896040518263ffffffff1660e01b81526004016104e29190612081565b602060405180830381865afa1580156104ff573d6000803e3d6000fd5b505050506040513d601f19601f8201168201806040525081019061052391906124a5565b600460009054906101000a900473ffffffffffffffffffffffffffffffffffffffff1673ffffffffffffffffffffffffffffffffffffffff1663e9b7a8608a6040518263ffffffff1660e01b815260040161057e9190612081565b602060405180830381865afa15801561059b573d6000803e3d6000fd5b505050506040513d601f19601f820116820180604052508101906105bf91906124a5565b6105c99190612501565b6105d39190612501565b6105dd9190612535565b9250600460009054906101000a900473ffffffffffffffffffffffffffffffffffffffff1673ffffffffffffffffffffffffffffffffffffffff16636c6aab16876040518263ffffffff1660e01b815260040161063a9190612081565b602060405180830381865afa158015610657573d6000803e3d6000fd5b505050506040513d601f19601f8201168201806040525081019061067b91906124a5565b8311156106bd576040517f08c379a00000000000000000000000000000000000000000000000000000000081526004016106b4906125b5565b60405180910390fd5b60005b8582815181106106d3576106d2612461565b5b602002602001015181101561091c57600460009054906101000a900473ffffffffffffffffffffffffffffffffffffffff1673ffffffffffffffffffffffffffffffffffffffff1663af569fd4886040518263ffffffff1660e01b815260040161073d9190612081565b602060405180830381865afa15801561075a573d6000803e3d6000fd5b505050506040513d601f19601f8201168201806040525081019061077e91906124a5565b600460009054906101000a900473ffffffffffffffffffffffffffffffffffffffff1673ffffffffffffffffffffffffffffffffffffffff1663e9b7a860896040518263ffffffff1660e01b81526004016107d99190612081565b602060405180830381865afa1580156107f6573d6000803e3d6000fd5b505050506040513d601f19601f8201168201806040525081019061081a91906124a5565b6108249190612501565b9250600460009054906101000a900473ffffffffffffffffffffffffffffffffffffffff1673ffffffffffffffffffffffffffffffffffffffff1663dabb57ca848c858151811061087857610877612461565b5b60200260200101518c868151811061089357610892612461565b5b60200260200101518c87815181106108ae576108ad612461565b5b60200260200101518c6040518663ffffffff1660e01b81526004016108d7959493929190612643565b600060405180830381600087803b1580156108f157600080fd5b505af1158015610905573d6000803e3d6000fd5b5050505080806109149061269d565b9150506106c0565b5080806109289061269d565b915050610461565b50809250505095945050505050565b632eea797560e01b60011515600560009054906101000a900473ffffffffffffffffffffffffffffffffffffffff1673ffffffffffffffffffffffffffffffffffffffff1663feb2e23333846040518363ffffffff1660e01b81526004016109a8929190612720565b602060405180830381865afa1580156109c5573d6000803e3d6000fd5b505050506040513d601f19601f820116820180604052508101906109e99190612775565b15151480610a96575060011515600560009054906101000a900473ffffffffffffffffffffffffffffffffffffffff1673ffffffffffffffffffffffffffffffffffffffff1663b3076d55336040518263ffffffff1660e01b8152600401610a519190611b44565b602060405180830381865afa158015610a6e573d6000803e3d6000fd5b505050506040513d601f19601f82011682018060405250810190610a929190612775565b1515145b610ad5576040517f08c379a0000000000000000000000000000000000000000000000000000000008152600401610acc90612369565b60405180910390fd5b60011515600460009054906101000a900473ffffffffffffffffffffffffffffffffffffffff1673ffffffffffffffffffffffffffffffffffffffff1663d3741000866040518263ffffffff1660e01b8152600401610b349190612081565b602060405180830381865afa158015610b51573d6000803e3d6000fd5b505050506040513d601f19601f82011682018060405250810190610b759190612775565b151514610bb7576040517f08c379a0000000000000000000000000000000000000000000000000000000008152600401610bae906127ee565b60405180910390fd5b82600160008681526020019081526020016000206000018190555081600160008681526020019081526020016000206001018190555050505050565b6000600660009054906101000a900473ffffffffffffffffffffffffffffffffffffffff1673ffffffffffffffffffffffffffffffffffffffff163373ffffffffffffffffffffffffffffffffffffffff1614610c85576040517f08c379a0000000000000000000000000000000000000000000000000000000008152600401610c7c90612369565b60405180910390fd5b60006001600085815260200190815260200160002060000154118015610cc1575060016000848152602001908152602001600020600001544210155b610d00576040517f08c379a0000000000000000000000000000000000000000000000000000000008152600401610cf7906123d5565b60405180910390fd5b60006001600085815260200190815260200160002060010154118015610d3c575060016000848152602001908152602001600020600101544211155b610d7b576040517f08c379a0000000000000000000000000000000000000000000000000000000008152600401610d7290612441565b60405180910390fd5b6000600460009054906101000a900473ffffffffffffffffffffffffffffffffffffffff1673ffffffffffffffffffffffffffffffffffffffff1663af569fd4856040518263ffffffff1660e01b8152600401610dd89190612081565b602060405180830381865afa158015610df5573d6000803e3d6000fd5b505050506040513d601f19601f82011682018060405250810190610e1991906124a5565b600460009054906101000a900473ffffffffffffffffffffffffffffffffffffffff1673ffffffffffffffffffffffffffffffffffffffff1663e9b7a860866040518263ffffffff1660e01b8152600401610e749190612081565b602060405180830381865afa158015610e91573d6000803e3d6000fd5b505050506040513d601f19601f82011682018060405250810190610eb591906124a5565b610ebf9190612501565b9050600460009054906101000a900473ffffffffffffffffffffffffffffffffffffffff1673ffffffffffffffffffffffffffffffffffffffff16636c6aab16856040518263ffffffff1660e01b8152600401610f1c9190612081565b602060405180830381865afa158015610f39573d6000803e3d6000fd5b505050506040513d601f19601f82011682018060405250810190610f5d91906124a5565b811115610f9f576040517f08c379a0000000000000000000000000000000000000000000000000000000008152600401610f96906125b5565b60405180910390fd5b6000600460009054906101000a900473ffffffffffffffffffffffffffffffffffffffff1673ffffffffffffffffffffffffffffffffffffffff1663af569fd4866040518263ffffffff1660e01b8152600401610ffc9190612081565b602060405180830381865afa158015611019573d6000803e3d6000fd5b505050506040513d601f19601f8201168201806040525081019061103d91906124a5565b600460009054906101000a900473ffffffffffffffffffffffffffffffffffffffff1673ffffffffffffffffffffffffffffffffffffffff1663e9b7a860876040518263ffffffff1660e01b81526004016110989190612081565b602060405180830381865afa1580156110b5573d6000803e3d6000fd5b505050506040513d601f19601f820116820180604052508101906110d991906124a5565b6110e39190612501565b9050610258426110f39190612501565b8410156110ff57600080fd5b83600260008381526020019081526020016000208190555060016003600083815260200190815260200160002060006101000a81548160ff021916908315150217905550600460009054906101000a900473ffffffffffffffffffffffffffffffffffffffff1673ffffffffffffffffffffffffffffffffffffffff1663dabb57ca828a8a8a8a6040518663ffffffff1660e01b81526004016111a6959493929190612643565b600060405180830381600087803b1580156111c057600080fd5b505af11580156111d4573d6000803e3d6000fd5b50505050809250505095945050505050565b60006003600083815260200190815260200160002060009054906101000a900460ff169050919050565b600060016000838152602001908152602001600020600101549050919050565b600060026000838152602001908152602001600020549050919050565b6000806001600084815260200190815260200160002060000154600160008581526020019081526020016000206001015491509150915091565b600460009054906101000a900473ffffffffffffffffffffffffffffffffffffffff1681565b63cd967f0d60e01b60011515600560009054906101000a900473ffffffffffffffffffffffffffffffffffffffff1673ffffffffffffffffffffffffffffffffffffffff1663feb2e23333846040518363ffffffff1660e01b8152600401611316929190612720565b602060405180830381865afa158015611333573d6000803e3d6000fd5b505050506040513d601f19601f820116820180604052508101906113579190612775565b15151480611404575060011515600560009054906101000a900473ffffffffffffffffffffffffffffffffffffffff1673ffffffffffffffffffffffffffffffffffffffff1663b3076d55336040518263ffffffff1660e01b81526004016113bf9190611b44565b602060405180830381865afa1580156113dc573d6000803e3d6000fd5b505050506040513d601f19601f820116820180604052508101906114009190612775565b1515145b611443576040517f08c379a000000000000000000000000000000000000000000000000000000000815260040161143a90612369565b60405180910390fd5b600183036114915781600460006101000a81548173ffffffffffffffffffffffffffffffffffffffff021916908373ffffffffffffffffffffffffffffffffffffffff1602179055506115e0565b6002830361159457600115158273ffffffffffffffffffffffffffffffffffffffff16639068edac6040518163ffffffff1660e01b8152600401602060405180830381865afa1580156114e8573d6000803e3d6000fd5b505050506040513d601f19601f8201168201806040525081019061150c9190612775565b15151461154e576040517f08c379a00000000000000000000000000000000000000000000000000000000081526004016115459061285a565b60405180910390fd5b81600560006101000a81548173ffffffffffffffffffffffffffffffffffffffff021916908373ffffffffffffffffffffffffffffffffffffffff1602179055506115df565b600383036115de5781600660006101000a81548173ffffffffffffffffffffffffffffffffffffffff021916908373ffffffffffffffffffffffffffffffffffffffff1602179055505b5b5b505050565b63d9f303a260e01b60011515600560009054906101000a900473ffffffffffffffffffffffffffffffffffffffff1673ffffffffffffffffffffffffffffffffffffffff1663feb2e23333846040518363ffffffff1660e01b815260040161164e929190612720565b602060405180830381865afa15801561166b573d6000803e3d6000fd5b505050506040513d601f19601f8201168201806040525081019061168f9190612775565b1515148061173c575060011515600560009054906101000a900473ffffffffffffffffffffffffffffffffffffffff1673ffffffffffffffffffffffffffffffffffffffff1663b3076d55336040518263ffffffff1660e01b81526004016116f79190611b44565b602060405180830381865afa158015611714573d6000803e3d6000fd5b505050506040513d601f19601f820116820180604052508101906117389190612775565b1515145b61177b576040517f08c379a000000000000000000000000000000000000000000000000000000000815260040161177290612369565b60405180910390fd5b600115156003600085815260200190815260200160002060009054906101000a900460ff161515146117ac57600080fd5b816002600085815260200190815260200160002081905550505050565b63db2e21bc60e01b60011515600560009054906101000a900473ffffffffffffffffffffffffffffffffffffffff1673ffffffffffffffffffffffffffffffffffffffff1663feb2e23333846040518363ffffffff1660e01b8152600401611832929190612720565b602060405180830381865afa15801561184f573d6000803e3d6000fd5b505050506040513d601f19601f820116820180604052508101906118739190612775565b15151480611920575060011515600560009054906101000a900473ffffffffffffffffffffffffffffffffffffffff1673ffffffffffffffffffffffffffffffffffffffff1663b3076d55336040518263ffffffff1660e01b81526004016118db9190611b44565b602060405180830381865afa1580156118f8573d6000803e3d6000fd5b505050506040513d601f19601f8201168201806040525081019061191c9190612775565b1515145b61195f576040517f08c379a000000000000000000000000000000000000000000000000000000000815260040161195690612369565b60405180910390fd5b60004790506000600560009054906101000a900473ffffffffffffffffffffffffffffffffffffffff1673ffffffffffffffffffffffffffffffffffffffff16638da5cb5b6040518163ffffffff1660e01b8152600401602060405180830381865afa1580156119d3573d6000803e3d6000fd5b505050506040513d601f19601f820116820180604052508101906119f7919061288f565b905060008173ffffffffffffffffffffffffffffffffffffffff1683604051611a1f906128ed565b60006040518083038185875af1925050503d8060008114611a5c576040519150601f19603f3d011682016040523d82523d6000602084013e611a61565b606091505b5050905080611aa5576040517f08c379a0000000000000000000000000000000000000000000000000000000008152600401611a9c9061294e565b60405180910390fd5b823373ffffffffffffffffffffffffffffffffffffffff167f4a48cb98c5be023b78a0b3ec94107a01a0397b2e389d4b5f252aef518e633ec383604051611aec91906121ce565b60405180910390a350505050565b60006001905090565b600073ffffffffffffffffffffffffffffffffffffffff82169050919050565b6000611b2e82611b03565b9050919050565b611b3e81611b23565b82525050565b6000602082019050611b596000830184611b35565b92915050565b6000604051905090565b600080fd5b600080fd5b600080fd5b6000601f19601f8301169050919050565b7f4e487b7100000000000000000000000000000000000000000000000000000000600052604160045260246000fd5b611bc182611b78565b810181811067ffffffffffffffff82111715611be057611bdf611b89565b5b80604052505050565b6000611bf3611b5f565b9050611bff8282611bb8565b919050565b600067ffffffffffffffff821115611c1f57611c1e611b89565b5b602082029050602081019050919050565b600080fd5b611c3e81611b23565b8114611c4957600080fd5b50565b600081359050611c5b81611c35565b92915050565b6000611c74611c6f84611c04565b611be9565b90508083825260208201905060208402830185811115611c9757611c96611c30565b5b835b81811015611cc05780611cac8882611c4c565b845260208401935050602081019050611c99565b5050509392505050565b600082601f830112611cdf57611cde611b73565b5b8135611cef848260208601611c61565b91505092915050565b600067ffffffffffffffff821115611d1357611d12611b89565b5b602082029050602081019050919050565b600080fd5b600067ffffffffffffffff821115611d4457611d43611b89565b5b611d4d82611b78565b9050602081019050919050565b82818337600083830152505050565b6000611d7c611d7784611d29565b611be9565b905082815260208101848484011115611d9857611d97611d24565b5b611da3848285611d5a565b509392505050565b600082601f830112611dc057611dbf611b73565b5b8135611dd0848260208601611d69565b91505092915050565b6000611dec611de784611cf8565b611be9565b90508083825260208201905060208402830185811115611e0f57611e0e611c30565b5b835b81811015611e5657803567ffffffffffffffff811115611e3457611e33611b73565b5b808601611e418982611dab565b85526020850194505050602081019050611e11565b5050509392505050565b600082601f830112611e7557611e74611b73565b5b8135611e85848260208601611dd9565b91505092915050565b600067ffffffffffffffff821115611ea957611ea8611b89565b5b602082029050602081019050919050565b6000819050919050565b611ecd81611eba565b8114611ed857600080fd5b50565b600081359050611eea81611ec4565b92915050565b6000611f03611efe84611e8e565b611be9565b90508083825260208201905060208402830185811115611f2657611f25611c30565b5b835b81811015611f4f5780611f3b8882611edb565b845260208401935050602081019050611f28565b5050509392505050565b600082601f830112611f6e57611f6d611b73565b5b8135611f7e848260208601611ef0565b91505092915050565b600080600080600060a08688031215611fa357611fa2611b69565b5b600086013567ffffffffffffffff811115611fc157611fc0611b6e565b5b611fcd88828901611cca565b955050602086013567ffffffffffffffff811115611fee57611fed611b6e565b5b611ffa88828901611e60565b945050604086013567ffffffffffffffff81111561201b5761201a611b6e565b5b61202788828901611f59565b935050606061203888828901611edb565b925050608086013567ffffffffffffffff81111561205957612058611b6e565b5b61206588828901611f59565b9150509295509295909350565b61207b81611eba565b82525050565b60006020820190506120966000830184612072565b92915050565b6000806000606084860312156120b5576120b4611b69565b5b60006120c386828701611edb565b93505060206120d486828701611edb565b92505060406120e586828701611edb565b9150509250925092565b600080600080600060a0868803121561210b5761210a611b69565b5b600061211988828901611c4c565b955050602086013567ffffffffffffffff81111561213a57612139611b6e565b5b61214688828901611dab565b945050604061215788828901611edb565b935050606061216888828901611edb565b925050608061217988828901611edb565b9150509295509295909350565b60006020828403121561219c5761219b611b69565b5b60006121aa84828501611edb565b91505092915050565b60008115159050919050565b6121c8816121b3565b82525050565b60006020820190506121e360008301846121bf565b92915050565b60006040820190506121fe6000830185612072565b61220b6020830184612072565b9392505050565b6000819050919050565b600061223761223261222d84611b03565b612212565b611b03565b9050919050565b60006122498261221c565b9050919050565b600061225b8261223e565b9050919050565b61226b81612250565b82525050565b60006020820190506122866000830184612262565b92915050565b600080604083850312156122a3576122a2611b69565b5b60006122b185828601611edb565b92505060206122c285828601611c4c565b9150509250929050565b600080604083850312156122e3576122e2611b69565b5b60006122f185828601611edb565b925050602061230285828601611edb565b9150509250929050565b600082825260208201905092915050565b7f4e6f7420616c6c6f776564000000000000000000000000000000000000000000600082015250565b6000612353600b8361230c565b915061235e8261231d565b602082019050919050565b6000602082019050818103600083015261238281612346565b9050919050565b7f4e6f742073746172746564000000000000000000000000000000000000000000600082015250565b60006123bf600b8361230c565b91506123ca82612389565b602082019050919050565b600060208201905081810360008301526123ee816123b2565b9050919050565b7f456e646564000000000000000000000000000000000000000000000000000000600082015250565b600061242b60058361230c565b9150612436826123f5565b602082019050919050565b6000602082019050818103600083015261245a8161241e565b9050919050565b7f4e487b7100000000000000000000000000000000000000000000000000000000600052603260045260246000fd5b60008151905061249f81611ec4565b92915050565b6000602082840312156124bb576124ba611b69565b5b60006124c984828501612490565b91505092915050565b7f4e487b7100000000000000000000000000000000000000000000000000000000600052601160045260246000fd5b600061250c82611eba565b915061251783611eba565b925082820190508082111561252f5761252e6124d2565b5b92915050565b600061254082611eba565b915061254b83611eba565b9250828203905081811115612563576125626124d2565b5b92915050565b7f4e6f20737570706c790000000000000000000000000000000000000000000000600082015250565b600061259f60098361230c565b91506125aa82612569565b602082019050919050565b600060208201905081810360008301526125ce81612592565b9050919050565b600081519050919050565b60005b838110156125fe5780820151818401526020810190506125e3565b60008484015250505050565b6000612615826125d5565b61261f818561230c565b935061262f8185602086016125e0565b61263881611b78565b840191505092915050565b600060a0820190506126586000830188612072565b6126656020830187611b35565b8181036040830152612677818661260a565b90506126866060830185612072565b6126936080830184612072565b9695505050505050565b60006126a882611eba565b91507fffffffffffffffffffffffffffffffffffffffffffffffffffffffffffffffff82036126da576126d96124d2565b5b600182019050919050565b60007fffffffff0000000000000000000000000000000000000000000000000000000082169050919050565b61271a816126e5565b82525050565b60006040820190506127356000830185611b35565b6127426020830184612711565b9392505050565b612752816121b3565b811461275d57600080fd5b50565b60008151905061276f81612749565b92915050565b60006020828403121561278b5761278a611b69565b5b600061279984828501612760565b91505092915050565b7f4164642064617461000000000000000000000000000000000000000000000000600082015250565b60006127d860088361230c565b91506127e3826127a2565b602082019050919050565b60006020820190508181036000830152612807816127cb565b9050919050565b7f436f6e7472616374206973206e6f742041646d696e0000000000000000000000600082015250565b600061284460158361230c565b915061284f8261280e565b602082019050919050565b6000602082019050818103600083015261287381612837565b9050919050565b60008151905061288981611c35565b92915050565b6000602082840312156128a5576128a4611b69565b5b60006128b38482850161287a565b91505092915050565b600081905092915050565b50565b60006128d76000836128bc565b91506128e2826128c7565b600082019050919050565b60006128f8826128ca565b9150819050919050565b7f455448206661696c656400000000000000000000000000000000000000000000600082015250565b6000612938600a8361230c565b915061294382612902565b602082019050919050565b600060208201905081810360008301526129678161292b565b905091905056fea2646970667358221220e01e1396dd6878a3e110f51bbfd15e6e33f3c183e93122b451f2ef97898b4d7864736f6c63430008130033","linkReferences":{}},"methodIdentifiers":{"emergencyWithdraw()":"db2e21bc","gencore()":"b5bc955f","getAuctionEndTime(uint256)":"930e79f1","getAuctionStatus(uint256)":"7765c52c","getEndTime(uint256)":"9067b677","isMinterContract()":"fb9422ff","mint(address[],string[],uint256[],uint256,uint256[])":"1f14ec74","mintAndAuction(address,string,uint256,uint256,uint256)":"46372ba6","retrieveCollectionPhases(uint256)":"9e424a93","setCollectionPhases(uint256,uint256,uint256)":"2eea7975","streamDrops()":"0e420cd2","updateAuctionEndTime(uint256,uint256)":"d9f303a2","updateContracts(uint256,address)":"cd967f0d"},"id":7}