{"abi":[{"type":"constructor","inputs":[{"name":"name","type":"string","internalType":"string"},{"name":"symbol","type":"string","internalType":"string"},{"name":"_adminsContract","type":"address","internalType":"address"},{"name":"_dependencyRegistry","type":"address","internalType":"address"}],"stateMutability":"nonpayable"},{"type":"function","name":"addRandomizer","inputs":[{"name":"_collectionID","type":"uint256","internalType":"uint256"},{"name":"_randomizerContract","type":"address","internalType":"address"}],"outputs":[],"stateMutability":"nonpayable"},{"type":"function","name":"approve","inputs":[{"name":"to","type":"address","internalType":"address"},{"name":"tokenId","type":"uint256","internalType":"uint256"}],"outputs":[],"stateMutability":"nonpayable"},{"type":"function","name":"artistSignature","inputs":[{"name":"_collectionID","type":"uint256","internalType":"uint256"},{"name":"_signature","type":"string","internalType":"string"}],"outputs":[],"stateMutability":"nonpayable"},{"type":"function","name":"artistSigned","inputs":[{"name":"","type":"uint256","internalType":"uint256"}],"outputs":[{"name":"","type":"bool","internalType":"bool"}],"stateMutability":"view"},{"type":"function","name":"artistsSignatures","inputs":[{"name":"","type":"uint256","internalType":"uint256"}],"outputs":[{"name":"","type":"string","internalType":"string"}],"stateMutability":"view"},{"type":"function","name":"balanceOf","inputs":[{"name":"owner","type":"address","internalType":"address"}],"outputs":[{"name":"","type":"uint256","internalType":"uint256"}],"stateMutability":"view"},{"type":"function","name":"burn","inputs":[{"name":"_collectionID","type":"uint256","internalType":"uint256"},{"name":"_tokenId","type":"uint256","internalType":"uint256"}],"outputs":[],"stateMutability":"nonpayable"},{"type":"function","name":"burnAmount","inputs":[{"name":"","type":"uint256","internalType":"uint256"}],"outputs":[{"name":"","type":"uint256","internalType":"uint256"}],"stateMutability":"view"},{"type":"function","name":"changeMetadataView","inputs":[{"name":"_collectionID","type":"uint256","internalType":"uint256"},{"name":"_status","type":"bool","internalType":"bool"}],"outputs":[],"stateMutability":"nonpayable"},{"type":"function","name":"changeTokenData","inputs":[{"name":"_tokenId","type":"uint256","internalType":"uint256"},{"name":"newData","type":"string","internalType":"string"}],"outputs":[],"stateMutability":"nonpayable"},{"type":"function","name":"collectionFreezeStatus","inputs":[{"name":"_collectionID","type":"uint256","internalType":"uint256"}],"outputs":[{"name":"","type":"bool","internalType":"bool"}],"stateMutability":"view"},{"type":"function","name":"createCollection","inputs":[{"name":"_collectionName","type":"string","internalType":"string"},{"name":"_collectionArtist","type":"string","internalType":"string"},{"name":"_collectionDescription","type":"string","internalType":"string"},{"name":"_collectionWebsite","type":"string","internalType":"string"},{"name":"_collectionLicense","type":"string","internalType":"string"},{"name":"_collectionBaseURI","type":"string","internalType":"string"},{"name":"_collectionLibrary","type":"string","internalType":"string"},{"name":"_collectionDependencyScript","type":"bytes32","internalType":"bytes32"},{"name":"_collectionScript","type":"string[]","internalType":"string[]"}],"outputs":[],"stateMutability":"nonpayable"},{"type":"function","name":"freezeCollection","inputs":[{"name":"_collectionID","type":"uint256","internalType":"uint256"}],"outputs":[],"stateMutability":"nonpayable"},{"type":"function","name":"getApproved","inputs":[{"name":"tokenId","type":"uint256","internalType":"uint256"}],"outputs":[{"name":"","type":"address","internalType":"address"}],"stateMutability":"view"},{"type":"function","name":"isApprovedForAll","inputs":[{"name":"owner","type":"address","internalType":"address"},{"name":"operator","type":"address","internalType":"address"}],"outputs":[{"name":"","type":"bool","internalType":"bool"}],"stateMutability":"view"},{"type":"function","name":"mint","inputs":[{"name":"mintIndex","type":"uint256","internalType":"uint256"},{"name":"_recipient","type":"address","internalType":"address"},{"name":"_tokenData","type":"string","internalType":"string"},{"name":"_saltfun_o","type":"uint256","internalType":"uint256"},{"name":"_collectionID","type":"uint256","internalType":"uint256"}],"outputs":[],"stateMutability":"nonpayable"},{"type":"function","name":"minterContract","inputs":[],"outputs":[{"name":"","type":"address","internalType":"address"}],"stateMutability":"view"},{"type":"function","name":"name","inputs":[],"outputs":[{"name":"","type":"string","internalType":"string"}],"stateMutability":"view"},{"type":"function","name":"newCollectionIndex","inputs":[],"outputs":[{"name":"","type":"uint256","internalType":"uint256"}],"stateMutability":"view"},{"type":"function","name":"onchainMetadata","inputs":[{"name":"","type":"uint256","internalType":"uint256"}],"outputs":[{"name":"","type":"bool","internalType":"bool"}],"stateMutability":"view"},{"type":"function","name":"owner","inputs":[],"outputs":[{"name":"","type":"address","internalType":"address"}],"stateMutability":"view"},{"type":"function","name":"ownerOf","inputs":[{"name":"tokenId","type":"uint256","internalType":"uint256"}],"outputs":[{"name":"","type":"address","internalType":"address"}],"stateMutability":"view"},{"type":"function","name":"renounceOwnership","inputs":[],"outputs":[],"stateMutability":"nonpayable"},{"type":"function","name":"retrieveArtistAddress","inputs":[{"name":"_collectionID","type":"uint256","internalType":"uint256"}],"outputs":[{"name":"","type":"address","internalType":"address"}],"stateMutability":"view"},{"type":"function","name":"retrieveCollectionAdditionalData","inputs":[{"name":"_collectionID","type":"uint256","internalType":"uint256"}],"outputs":[{"name":"","type":"address","internalType":"address"},{"name":"","type":"uint256","internalType":"uint256"},{"name":"","type":"uint256","internalType":"uint256"},{"name":"","type":"uint256","internalType":"uint256"},{"name":"","type":"uint256","internalType":"uint256"},{"name":"","type":"address","internalType":"address"}],"stateMutability":"view"},{"type":"function","name":"retrieveCollectionInfo","inputs":[{"name":"_collectionID","type":"uint256","internalType":"uint256"}],"outputs":[{"name":"","type":"string","internalType":"string"},{"name":"","type":"string","internalType":"string"},{"name":"","type":"string","internalType":"string"},{"name":"","type":"string","internalType":"string"},{"name":"","type":"string","internalType":"string"},{"name":"","type":"string","internalType":"string"}],"stateMutability":"view"},{"type":"function","name":"retrieveCollectionLibraryAndScript","inputs":[{"name":"_collectionID","type":"uint256","internalType":"uint256"}],"outputs":[{"name":"","type":"string","internalType":"string"},{"name":"","type":"bytes32","internalType":"bytes32"},{"name":"","type":"string[]","internalType":"string[]"}],"stateMutability":"view"},{"type":"function","name":"retrieveGenerativeScript","inputs":[{"name":"tokenId","type":"uint256","internalType":"uint256"}],"outputs":[{"name":"","type":"string","internalType":"string"}],"stateMutability":"view"},{"type":"function","name":"retrieveTokenHash","inputs":[{"name":"_tokenid","type":"uint256","internalType":"uint256"}],"outputs":[{"name":"","type":"bytes32","internalType":"bytes32"}],"stateMutability":"view"},{"type":"function","name":"retrieveTokensAirdroppedPerAddress","inputs":[{"name":"_collectionID","type":"uint256","internalType":"uint256"},{"name":"_address","type":"address","internalType":"address"}],"outputs":[{"name":"","type":"uint256","internalType":"uint256"}],"stateMutability":"view"},{"type":"function","name":"retrieveTokensMintedALPerAddress","inputs":[{"name":"_collectionID","type":"uint256","internalType":"uint256"},{"name":"_address","type":"address","internalType":"address"}],"outputs":[{"name":"","type":"uint256","internalType":"uint256"}],"stateMutability":"view"},{"type":"function","name":"retrieveTokensMintedPublicPerAddress","inputs":[{"name":"_collectionID","type":"uint256","internalType":"uint256"},{"name":"_address","type":"address","internalType":"address"}],"outputs":[{"name":"","type":"uint256","internalType":"uint256"}],"stateMutability":"view"},{"type":"function","name":"retrievetokenImageAndAttributes","inputs":[{"name":"_tokenId","type":"uint256","internalType":"uint256"}],"outputs":[{"name":"","type":"string","internalType":"string"},{"name":"","type":"string","internalType":"string"}],"stateMutability":"view"},{"type":"function","name":"retrievewereDataAdded","inputs":[{"name":"_collectionID","type":"uint256","internalType":"uint256"}],"outputs":[{"name":"","type":"bool","internalType":"bool"}],"stateMutability":"view"},{"type":"function","name":"royaltyInfo","inputs":[{"name":"tokenId","type":"uint256","internalType":"uint256"},{"name":"salePrice","type":"uint256","internalType":"uint256"}],"outputs":[{"name":"","type":"address","internalType":"address"},{"name":"","type":"uint256","internalType":"uint256"}],"stateMutability":"view"},{"type":"function","name":"safeTransferFrom","inputs":[{"name":"from","type":"address","internalType":"address"},{"name":"to","type":"address","internalType":"address"},{"name":"tokenId","type":"uint256","internalType":"uint256"}],"outputs":[],"stateMutability":"nonpayable"},{"type":"function","name":"safeTransferFrom","inputs":[{"name":"from","type":"address","internalType":"address"},{"name":"to","type":"address","internalType":"address"},{"name":"tokenId","type":"uint256","internalType":"uint256"},{"name":"data","type":"bytes","internalType":"bytes"}],"outputs":[],"stateMutability":"nonpayable"},{"type":"function","name":"setApprovalForAll","inputs":[{"name":"operator","type":"address","internalType":"address"},{"name":"approved","type":"bool","internalType":"bool"}],"outputs":[],"stateMutability":"nonpayable"},{"type":"function","name":"setCollectionData","inputs":[{"name":"_collectionID","type":"uint256","internalType":"uint256"},{"name":"_collectionArtistAddress","type":"address","internalType":"address"},{"name":"_maxCollectionPurchases","type":"uint256","internalType":"uint256"},{"name":"_collectionTotalSupply","type":"uint256","internalType":"uint256"},{"name":"_setFinalSupplyTimeAfterMint","type":"uint256","internalType":"uint256"}],"outputs":[],"stateMutability":"nonpayable"},{"type":"function","name":"setFinalSupply","inputs":[{"name":"_collectionID","type":"uint256","internalType":"uint256"}],"outputs":[],"stateMutability":"nonpayable"},{"type":"function","name":"setTokenHash","inputs":[{"name":"_collectionID","type":"uint256","internalType":"uint256"},{"name":"_mintIndex","type":"uint256","internalType":"uint256"},{"name":"_hash","type":"bytes32","internalType":"bytes32"}],"outputs":[],"stateMutability":"nonpayable"},{"type":"function","name":"supportsInterface","inputs":[{"name":"interfaceId","type":"bytes4","internalType":"bytes4"}],"outputs":[{"name":"","type":"bool","internalType":"bool"}],"stateMutability":"view"},{"type":"function","name":"symbol","inputs":[],"outputs":[{"name":"","type":"string","internalType":"string"}],"stateMutability":"view"},{"type":"function","name":"tokenByIndex","inputs":[{"name":"index","type":"uint256","internalType":"uint256"}],"outputs":[{"name":"","type":"uint256","internalType":"uint256"}],"stateMutability":"view"},{"type":"function","name":"tokenData","inputs":[{"name":"","type":"uint256","internalType":"uint256"}],"outputs":[{"name":"","type":"string","internalType":"string"}],"stateMutability":"view"},{"type":"function","name":"tokenOfOwnerByIndex","inputs":[{"name":"owner","type":"address","internalType":"address"},{"name":"index","type":"uint256","internalType":"uint256"}],"outputs":[{"name":"","type":"uint256","internalType":"uint256"}],"stateMutability":"view"},{"type":"function","name":"tokenURI","inputs":[{"name":"tokenId","type":"uint256","internalType":"uint256"}],"outputs":[{"name":"","type":"string","internalType":"string"}],"stateMutability":"view"},{"type":"function","name":"totalSupply","inputs":[],"outputs":[{"name":"","type":"uint256","internalType":"uint256"}],"stateMutability":"view"},{"type":"function","name":"totalSupplyOfCollection","inputs":[{"name":"_collectionID","type":"uint256","internalType":"uint256"}],"outputs":[{"name":"","type":"uint256","internalType":"uint256"}],"stateMutability":"view"},{"type":"function","name":"transferFrom","inputs":[{"name":"from","type":"address","internalType":"address"},{"name":"to","type":"address","internalType":"address"},{"name":"tokenId","type":"uint256","internalType":"uint256"}],"outputs":[],"stateMutability":"nonpayable"},{"type":"function","name":"transferOwnership","inputs":[{"name":"newOwner","type":"address","internalType":"address"}],"outputs":[],"stateMutability":"nonpayable"},{"type":"function","name":"updateCollectionInfo","inputs":[{"name":"_collectionID","type":"uint256","internalType":"uint256"},{"name":"_newCollectionName","type":"string","internalType":"string"},{"name":"_newCollectionArtist","type":"string","internalType":"string"},{"name":"_newCollectionDescription","type":"string","internalType":"string"},{"name":"_newCollectionWebsite","type":"string","internalType":"string"},{"name":"_newCollectionLicense","type":"string","internalType":"string"},{"name":"_newCollectionBaseURI","type":"string","internalType":"string"},{"name":"_newCollectionLibrary","type":"string","internalType":"string"},{"name":"_newCollectionDependencyScript","type":"bytes32","internalType":"bytes32"},{"name":"_index","type":"uint256","internalType":"uint256"},{"name":"_newCollectionScript","type":"string[]","internalType":"string[]"}],"outputs":[],"stateMutability":"nonpayable"},{"type":"function","name":"updateContracts","inputs":[{"name":"_opt","type":"uint8","internalType":"uint8"},{"name":"_newContract","type":"address","internalType":"address"}],"outputs":[],"stateMutability":"nonpayable"},{"type":"function","name":"updateImagesAndAttributes","inputs":[{"name":"_tokenId","type":"uint256[]","internalType":"uint256[]"},{"name":"_images","type":"string[]","internalType":"string[]"},{"name":"_attributes","type":"string[]","internalType":"string[]"}],"outputs":[],"stateMutability":"nonpayable"},{"type":"function","name":"viewCirSupply","inputs":[{"name":"_collectionID","type":"uint256","internalType":"uint256"}],"outputs":[{"name":"","type":"uint256","internalType":"uint256"}],"stateMutability":"view"},{"type":"function","name":"viewColIDforTokenID","inputs":[{"name":"_tokenid","type":"uint256","internalType":"uint256"}],"outputs":[{"name":"","type":"uint256","internalType":"uint256"}],"stateMutability":"view"},{"type":"function","name":"viewMaxAllowance","inputs":[{"name":"_collectionID","type":"uint256","internalType":"uint256"}],"outputs":[{"name":"","type":"uint256","internalType":"uint256"}],"stateMutability":"view"},{"type":"function","name":"viewTokensIndexMax","inputs":[{"name":"_collectionID","type":"uint256","internalType":"uint256"}],"outputs":[{"name":"","type":"uint256","internalType":"uint256"}],"stateMutability":"view"},{"type":"function","name":"viewTokensIndexMin","inputs":[{"name":"_collectionID","type":"uint256","internalType":"uint256"}],"outputs":[{"name":"","type":"uint256","internalType":"uint256"}],"stateMutability":"view"},{"type":"event","name":"Approval","inputs":[{"name":"owner","type":"address","indexed":true,"internalType":"address"},{"name":"approved","type":"address","indexed":true,"internalType":"address"},{"name":"tokenId","type":"uint256","indexed":true,"internalType":"uint256"}],"anonymous":false},{"type":"event","name":"ApprovalForAll","inputs":[{"name":"owner","type":"address","indexed":true,"internalType":"address"},{"name":"operator","type":"address","indexed":true,"internalType":"address"},{"name":"approved","type":"bool","indexed":false,"internalType":"bool"}],"anonymous":false},{"type":"event","name":"CollectionCreated","inputs":[{"name":"_collectionID","type":"uint256","indexed":true,"internalType":"uint256"}],"anonymous":false},{"type":"event","name":"OwnershipTransferred","inputs":[{"name":"previousOwner","type":"address","indexed":true,"internalType":"address"},{"name":"newOwner","type":"address","indexed":true,"internalType":"address"}],"anonymous":false},{"type":"event","name":"Transfer","inputs":[{"name":"from","type":"address","indexed":true,"internalType":"address"},{"name":"to","type":"address","indexed":true,"internalType":"address"},{"name":"tokenId","type":"uint256","indexed":true,"internalType":"uint256"}],"anonymous":false},{"type":"error","name":"ERC2981InvalidDefaultRoyalty","inputs":[{"name":"numerator","type":"uint256","internalType":"uint256"},{"name":"denominator","type":"uint256","internalType":"uint256"}]},{"type":"error","name":"ERC2981InvalidDefaultRoyaltyReceiver","inputs":[{"name":"receiver","type":"address","internalType":"address"}]},{"type":"error","name":"ERC2981InvalidTokenRoyalty","inputs":[{"name":"tokenId","type":"uint256","internalType":"uint256"},{"name":"numerator","type":"uint256","internalType":"uint256"},{"name":"denominator","type":"uint256","internalType":"uint256"}]},{"type":"error","name":"ERC2981InvalidTokenRoyaltyReceiver","inputs":[{"name":"tokenId","type":"uint256","internalType":"uint256"},{"name":"receiver","type":"address","internalType":"address"}]}],"bytecode":{"object":"0x60806040523480156200001157600080fd5b506040516200a79c3803806200a79c8339818101604052810190620000379190620005ca565b838381600090816200004a9190620008c5565b5080600190816200005c9190620008c5565b5050506200007f620000736200014a60201b60201c565b6200015260201b60201c565b81601e60006101000a81548173ffffffffffffffffffffffffffffffffffffffff021916908373ffffffffffffffffffffffffffffffffffffffff16021790555080601f60006101000a81548173ffffffffffffffffffffffffffffffffffffffff021916908373ffffffffffffffffffffffffffffffffffffffff1602179055506001600d54620001129190620009db565b600d819055506200014073c8ed02afebd9acb14c33b5330c803feacaf013776102b26200021860201b60201c565b5050505062000ad3565b600033905090565b6000600c60009054906101000a900473ffffffffffffffffffffffffffffffffffffffff16905081600c60006101000a81548173ffffffffffffffffffffffffffffffffffffffff021916908373ffffffffffffffffffffffffffffffffffffffff1602179055508173ffffffffffffffffffffffffffffffffffffffff168173ffffffffffffffffffffffffffffffffffffffff167f8be0079c531659141344cd1fd0a4f28419497f9722a3daafe3b4186f6b6457e060405160405180910390a35050565b60006200022a620003c860201b60201c565b6bffffffffffffffffffffffff16905080826bffffffffffffffffffffffff161115620002925781816040517f6f483d090000000000000000000000000000000000000000000000000000000081526004016200028992919062000a78565b60405180910390fd5b600073ffffffffffffffffffffffffffffffffffffffff168373ffffffffffffffffffffffffffffffffffffffff1603620003075760006040517fb6d9900a000000000000000000000000000000000000000000000000000000008152600401620002fe919062000ab6565b60405180910390fd5b60405180604001604052808473ffffffffffffffffffffffffffffffffffffffff168152602001836bffffffffffffffffffffffff16815250600a60008201518160000160006101000a81548173ffffffffffffffffffffffffffffffffffffffff021916908373ffffffffffffffffffffffffffffffffffffffff16021790555060208201518160000160146101000a8154816bffffffffffffffffffffffff02191690836bffffffffffffffffffffffff160217905550905050505050565b6000612710905090565b6000604051905090565b600080fd5b600080fd5b600080fd5b600080fd5b6000601f19601f8301169050919050565b7f4e487b7100000000000000000000000000000000000000000000000000000000600052604160045260246000fd5b6200043b82620003f0565b810181811067ffffffffffffffff821117156200045d576200045c62000401565b5b80604052505050565b600062000472620003d2565b905062000480828262000430565b919050565b600067ffffffffffffffff821115620004a357620004a262000401565b5b620004ae82620003f0565b9050602081019050919050565b60005b83811015620004db578082015181840152602081019050620004be565b60008484015250505050565b6000620004fe620004f88462000485565b62000466565b9050828152602081018484840111156200051d576200051c620003eb565b5b6200052a848285620004bb565b509392505050565b600082601f8301126200054a5762000549620003e6565b5b81516200055c848260208601620004e7565b91505092915050565b600073ffffffffffffffffffffffffffffffffffffffff82169050919050565b6000620005928262000565565b9050919050565b620005a48162000585565b8114620005b057600080fd5b50565b600081519050620005c48162000599565b92915050565b60008060008060808587031215620005e757620005e6620003dc565b5b600085015167ffffffffffffffff811115620006085762000607620003e1565b5b620006168782880162000532565b945050602085015167ffffffffffffffff8111156200063a5762000639620003e1565b5b620006488782880162000532565b93505060406200065b87828801620005b3565b92505060606200066e87828801620005b3565b91505092959194509250565b600081519050919050565b7f4e487b7100000000000000000000000000000000000000000000000000000000600052602260045260246000fd5b60006002820490506001821680620006cd57607f821691505b602082108103620006e357620006e262000685565b5b50919050565b60008190508160005260206000209050919050565b60006020601f8301049050919050565b600082821b905092915050565b6000600883026200074d7fffffffffffffffffffffffffffffffffffffffffffffffffffffffffffffffff826200070e565b6200075986836200070e565b95508019841693508086168417925050509392505050565b6000819050919050565b6000819050919050565b6000620007a6620007a06200079a8462000771565b6200077b565b62000771565b9050919050565b6000819050919050565b620007c28362000785565b620007da620007d182620007ad565b8484546200071b565b825550505050565b600090565b620007f1620007e2565b620007fe818484620007b7565b505050565b5b8181101562000826576200081a600082620007e7565b60018101905062000804565b5050565b601f82111562000875576200083f81620006e9565b6200084a84620006fe565b810160208510156200085a578190505b620008726200086985620006fe565b83018262000803565b50505b505050565b600082821c905092915050565b60006200089a600019846008026200087a565b1980831691505092915050565b6000620008b5838362000887565b9150826002028217905092915050565b620008d0826200067a565b67ffffffffffffffff811115620008ec57620008eb62000401565b5b620008f88254620006b4565b620009058282856200082a565b600060209050601f8311600181146200093d576000841562000928578287015190505b620009348582620008a7565b865550620009a4565b601f1984166200094d86620006e9565b60005b82811015620009775784890151825560018201915060208501945060208101905062000950565b8683101562000997578489015162000993601f89168262000887565b8355505b6001600288020188555050505b505050505050565b7f4e487b7100000000000000000000000000000000000000000000000000000000600052601160045260246000fd5b6000620009e88262000771565b9150620009f58362000771565b925082820190508082111562000a105762000a0f620009ac565b5b92915050565b60006bffffffffffffffffffffffff82169050919050565b600062000a4f62000a4962000a438462000a16565b6200077b565b62000771565b9050919050565b62000a618162000a2e565b82525050565b62000a728162000771565b82525050565b600060408201905062000a8f600083018562000a56565b62000a9e602083018462000a67565b9392505050565b62000ab08162000585565b82525050565b600060208201905062000acd600083018462000aa5565b92915050565b619cb98062000ae36000396000f3fe608060405234801561001057600080fd5b50600436106103995760003560e01c80638da5cb5b116101e9578063c87b56dd1161010f578063e1fa8089116100ad578063f18332dd1161007c578063f18332dd14610c02578063f2fde38b14610c32578063f6a85dd014610c4e578063fa92668a14610c6a57610399565b8063e1fa808914610b56578063e943a2c714610b72578063e985e9c514610ba2578063e9b7a86014610bd257610399565b8063d3741000116100e9578063d374100014610aaa578063d3d5492814610ada578063d9a03e3814610b0a578063dabb57ca14610b3a57610399565b8063c87b56dd14610a15578063cb6d67e014610a45578063d095027114610a7557610399565b8063a22cb46511610187578063b4b5b48f11610156578063b4b5b48f1461097d578063b88d4fde146109ad578063b9902968146109c9578063bcc405d0146109f957610399565b8063a22cb465146108f9578063ad24102014610915578063af569fd414610931578063b390c0ab1461096157610399565b806394c14957116101c357806394c149571461087357806395d89b41146108a35780639a8490f3146108c15780639cac0f1f146108dd57610399565b80638da5cb5b1461080757806392f0023314610825578063945e549b1461084357610399565b80634ab6897c116102ce5780636fa135311161026c57806373b40ae91161023b57806373b40ae9146107825780637b5dbac51461079e57806380f8c8ab146107ba57806388c2dd08146107eb57610399565b80636fa13531146106e85780636fafdf831461071857806370a0823114610748578063715018a61461077857610399565b80636352211e116102a85780636352211e1461064e578063663a3c001461067e5780636799a46a1461069c5780636c6aab16146106b857610399565b80634ab6897c146105b95780634f6ccce7146105e95780635c91d74a1461061957610399565b806323b872dd1161033b5780632f745c59116103155780632f745c591461051f578063366b0ab21461054f5780633d2bed8d1461056b57806342842e0e1461059d57610399565b806323b872dd146104a25780632a55205a146104be5780632ed330f7146104ef57610399565b8063081812fc11610377578063081812fc1461041c578063095ea7b31461044c57806318160ddd146104685780631aab8d691461048657610399565b806301ffc9a71461039e57806306fdde03146103ce578063074b5539146103ec575b600080fd5b6103b860048036038101906103b39190616ca1565b610c9a565b6040516103c59190616ce9565b60405180910390f35b6103d6610cac565b6040516103e39190616d94565b60405180910390f35b61040660048036038101906104019190616dec565b610d3e565b6040516104139190616ce9565b60405180910390f35b61043660048036038101906104319190616dec565b610d5e565b6040516104439190616e5a565b60405180910390f35b61046660048036038101906104619190616ea1565b610da4565b005b610470610ebb565b60405161047d9190616ef0565b60405180910390f35b6104a0600480360381019061049b9190616f0b565b610ec8565b005b6104bc60048036038101906104b79190616f4b565b6111c2565b005b6104d860048036038101906104d39190616f9e565b611222565b6040516104e6929190616fde565b60405180910390f35b61050960048036038101906105049190616dec565b61140c565b6040516105169190616ce9565b60405180910390f35b61053960048036038101906105349190616ea1565b611436565b6040516105469190616ef0565b60405180910390f35b61056960048036038101906105649190616dec565b6114db565b005b61058560048036038101906105809190616dec565b6117fc565b6040516105949392919061712c565b60405180910390f35b6105b760048036038101906105b29190616f4b565b6119b1565b005b6105d360048036038101906105ce9190616dec565b6119d1565b6040516105e09190617171565b60405180910390f35b61060360048036038101906105fe9190616dec565b6119ee565b6040516106109190616ef0565b60405180910390f35b610633600480360381019061062e9190616dec565b611a5f565b6040516106459695949392919061718c565b60405180910390f35b61066860048036038101906106639190616dec565b611b47565b6040516106759190616e5a565b60405180910390f35b610686611bcd565b6040516106939190616ef0565b60405180910390f35b6106b660048036038101906106b19190617322565b611bd3565b005b6106d260048036038101906106cd9190616dec565b611cf8565b6040516106df9190616ef0565b60405180910390f35b61070260048036038101906106fd9190616dec565b611d18565b60405161070f9190616d94565b60405180910390f35b610732600480360381019061072d9190616dec565b611e4a565b60405161073f9190616ef0565b60405180910390f35b610762600480360381019061075d919061737e565b611e62565b60405161076f9190616ef0565b60405180910390f35b610780611f19565b005b61079c600480360381019061079791906174bd565b611f2d565b005b6107b860048036038101906107b39190617691565b612325565b005b6107d460048036038101906107cf9190616dec565b6127dd565b6040516107e292919061770c565b60405180910390f35b6108056004803603810190610800919061777c565b61294f565b005b61080f612d45565b60405161081c9190616e5a565b60405180910390f35b61082d612d6f565b60405161083a9190616e5a565b60405180910390f35b61085d60048036038101906108589190616dec565b612d95565b60405161086a9190616ef0565b60405180910390f35b61088d60048036038101906108889190616f0b565b612db5565b60405161089a9190616ef0565b60405180910390f35b6108ab612e10565b6040516108b89190616d94565b60405180910390f35b6108db60048036038101906108d69190617322565b612ea2565b005b6108f760048036038101906108f291906177bc565b6130e1565b005b610913600480360381019061090e919061783b565b61318e565b005b61092f600480360381019061092a919061793e565b6131a4565b005b61094b60048036038101906109469190616dec565b61353a565b6040516109589190616ef0565b60405180910390f35b61097b60048036038101906109769190616f9e565b61355a565b005b61099760048036038101906109929190616dec565b613669565b6040516109a49190616d94565b60405180910390f35b6109c760048036038101906109c29190617a86565b613709565b005b6109e360048036038101906109de9190616dec565b61376b565b6040516109f09190616e5a565b60405180910390f35b610a136004803603810190610a0e9190616dec565b6137ab565b005b610a2f6004803603810190610a2a9190616dec565b613af0565b604051610a3c9190616d94565b60405180910390f35b610a5f6004803603810190610a5a9190616f0b565b613ed3565b604051610a6c9190616ef0565b60405180910390f35b610a8f6004803603810190610a8a9190616dec565b613f2e565b604051610aa196959493929190617b09565b60405180910390f35b610ac46004803603810190610abf9190616dec565b614318565b604051610ad19190616ce9565b60405180910390f35b610af46004803603810190610aef9190616dec565b614342565b604051610b019190616ce9565b60405180910390f35b610b246004803603810190610b1f9190616dec565b614362565b604051610b319190616d94565b60405180910390f35b610b546004803603810190610b4f9190617b94565b614402565b005b610b706004803603810190610b6b9190617c2b565b614607565b005b610b8c6004803603810190610b879190616f0b565b61496f565b604051610b999190616ef0565b60405180910390f35b610bbc6004803603810190610bb79190617dd5565b6149ca565b604051610bc99190616ce9565b60405180910390f35b610bec6004803603810190610be79190616dec565b614a5e565b604051610bf99190616ef0565b60405180910390f35b610c1c6004803603810190610c179190616dec565b614a7e565b604051610c299190616ef0565b60405180910390f35b610c4c6004803603810190610c47919061737e565b614abc565b005b610c686004803603810190610c639190617e15565b614b3f565b005b610c846004803603810190610c7f9190616dec565b614d9c565b604051610c919190616ef0565b60405180910390f35b6000610ca582614db9565b9050919050565b606060008054610cbb90617e84565b80601f0160208091040260200160405190810160405280929190818152602001828054610ce790617e84565b8015610d345780601f10610d0957610100808354040283529160200191610d34565b820191906000526020600020905b815481529060010190602001808311610d1757829003601f168201915b5050505050905090565b60186020528060005260406000206000915054906101000a900460ff1681565b6000610d6982614e33565b6004600083815260200190815260200160002060009054906101000a900473ffffffffffffffffffffffffffffffffffffffff169050919050565b6000610daf82611b47565b90508073ffffffffffffffffffffffffffffffffffffffff168373ffffffffffffffffffffffffffffffffffffffff1603610e1f576040517f08c379a0000000000000000000000000000000000000000000000000000000008152600401610e1690617f27565b60405180910390fd5b8073ffffffffffffffffffffffffffffffffffffffff16610e3e614e7e565b73ffffffffffffffffffffffffffffffffffffffff161480610e6d5750610e6c81610e67614e7e565b6149ca565b5b610eac576040517f08c379a0000000000000000000000000000000000000000000000000000000008152600401610ea390617fb9565b60405180910390fd5b610eb68383614e86565b505050565b6000600880549050905090565b631aab8d6960e01b60011515601e60009054906101000a900473ffffffffffffffffffffffffffffffffffffffff1673ffffffffffffffffffffffffffffffffffffffff1663feb2e23333846040518363ffffffff1660e01b8152600401610f31929190617fe8565b602060405180830381865afa158015610f4e573d6000803e3d6000fd5b505050506040513d601f19601f82011682018060405250810190610f729190618026565b1515148061101f575060011515601e60009054906101000a900473ffffffffffffffffffffffffffffffffffffffff1673ffffffffffffffffffffffffffffffffffffffff1663b3076d55336040518263ffffffff1660e01b8152600401610fda9190616e5a565b602060405180830381865afa158015610ff7573d6000803e3d6000fd5b505050506040513d601f19601f8201168201806040525081019061101b9190618026565b1515145b61105e576040517f08c379a00000000000000000000000000000000000000000000000000000000081526004016110559061809f565b60405180910390fd5b600115158273ffffffffffffffffffffffffffffffffffffffff16634cf0c6976040518163ffffffff1660e01b8152600401602060405180830381865afa1580156110ad573d6000803e3d6000fd5b505050506040513d601f19601f820116820180604052508101906110d19190618026565b151514611113576040517f08c379a000000000000000000000000000000000000000000000000000000000815260040161110a9061810b565b60405180910390fd5b81600f600085815260200190815260200160002060070160006101000a81548173ffffffffffffffffffffffffffffffffffffffff021916908373ffffffffffffffffffffffffffffffffffffffff16021790555081600f600085815260200190815260200160002060080160006101000a81548173ffffffffffffffffffffffffffffffffffffffff021916908373ffffffffffffffffffffffffffffffffffffffff160217905550505050565b6111d36111cd614e7e565b82614f3f565b611212576040517f08c379a00000000000000000000000000000000000000000000000000000000081526004016112099061819d565b60405180910390fd5b61121d838383614fd4565b505050565b6000806000600b60008681526020019081526020016000206040518060400160405290816000820160009054906101000a900473ffffffffffffffffffffffffffffffffffffffff1673ffffffffffffffffffffffffffffffffffffffff1673ffffffffffffffffffffffffffffffffffffffff1681526020016000820160149054906101000a90046bffffffffffffffffffffffff166bffffffffffffffffffffffff166bffffffffffffffffffffffff16815250509050600073ffffffffffffffffffffffffffffffffffffffff16816000015173ffffffffffffffffffffffffffffffffffffffff16036113b757600a6040518060400160405290816000820160009054906101000a900473ffffffffffffffffffffffffffffffffffffffff1673ffffffffffffffffffffffffffffffffffffffff1673ffffffffffffffffffffffffffffffffffffffff1681526020016000820160149054906101000a90046bffffffffffffffffffffffff166bffffffffffffffffffffffff166bffffffffffffffffffffffff168152505090505b60006113c16152cd565b6bffffffffffffffffffffffff1682602001516bffffffffffffffffffffffff16866113ed91906181ec565b6113f7919061825d565b90508160000151819350935050509250929050565b6000601c600083815260200190815260200160002060009054906101000a900460ff169050919050565b600061144183611e62565b8210611482576040517f08c379a000000000000000000000000000000000000000000000000000000000815260040161147990618300565b60405180910390fd5b600660008473ffffffffffffffffffffffffffffffffffffffff1673ffffffffffffffffffffffffffffffffffffffff168152602001908152602001600020600083815260200190815260200160002054905092915050565b63366b0ab260e01b60011515601e60009054906101000a900473ffffffffffffffffffffffffffffffffffffffff1673ffffffffffffffffffffffffffffffffffffffff1663feb2e23333846040518363ffffffff1660e01b8152600401611544929190617fe8565b602060405180830381865afa158015611561573d6000803e3d6000fd5b505050506040513d601f19601f820116820180604052508101906115859190618026565b15151480611632575060011515601e60009054906101000a900473ffffffffffffffffffffffffffffffffffffffff1673ffffffffffffffffffffffffffffffffffffffff1663b3076d55336040518263ffffffff1660e01b81526004016115ed9190616e5a565b602060405180830381865afa15801561160a573d6000803e3d6000fd5b505050506040513d601f19601f8201168201806040525081019061162e9190618026565b1515145b611671576040517f08c379a00000000000000000000000000000000000000000000000000000000081526004016116689061809f565b60405180910390fd5b600f600083815260200190815260200160002060060154602060009054906101000a900473ffffffffffffffffffffffffffffffffffffffff1673ffffffffffffffffffffffffffffffffffffffff16639067b677846040518263ffffffff1660e01b81526004016116e39190616ef0565b602060405180830381865afa158015611700573d6000803e3d6000fd5b505050506040513d601f19601f820116820180604052508101906117249190618335565b61172e9190618362565b421161176f576040517f08c379a0000000000000000000000000000000000000000000000000000000008152600401611766906183e2565b60405180910390fd5b600f600083815260200190815260200160002060020154600f6000848152602001908152602001600020600301819055506001600f6000848152602001908152602001600020600301546402540be400846117ca91906181ec565b6117d49190618362565b6117de9190618402565b600f6000848152602001908152602001600020600501819055505050565b606060006060600e6000858152602001908152602001600020600601600e600086815260200190815260200160002060070154600e600087815260200190815260200160002060080182805461185190617e84565b80601f016020809104026020016040519081016040528092919081815260200182805461187d90617e84565b80156118ca5780601f1061189f576101008083540402835291602001916118ca565b820191906000526020600020905b8154815290600101906020018083116118ad57829003601f168201915b5050505050925080805480602002602001604051908101604052809291908181526020016000905b8282101561199e57838290600052602060002001805461191190617e84565b80601f016020809104026020016040519081016040528092919081815260200182805461193d90617e84565b801561198a5780601f1061195f5761010080835404028352916020019161198a565b820191906000526020600020905b81548152906001019060200180831161196d57829003601f168201915b5050505050815260200190600101906118f2565b5050505090509250925092509193909250565b6119cc83838360405180602001604052806000815250613709565b505050565b600060136000838152602001908152602001600020549050919050565b60006119f8610ebb565b8210611a39576040517f08c379a0000000000000000000000000000000000000000000000000000000008152600401611a30906184a8565b60405180910390fd5b60088281548110611a4d57611a4c6184c8565b5b90600052602060002001549050919050565b600080600080600080600f600088815260200190815260200160002060000160009054906101000a900473ffffffffffffffffffffffffffffffffffffffff16600f600089815260200190815260200160002060010154600f60008a815260200190815260200160002060020154600f60008b815260200190815260200160002060030154600f60008c815260200190815260200160002060060154600f60008d815260200190815260200160002060070160009054906101000a900473ffffffffffffffffffffffffffffffffffffffff1695509550955095509550955091939550919395565b600080611b53836152d7565b9050600073ffffffffffffffffffffffffffffffffffffffff168173ffffffffffffffffffffffffffffffffffffffff1603611bc4576040517f08c379a0000000000000000000000000000000000000000000000000000000008152600401611bbb90618543565b60405180910390fd5b80915050919050565b600d5481565b600f600083815260200190815260200160002060000160009054906101000a900473ffffffffffffffffffffffffffffffffffffffff1673ffffffffffffffffffffffffffffffffffffffff163373ffffffffffffffffffffffffffffffffffffffff16148015611c68575060001515601d600084815260200190815260200160002060009054906101000a900460ff161515145b611ca7576040517f08c379a0000000000000000000000000000000000000000000000000000000008152600401611c9e906185af565b60405180910390fd5b80601960008481526020019081526020016000209081611cc7919061877b565b506001601d600084815260200190815260200160002060006101000a81548160ff0219169083151502179055505050565b6000600f6000838152602001908152602001600020600501549050919050565b6060611d2382614e33565b606060005b600e60006012600087815260200190815260200160002054815260200190815260200160002060080180549050811015611dd75781600e6000601260008881526020019081526020016000205481526020019081526020016000206008018281548110611d9857611d976184c8565b5b90600052602060002001604051602001611db392919061890c565b60405160208183030381529060405291508080611dcf90618930565b915050611d28565b50611df9601360008581526020019081526020016000205460001c6020615314565b611e0284615550565b601a6000868152602001908152602001600020611e1e8661561e565b84604051602001611e33959493929190618b40565b604051602081830303815290604052915050919050565b60176020528060005260406000206000915090505481565b60008073ffffffffffffffffffffffffffffffffffffffff168273ffffffffffffffffffffffffffffffffffffffff1603611ed2576040517f08c379a0000000000000000000000000000000000000000000000000000000008152600401611ec990618c3f565b60405180910390fd5b600360008373ffffffffffffffffffffffffffffffffffffffff1673ffffffffffffffffffffffffffffffffffffffff168152602001908152602001600020549050919050565b611f2161581b565b611f2b6000615899565b565b63f6a85dd060e01b60011515601e60009054906101000a900473ffffffffffffffffffffffffffffffffffffffff1673ffffffffffffffffffffffffffffffffffffffff1663feb2e23333846040518363ffffffff1660e01b8152600401611f96929190617fe8565b602060405180830381865afa158015611fb3573d6000803e3d6000fd5b505050506040513d601f19601f82011682018060405250810190611fd79190618026565b15151480612084575060011515601e60009054906101000a900473ffffffffffffffffffffffffffffffffffffffff1673ffffffffffffffffffffffffffffffffffffffff1663b3076d55336040518263ffffffff1660e01b815260040161203f9190616e5a565b602060405180830381865afa15801561205c573d6000803e3d6000fd5b505050506040513d601f19601f820116820180604052508101906120809190618026565b1515145b6120c3576040517f08c379a00000000000000000000000000000000000000000000000000000000081526004016120ba9061809f565b60405180910390fd5b60011515601060008e815260200190815260200160002060009054906101000a900460ff16151514801561211b575060001515601c60008e815260200190815260200160002060009054906101000a900460ff161515145b61215a576040517f08c379a00000000000000000000000000000000000000000000000000000000081526004016121519061809f565b60405180910390fd5b620f42408303612287578a600e60008e81526020019081526020016000206000019081612187919061877b565b5089600e60008e815260200190815260200160002060010190816121ab919061877b565b5088600e60008e815260200190815260200160002060020190816121cf919061877b565b5087600e60008e815260200190815260200160002060030190816121f3919061877b565b5086600e60008e81526020019081526020016000206004019081612217919061877b565b5084600e60008e8152602001908152602001600020600601908161223b919061877b565b5083600e60008e81526020019081526020016000206007018190555081600e60008e81526020019081526020016000206008019080519060200190612281929190616b5b565b50612317565b620f423f83036122ba5785600e60008e815260200190815260200160002060050190816122b4919061877b565b50612316565b816000815181106122ce576122cd6184c8565b5b6020026020010151600e60008e815260200190815260200160002060080184815481106122fe576122fd6184c8565b5b906000526020600020019081612314919061877b565b505b5b505050505050505050505050565b63f6a85dd060e01b60011515601e60009054906101000a900473ffffffffffffffffffffffffffffffffffffffff1673ffffffffffffffffffffffffffffffffffffffff1663feb2e23333846040518363ffffffff1660e01b815260040161238e929190617fe8565b602060405180830381865afa1580156123ab573d6000803e3d6000fd5b505050506040513d601f19601f820116820180604052508101906123cf9190618026565b1515148061247c575060011515601e60009054906101000a900473ffffffffffffffffffffffffffffffffffffffff1673ffffffffffffffffffffffffffffffffffffffff1663b3076d55336040518263ffffffff1660e01b81526004016124379190616e5a565b602060405180830381865afa158015612454573d6000803e3d6000fd5b505050506040513d601f19601f820116820180604052508101906124789190618026565b1515145b6124bb576040517f08c379a00000000000000000000000000000000000000000000000000000000081526004016124b29061809f565b60405180910390fd5b600115156010600088815260200190815260200160002060009054906101000a900460ff161515148015612513575060001515601c600088815260200190815260200160002060009054906101000a900460ff161515145b801561252457506402540be4008311155b612563576040517f08c379a000000000000000000000000000000000000000000000000000000000815260040161255a90618cab565b60405180910390fd5b6000600f600088815260200190815260200160002060030154036126e15784600f600088815260200190815260200160002060000160006101000a81548173ffffffffffffffffffffffffffffffffffffffff021916908373ffffffffffffffffffffffffffffffffffffffff16021790555083600f6000888152602001908152602001600020600101819055506000600f60008881526020019081526020016000206002018190555082600f60008881526020019081526020016000206003018190555081600f6000888152602001908152602001600020600601819055506402540be4008661265491906181ec565b600f6000888152602001908152602001600020600401819055506001836402540be4008861268291906181ec565b61268c9190618362565b6126969190618402565b600f60008881526020019081526020016000206005018190555060016011600088815260200190815260200160002060006101000a81548160ff0219169083151502179055506127d5565b60001515601d600088815260200190815260200160002060009054906101000a900460ff1615150361279d5784600f600088815260200190815260200160002060000160006101000a81548173ffffffffffffffffffffffffffffffffffffffff021916908373ffffffffffffffffffffffffffffffffffffffff16021790555083600f60008881526020019081526020016000206001018190555081600f6000888152602001908152602001600020600601819055506127d4565b83600f60008881526020019081526020016000206001018190555081600f6000888152602001908152602001600020600601819055505b5b505050505050565b606080601b6000848152602001908152602001600020600060028110612806576128056184c8565b5b01601b600085815260200190815260200160002060016002811061282d5761282c6184c8565b5b0181805461283a90617e84565b80601f016020809104026020016040519081016040528092919081815260200182805461286690617e84565b80156128b35780601f10612888576101008083540402835291602001916128b3565b820191906000526020600020905b81548152906001019060200180831161289657829003601f168201915b505050505091508080546128c690617e84565b80601f01602080910402602001604051908101604052809291908181526020018280546128f290617e84565b801561293f5780601f106129145761010080835404028352916020019161293f565b820191906000526020600020905b81548152906001019060200180831161292257829003601f168201915b5050505050905091509150915091565b6388c2dd0860e01b60011515601e60009054906101000a900473ffffffffffffffffffffffffffffffffffffffff1673ffffffffffffffffffffffffffffffffffffffff1663feb2e23333846040518363ffffffff1660e01b81526004016129b8929190617fe8565b602060405180830381865afa1580156129d5573d6000803e3d6000fd5b505050506040513d601f19601f820116820180604052508101906129f99190618026565b15151480612aa6575060011515601e60009054906101000a900473ffffffffffffffffffffffffffffffffffffffff1673ffffffffffffffffffffffffffffffffffffffff1663b3076d55336040518263ffffffff1660e01b8152600401612a619190616e5a565b602060405180830381865afa158015612a7e573d6000803e3d6000fd5b505050506040513d601f19601f82011682018060405250810190612aa29190618026565b1515145b612ae5576040517f08c379a0000000000000000000000000000000000000000000000000000000008152600401612adc9061809f565b60405180910390fd5b60018360ff1603612beb57600115158273ffffffffffffffffffffffffffffffffffffffff16639068edac6040518163ffffffff1660e01b8152600401602060405180830381865afa158015612b3f573d6000803e3d6000fd5b505050506040513d601f19601f82011682018060405250810190612b639190618026565b151514612ba5576040517f08c379a0000000000000000000000000000000000000000000000000000000008152600401612b9c90618d17565b60405180910390fd5b81601e60006101000a81548173ffffffffffffffffffffffffffffffffffffffff021916908373ffffffffffffffffffffffffffffffffffffffff160217905550612d40565b60028360ff1603612cf157600115158273ffffffffffffffffffffffffffffffffffffffff1663fb9422ff6040518163ffffffff1660e01b8152600401602060405180830381865afa158015612c45573d6000803e3d6000fd5b505050506040513d601f19601f82011682018060405250810190612c699190618026565b151514612cab576040517f08c379a0000000000000000000000000000000000000000000000000000000008152600401612ca290618d83565b60405180910390fd5b81602060006101000a81548173ffffffffffffffffffffffffffffffffffffffff021916908373ffffffffffffffffffffffffffffffffffffffff160217905550612d3f565b60038360ff1603612d3e5781601f60006101000a81548173ffffffffffffffffffffffffffffffffffffffff021916908373ffffffffffffffffffffffffffffffffffffffff1602179055505b5b5b505050565b6000600c60009054906101000a900473ffffffffffffffffffffffffffffffffffffffff16905090565b602060009054906101000a900473ffffffffffffffffffffffffffffffffffffffff1681565b6000600f6000838152602001908152602001600020600101549050919050565b60006016600084815260200190815260200160002060008373ffffffffffffffffffffffffffffffffffffffff1673ffffffffffffffffffffffffffffffffffffffff16815260200190815260200160002054905092915050565b606060018054612e1f90617e84565b80601f0160208091040260200160405190810160405280929190818152602001828054612e4b90617e84565b8015612e985780601f10612e6d57610100808354040283529160200191612e98565b820191906000526020600020905b815481529060010190602001808311612e7b57829003601f168201915b5050505050905090565b639a8490f360e01b60011515601e60009054906101000a900473ffffffffffffffffffffffffffffffffffffffff1673ffffffffffffffffffffffffffffffffffffffff1663feb2e23333846040518363ffffffff1660e01b8152600401612f0b929190617fe8565b602060405180830381865afa158015612f28573d6000803e3d6000fd5b505050506040513d601f19601f82011682018060405250810190612f4c9190618026565b15151480612ff9575060011515601e60009054906101000a900473ffffffffffffffffffffffffffffffffffffffff1673ffffffffffffffffffffffffffffffffffffffff1663b3076d55336040518263ffffffff1660e01b8152600401612fb49190616e5a565b602060405180830381865afa158015612fd1573d6000803e3d6000fd5b505050506040513d601f19601f82011682018060405250810190612ff59190618026565b1515145b613038576040517f08c379a000000000000000000000000000000000000000000000000000000000815260040161302f9061809f565b60405180910390fd5b60001515601c60006012600087815260200190815260200160002054815260200190815260200160002060009054906101000a900460ff161515146130b2576040517f08c379a00000000000000000000000000000000000000000000000000000000081526004016130a990618def565b60405180910390fd5b6130bb83614e33565b81601a600085815260200190815260200160002090816130db919061877b565b50505050565b600f600084815260200190815260200160002060070160009054906101000a900473ffffffffffffffffffffffffffffffffffffffff1673ffffffffffffffffffffffffffffffffffffffff163373ffffffffffffffffffffffffffffffffffffffff161461314f57600080fd5b6000801b60136000848152602001908152602001600020541461317157600080fd5b806013600084815260200190815260200160002081905550505050565b6131a0613199614e7e565b838361595f565b5050565b63ad24102060e01b60011515601e60009054906101000a900473ffffffffffffffffffffffffffffffffffffffff1673ffffffffffffffffffffffffffffffffffffffff1663feb2e23333846040518363ffffffff1660e01b815260040161320d929190617fe8565b602060405180830381865afa15801561322a573d6000803e3d6000fd5b505050506040513d601f19601f8201168201806040525081019061324e9190618026565b151514806132fb575060011515601e60009054906101000a900473ffffffffffffffffffffffffffffffffffffffff1673ffffffffffffffffffffffffffffffffffffffff1663b3076d55336040518263ffffffff1660e01b81526004016132b69190616e5a565b602060405180830381865afa1580156132d3573d6000803e3d6000fd5b505050506040513d601f19601f820116820180604052508101906132f79190618026565b1515145b61333a576040517f08c379a00000000000000000000000000000000000000000000000000000000081526004016133319061809f565b60405180910390fd5b8251845114801561334c575081518351145b61338b576040517f08c379a000000000000000000000000000000000000000000000000000000000815260040161338290618e5b565b60405180910390fd5b60005b84518110156135335760001515601c6000601260008986815181106133b6576133b56184c8565b5b6020026020010151815260200190815260200160002054815260200190815260200160002060009054906101000a900460ff1615151461342b576040517f08c379a000000000000000000000000000000000000000000000000000000000815260040161342290618def565b60405180910390fd5b61344e858281518110613441576134406184c8565b5b6020026020010151614e33565b838181518110613461576134606184c8565b5b6020026020010151601b60008784815181106134805761347f6184c8565b5b602002602001015181526020019081526020016000206000600281106134a9576134a86184c8565b5b0190816134b6919061877b565b508281815181106134ca576134c96184c8565b5b6020026020010151601b60008784815181106134e9576134e86184c8565b5b60200260200101518152602001908152602001600020600160028110613512576135116184c8565b5b01908161351f919061877b565b50808061352b90618930565b91505061338e565b5050505050565b6000600f6000838152602001908152602001600020600201549050919050565b61356b613565614e7e565b82614f3f565b6135aa576040517f08c379a00000000000000000000000000000000000000000000000000000000081526004016135a19061819d565b60405180910390fd5b600f60008381526020019081526020016000206004015481101580156135e65750600f6000838152602001908152602001600020600501548111155b613625576040517f08c379a000000000000000000000000000000000000000000000000000000000815260040161361c90618ec7565b60405180910390fd5b61362e81615acb565b6001601760008481526020019081526020016000205461364e9190618362565b60176000848152602001908152602001600020819055505050565b601a602052806000526040600020600091509050805461368890617e84565b80601f01602080910402602001604051908101604052809291908181526020018280546136b490617e84565b80156137015780601f106136d657610100808354040283529160200191613701565b820191906000526020600020905b8154815290600101906020018083116136e457829003601f168201915b505050505081565b61371a613714614e7e565b83614f3f565b613759576040517f08c379a00000000000000000000000000000000000000000000000000000000081526004016137509061819d565b60405180910390fd5b61376584848484615c19565b50505050565b6000600f600083815260200190815260200160002060000160009054906101000a900473ffffffffffffffffffffffffffffffffffffffff169050919050565b63bcc405d060e01b60011515601e60009054906101000a900473ffffffffffffffffffffffffffffffffffffffff1673ffffffffffffffffffffffffffffffffffffffff1663feb2e23333846040518363ffffffff1660e01b8152600401613814929190617fe8565b602060405180830381865afa158015613831573d6000803e3d6000fd5b505050506040513d601f19601f820116820180604052508101906138559190618026565b15151480613902575060011515601e60009054906101000a900473ffffffffffffffffffffffffffffffffffffffff1673ffffffffffffffffffffffffffffffffffffffff1663b3076d55336040518263ffffffff1660e01b81526004016138bd9190616e5a565b602060405180830381865afa1580156138da573d6000803e3d6000fd5b505050506040513d601f19601f820116820180604052508101906138fe9190618026565b1515145b613941576040517f08c379a00000000000000000000000000000000000000000000000000000000081526004016139389061809f565b60405180910390fd5b602060009054906101000a900473ffffffffffffffffffffffffffffffffffffffff1673ffffffffffffffffffffffffffffffffffffffff16639067b677836040518263ffffffff1660e01b815260040161399c9190616ef0565b602060405180830381865afa1580156139b9573d6000803e3d6000fd5b505050506040513d601f19601f820116820180604052508101906139dd9190618335565b42118015613a8757506000602060009054906101000a900473ffffffffffffffffffffffffffffffffffffffff1673ffffffffffffffffffffffffffffffffffffffff16639067b677846040518263ffffffff1660e01b8152600401613a439190616ef0565b602060405180830381865afa158015613a60573d6000803e3d6000fd5b505050506040513d601f19601f82011682018060405250810190613a849190618335565b14155b8015613ab75750600115156011600084815260200190815260200160002060009054906101000a900460ff161515145b613ac057600080fd5b6001601c600084815260200190815260200160002060006101000a81548160ff0219169083151502179055505050565b6060613afb82614e33565b60001515601860006012600086815260200190815260200160002054815260200190815260200160002060009054906101000a900460ff161515148015613b5857506000801b601360008481526020019081526020016000205414155b15613c64576000600e6000601260008681526020019081526020016000205481526020019081526020016000206005018054613b9390617e84565b80601f0160208091040260200160405190810160405280929190818152602001828054613bbf90617e84565b8015613c0c5780601f10613be157610100808354040283529160200191613c0c565b820191906000526020600020905b815481529060010190602001808311613bef57829003601f168201915b505050505090506000815111613c315760405180602001604052806000815250613c5c565b80613c3b84615550565b604051602001613c4c929190618ee7565b6040516020818303038152906040525b915050613ece565b60001515601860006012600086815260200190815260200160002054815260200190815260200160002060009054906101000a900460ff161515148015613cc057506000801b6013600084815260200190815260200160002054145b15613dc2576000600e6000601260008681526020019081526020016000205481526020019081526020016000206005018054613cfb90617e84565b80601f0160208091040260200160405190810160405280929190818152602001828054613d2790617e84565b8015613d745780601f10613d4957610100808354040283529160200191613d74565b820191906000526020600020905b815481529060010190602001808311613d5757829003601f168201915b505050505090506000815111613d995760405180602001604052806000815250613dba565b80604051602001613daa9190618f57565b6040516020818303038152906040525b915050613ece565b6000613e1e600e600060126000878152602001908152602001600020548152602001908152602001600020600601613df985611d18565b604051602001613e0a929190619083565b604051602081830303815290604052615c75565b90506000613e2b84615dd8565b600e600060126000888152602001908152602001600020548152602001908152602001600020600201601b6000878152602001908152602001600020600060028110613e7a57613e796184c8565b5b01601b6000888152602001908152602001600020600160028110613ea157613ea06184c8565b5b0185604051602001613eb79594939291906192dc565b604051602081830303815290604052905080925050505b919050565b60006015600084815260200190815260200160002060008373ffffffffffffffffffffffffffffffffffffffff1673ffffffffffffffffffffffffffffffffffffffff16815260200190815260200160002054905092915050565b606080606080606080600e6000888152602001908152602001600020600001600e6000898152602001908152602001600020600101600e60008a8152602001908152602001600020600201600e60008b8152602001908152602001600020600301600e60008c8152602001908152602001600020600401600e60008d8152602001908152602001600020600501858054613fc790617e84565b80601f0160208091040260200160405190810160405280929190818152602001828054613ff390617e84565b80156140405780601f1061401557610100808354040283529160200191614040565b820191906000526020600020905b81548152906001019060200180831161402357829003601f168201915b5050505050955084805461405390617e84565b80601f016020809104026020016040519081016040528092919081815260200182805461407f90617e84565b80156140cc5780601f106140a1576101008083540402835291602001916140cc565b820191906000526020600020905b8154815290600101906020018083116140af57829003601f168201915b505050505094508380546140df90617e84565b80601f016020809104026020016040519081016040528092919081815260200182805461410b90617e84565b80156141585780601f1061412d57610100808354040283529160200191614158565b820191906000526020600020905b81548152906001019060200180831161413b57829003601f168201915b5050505050935082805461416b90617e84565b80601f016020809104026020016040519081016040528092919081815260200182805461419790617e84565b80156141e45780601f106141b9576101008083540402835291602001916141e4565b820191906000526020600020905b8154815290600101906020018083116141c757829003601f168201915b505050505092508180546141f790617e84565b80601f016020809104026020016040519081016040528092919081815260200182805461422390617e84565b80156142705780601f1061424557610100808354040283529160200191614270565b820191906000526020600020905b81548152906001019060200180831161425357829003601f168201915b5050505050915080805461428390617e84565b80601f01602080910402602001604051908101604052809291908181526020018280546142af90617e84565b80156142fc5780601f106142d1576101008083540402835291602001916142fc565b820191906000526020600020905b8154815290600101906020018083116142df57829003601f168201915b5050505050905095509550955095509550955091939550919395565b60006011600083815260200190815260200160002060009054906101000a900460ff169050919050565b601d6020528060005260406000206000915054906101000a900460ff1681565b6019602052806000526040600020600091509050805461438190617e84565b80601f01602080910402602001604051908101604052809291908181526020018280546143ad90617e84565b80156143fa5780601f106143cf576101008083540402835291602001916143fa565b820191906000526020600020905b8154815290600101906020018083116143dd57829003601f168201915b505050505081565b602060009054906101000a900473ffffffffffffffffffffffffffffffffffffffff1673ffffffffffffffffffffffffffffffffffffffff163373ffffffffffffffffffffffffffffffffffffffff1614614492576040517f08c379a0000000000000000000000000000000000000000000000000000000008152600401614489906193db565b60405180910390fd5b6001600f6000838152602001908152602001600020600201546144b59190618362565b600f600083815260200190815260200160002060020181905550600f600082815260200190815260200160002060020154600f600083815260200190815260200160002060030154106145c55760016016600083815260200190815260200160002060008673ffffffffffffffffffffffffffffffffffffffff1673ffffffffffffffffffffffffffffffffffffffff1681526020019081526020016000205461455f9190618362565b6016600083815260200190815260200160002060008673ffffffffffffffffffffffffffffffffffffffff1673ffffffffffffffffffffffffffffffffffffffff168152602001908152602001600020819055506145c08585858486615e62565b614600565b6040517f08c379a00000000000000000000000000000000000000000000000000000000081526004016145f790619447565b60405180910390fd5b5050505050565b63e1fa808960e01b60011515601e60009054906101000a900473ffffffffffffffffffffffffffffffffffffffff1673ffffffffffffffffffffffffffffffffffffffff1663feb2e23333846040518363ffffffff1660e01b8152600401614670929190617fe8565b602060405180830381865afa15801561468d573d6000803e3d6000fd5b505050506040513d601f19601f820116820180604052508101906146b19190618026565b1515148061475e575060011515601e60009054906101000a900473ffffffffffffffffffffffffffffffffffffffff1673ffffffffffffffffffffffffffffffffffffffff1663b3076d55336040518263ffffffff1660e01b81526004016147199190616e5a565b602060405180830381865afa158015614736573d6000803e3d6000fd5b505050506040513d601f19601f8201168201806040525081019061475a9190618026565b1515145b61479d576040517f08c379a00000000000000000000000000000000000000000000000000000000081526004016147949061809f565b60405180910390fd5b89600e6000600d54815260200190815260200160002060000190816147c2919061877b565b5088600e6000600d54815260200190815260200160002060010190816147e8919061877b565b5087600e6000600d548152602001908152602001600020600201908161480e919061877b565b5086600e6000600d5481526020019081526020016000206003019081614834919061877b565b5085600e6000600d548152602001908152602001600020600401908161485a919061877b565b5084600e6000600d5481526020019081526020016000206005019081614880919061877b565b5083600e6000600d54815260200190815260200160002060060190816148a6919061877b565b5082600e6000600d5481526020019081526020016000206007018190555081600e6000600d54815260200190815260200160002060080190805190602001906148f0929190616b5b565b50600160106000600d54815260200190815260200160002060006101000a81548160ff021916908315150217905550600d547f5baee347cce9899b119eb4f42984958a6e25dc5b505f4f1ab8f3837120cf241f60405160405180910390a26001600d5461495d9190618362565b600d8190555050505050505050505050565b60006014600084815260200190815260200160002060008373ffffffffffffffffffffffffffffffffffffffff1673ffffffffffffffffffffffffffffffffffffffff16815260200190815260200160002054905092915050565b6000600560008473ffffffffffffffffffffffffffffffffffffffff1673ffffffffffffffffffffffffffffffffffffffff16815260200190815260200160002060008373ffffffffffffffffffffffffffffffffffffffff1673ffffffffffffffffffffffffffffffffffffffff16815260200190815260200160002060009054906101000a900460ff16905092915050565b6000600f6000838152602001908152602001600020600401549050919050565b60006017600083815260200190815260200160002054600f600084815260200190815260200160002060020154614ab59190618402565b9050919050565b614ac461581b565b600073ffffffffffffffffffffffffffffffffffffffff168173ffffffffffffffffffffffffffffffffffffffff1603614b33576040517f08c379a0000000000000000000000000000000000000000000000000000000008152600401614b2a906194d9565b60405180910390fd5b614b3c81615899565b50565b63f6a85dd060e01b60011515601e60009054906101000a900473ffffffffffffffffffffffffffffffffffffffff1673ffffffffffffffffffffffffffffffffffffffff1663feb2e23333846040518363ffffffff1660e01b8152600401614ba8929190617fe8565b602060405180830381865afa158015614bc5573d6000803e3d6000fd5b505050506040513d601f19601f82011682018060405250810190614be99190618026565b15151480614c96575060011515601e60009054906101000a900473ffffffffffffffffffffffffffffffffffffffff1673ffffffffffffffffffffffffffffffffffffffff1663b3076d55336040518263ffffffff1660e01b8152600401614c519190616e5a565b602060405180830381865afa158015614c6e573d6000803e3d6000fd5b505050506040513d601f19601f82011682018060405250810190614c929190618026565b1515145b614cd5576040517f08c379a0000000000000000000000000000000000000000000000000000000008152600401614ccc9061809f565b60405180910390fd5b600115156010600085815260200190815260200160002060009054906101000a900460ff161515148015614d2d575060001515601c600085815260200190815260200160002060009054906101000a900460ff161515145b614d6c576040517f08c379a0000000000000000000000000000000000000000000000000000000008152600401614d639061809f565b60405180910390fd5b816018600085815260200190815260200160002060006101000a81548160ff021916908315150217905550505050565b600060126000838152602001908152602001600020549050919050565b60007f2a55205a000000000000000000000000000000000000000000000000000000007bffffffffffffffffffffffffffffffffffffffffffffffffffffffff1916827bffffffffffffffffffffffffffffffffffffffffffffffffffffffff19161480614e2c5750614e2b82615f51565b5b9050919050565b614e3c81615fcb565b614e7b576040517f08c379a0000000000000000000000000000000000000000000000000000000008152600401614e7290618543565b60405180910390fd5b50565b600033905090565b816004600083815260200190815260200160002060006101000a81548173ffffffffffffffffffffffffffffffffffffffff021916908373ffffffffffffffffffffffffffffffffffffffff160217905550808273ffffffffffffffffffffffffffffffffffffffff16614ef983611b47565b73ffffffffffffffffffffffffffffffffffffffff167f8c5be1e5ebec7d5bd14f71427d1e84f3dd0314c0f7b2291e5b200ac8c7c3b92560405160405180910390a45050565b600080614f4b83611b47565b90508073ffffffffffffffffffffffffffffffffffffffff168473ffffffffffffffffffffffffffffffffffffffff161480614f8d5750614f8c81856149ca565b5b80614fcb57508373ffffffffffffffffffffffffffffffffffffffff16614fb384610d5e565b73ffffffffffffffffffffffffffffffffffffffff16145b91505092915050565b8273ffffffffffffffffffffffffffffffffffffffff16614ff482611b47565b73ffffffffffffffffffffffffffffffffffffffff161461504a576040517f08c379a00000000000000000000000000000000000000000000000000000000081526004016150419061956b565b60405180910390fd5b600073ffffffffffffffffffffffffffffffffffffffff168273ffffffffffffffffffffffffffffffffffffffff16036150b9576040517f08c379a00000000000000000000000000000000000000000000000000000000081526004016150b0906195fd565b60405180910390fd5b6150c6838383600161600c565b8273ffffffffffffffffffffffffffffffffffffffff166150e682611b47565b73ffffffffffffffffffffffffffffffffffffffff161461513c576040517f08c379a00000000000000000000000000000000000000000000000000000000081526004016151339061956b565b60405180910390fd5b6004600082815260200190815260200160002060006101000a81549073ffffffffffffffffffffffffffffffffffffffff02191690556001600360008573ffffffffffffffffffffffffffffffffffffffff1673ffffffffffffffffffffffffffffffffffffffff168152602001908152602001600020600082825403925050819055506001600360008473ffffffffffffffffffffffffffffffffffffffff1673ffffffffffffffffffffffffffffffffffffffff16815260200190815260200160002060008282540192505081905550816002600083815260200190815260200160002060006101000a81548173ffffffffffffffffffffffffffffffffffffffff021916908373ffffffffffffffffffffffffffffffffffffffff160217905550808273ffffffffffffffffffffffffffffffffffffffff168473ffffffffffffffffffffffffffffffffffffffff167fddf252ad1be2c89b69c2b068fc378daa952ba7f163c4a11628f55a4df523b3ef60405160405180910390a46152c8838383600161616a565b505050565b6000612710905090565b60006002600083815260200190815260200160002060009054906101000a900473ffffffffffffffffffffffffffffffffffffffff169050919050565b60606000600283600261532791906181ec565b6153319190618362565b67ffffffffffffffff81111561534a576153496171f7565b5b6040519080825280601f01601f19166020018201604052801561537c5781602001600182028036833780820191505090505b5090507f3000000000000000000000000000000000000000000000000000000000000000816000815181106153b4576153b36184c8565b5b60200101907effffffffffffffffffffffffffffffffffffffffffffffffffffffffffffff1916908160001a9053507f780000000000000000000000000000000000000000000000000000000000000081600181518110615418576154176184c8565b5b60200101907effffffffffffffffffffffffffffffffffffffffffffffffffffffffffffff1916908160001a9053506000600184600261545891906181ec565b6154629190618362565b90505b6001811115615502577f3031323334353637383961626364656600000000000000000000000000000000600f8616601081106154a4576154a36184c8565b5b1a60f81b8282815181106154bb576154ba6184c8565b5b60200101907effffffffffffffffffffffffffffffffffffffffffffffffffffffffffffff1916908160001a905350600485901c9450806154fb9061961d565b9050615465565b5060008414615546576040517f08c379a000000000000000000000000000000000000000000000000000000000815260040161553d90619692565b60405180910390fd5b8091505092915050565b60606000600161555f84616170565b01905060008167ffffffffffffffff81111561557e5761557d6171f7565b5b6040519080825280601f01601f1916602001820160405280156155b05781602001600182028036833780820191505090505b509050600082602001820190505b600115615613578080600190039150507f3031323334353637383961626364656600000000000000000000000000000000600a86061a8153600a85816156075761560661822e565b5b049450600085036155be575b819350505050919050565b60608060005b601f60009054906101000a900473ffffffffffffffffffffffffffffffffffffffff1673ffffffffffffffffffffffffffffffffffffffff16635668bc5e600e600060126000898152602001908152602001600020548152602001908152602001600020600701546040518263ffffffff1660e01b81526004016156a89190617171565b602060405180830381865afa1580156156c5573d6000803e3d6000fd5b505050506040513d601f19601f820116820180604052508101906156e99190618335565b8110156157f25781601f60009054906101000a900473ffffffffffffffffffffffffffffffffffffffff1673ffffffffffffffffffffffffffffffffffffffff1663518cb3df600e6000601260008a815260200190815260200160002054815260200190815260200160002060070154846040518363ffffffff1660e01b81526004016157779291906196b2565b600060405180830381865afa158015615794573d6000803e3d6000fd5b505050506040513d6000823e3d601f19601f820116820180604052508101906157bd919061974b565b6040516020016157ce929190618ee7565b604051602081830303815290604052915080806157ea90618930565b915050615624565b50806040516020016158049190619794565b604051602081830303815290604052915050919050565b615823614e7e565b73ffffffffffffffffffffffffffffffffffffffff16615841612d45565b73ffffffffffffffffffffffffffffffffffffffff1614615897576040517f08c379a000000000000000000000000000000000000000000000000000000000815260040161588e906197f7565b60405180910390fd5b565b6000600c60009054906101000a900473ffffffffffffffffffffffffffffffffffffffff16905081600c60006101000a81548173ffffffffffffffffffffffffffffffffffffffff021916908373ffffffffffffffffffffffffffffffffffffffff1602179055508173ffffffffffffffffffffffffffffffffffffffff168173ffffffffffffffffffffffffffffffffffffffff167f8be0079c531659141344cd1fd0a4f28419497f9722a3daafe3b4186f6b6457e060405160405180910390a35050565b8173ffffffffffffffffffffffffffffffffffffffff168373ffffffffffffffffffffffffffffffffffffffff16036159cd576040517f08c379a00000000000000000000000000000000000000000000000000000000081526004016159c490619863565b60405180910390fd5b80600560008573ffffffffffffffffffffffffffffffffffffffff1673ffffffffffffffffffffffffffffffffffffffff16815260200190815260200160002060008473ffffffffffffffffffffffffffffffffffffffff1673ffffffffffffffffffffffffffffffffffffffff16815260200190815260200160002060006101000a81548160ff0219169083151502179055508173ffffffffffffffffffffffffffffffffffffffff168373ffffffffffffffffffffffffffffffffffffffff167f17307eab39ab6107e8899845ad3d59bd9653f200f220920489ca2b5937696c3183604051615abe9190616ce9565b60405180910390a3505050565b6000615ad682611b47565b9050615ae681600084600161600c565b615aef82611b47565b90506004600083815260200190815260200160002060006101000a81549073ffffffffffffffffffffffffffffffffffffffff02191690556001600360008373ffffffffffffffffffffffffffffffffffffffff1673ffffffffffffffffffffffffffffffffffffffff168152602001908152602001600020600082825403925050819055506002600083815260200190815260200160002060006101000a81549073ffffffffffffffffffffffffffffffffffffffff021916905581600073ffffffffffffffffffffffffffffffffffffffff168273ffffffffffffffffffffffffffffffffffffffff167fddf252ad1be2c89b69c2b068fc378daa952ba7f163c4a11628f55a4df523b3ef60405160405180910390a4615c1581600084600161616a565b5050565b615c24848484614fd4565b615c30848484846162c3565b615c6f576040517f08c379a0000000000000000000000000000000000000000000000000000000008152600401615c66906198f5565b60405180910390fd5b50505050565b60606000825103615c9757604051806020016040528060008152509050615dd3565b6000604051806060016040528060408152602001619c446040913990506000600360028551615cc69190618362565b615cd0919061825d565b6004615cdc91906181ec565b67ffffffffffffffff811115615cf557615cf46171f7565b5b6040519080825280601f01601f191660200182016040528015615d275781602001600182028036833780820191505090505b509050600182016020820185865187015b80821015615d93576003820191508151603f8160121c168501518453600184019350603f81600c1c168501518453600184019350603f8160061c168501518453600184019350603f8116850151845360018401935050615d38565b5050600386510660018114615daf5760028114615dc257615dca565b603d6001830353603d6002830353615dca565b603d60018303535b50505080925050505b919050565b60606000600f6000601260008681526020019081526020016000205481526020019081526020016000206004015483615e119190618402565b9050600e6000615e2085614d9c565b8152602001908152602001600020600001615e3a82615550565b604051602001615e4b929190619961565b604051602081830303815290604052915050919050565b82601a60008781526020019081526020016000209081615e82919061877b565b50816012600087815260200190815260200160002081905550615ea5848661644a565b600f600083815260200190815260200160002060080160009054906101000a900473ffffffffffffffffffffffffffffffffffffffff1673ffffffffffffffffffffffffffffffffffffffff1663bf1b89d38387846040518463ffffffff1660e01b8152600401615f1893929190619990565b600060405180830381600087803b158015615f3257600080fd5b505af1158015615f46573d6000803e3d6000fd5b505050505050505050565b60007f780e9d63000000000000000000000000000000000000000000000000000000007bffffffffffffffffffffffffffffffffffffffffffffffffffffffff1916827bffffffffffffffffffffffffffffffffffffffffffffffffffffffff19161480615fc45750615fc382616468565b5b9050919050565b60008073ffffffffffffffffffffffffffffffffffffffff16615fed836152d7565b73ffffffffffffffffffffffffffffffffffffffff1614159050919050565b6160188484848461654a565b600181111561605c576040517f08c379a000000000000000000000000000000000000000000000000000000000815260040161605390619a39565b60405180910390fd5b6000829050600073ffffffffffffffffffffffffffffffffffffffff168573ffffffffffffffffffffffffffffffffffffffff16036160a35761609e81616550565b6160e2565b8373ffffffffffffffffffffffffffffffffffffffff168573ffffffffffffffffffffffffffffffffffffffff16146160e1576160e08582616599565b5b5b600073ffffffffffffffffffffffffffffffffffffffff168473ffffffffffffffffffffffffffffffffffffffff16036161245761611f81616706565b616163565b8473ffffffffffffffffffffffffffffffffffffffff168473ffffffffffffffffffffffffffffffffffffffff16146161625761616184826167d7565b5b5b5050505050565b50505050565b600080600090507a184f03e93ff9f4daa797ed6e38ed64bf6a1f01000000000000000083106161ce577a184f03e93ff9f4daa797ed6e38ed64bf6a1f01000000000000000083816161c4576161c361822e565b5b0492506040810190505b6d04ee2d6d415b85acef8100000000831061620b576d04ee2d6d415b85acef810000000083816162015761620061822e565b5b0492506020810190505b662386f26fc10000831061623a57662386f26fc1000083816162305761622f61822e565b5b0492506010810190505b6305f5e1008310616263576305f5e10083816162595761625861822e565b5b0492506008810190505b612710831061628857612710838161627e5761627d61822e565b5b0492506004810190505b606483106162ab57606483816162a1576162a061822e565b5b0492506002810190505b600a83106162ba576001810190505b80915050919050565b60006162e48473ffffffffffffffffffffffffffffffffffffffff16616856565b1561643d578373ffffffffffffffffffffffffffffffffffffffff1663150b7a0261630d614e7e565b8786866040518563ffffffff1660e01b815260040161632f9493929190619aae565b6020604051808303816000875af192505050801561636b57506040513d601f19601f820116820180604052508101906163689190619b0f565b60015b6163ed573d806000811461639b576040519150601f19603f3d011682016040523d82523d6000602084013e6163a0565b606091505b5060008151036163e5576040517f08c379a00000000000000000000000000000000000000000000000000000000081526004016163dc906198f5565b60405180910390fd5b805181602001fd5b63150b7a0260e01b7bffffffffffffffffffffffffffffffffffffffffffffffffffffffff1916817bffffffffffffffffffffffffffffffffffffffffffffffffffffffff191614915050616442565b600190505b949350505050565b616464828260405180602001604052806000815250616879565b5050565b60007f80ac58cd000000000000000000000000000000000000000000000000000000007bffffffffffffffffffffffffffffffffffffffffffffffffffffffff1916827bffffffffffffffffffffffffffffffffffffffffffffffffffffffff1916148061653357507f5b5e139f000000000000000000000000000000000000000000000000000000007bffffffffffffffffffffffffffffffffffffffffffffffffffffffff1916827bffffffffffffffffffffffffffffffffffffffffffffffffffffffff1916145b806165435750616542826168d4565b5b9050919050565b50505050565b6008805490506009600083815260200190815260200160002081905550600881908060018154018082558091505060019003906000526020600020016000909190919091505550565b600060016165a684611e62565b6165b09190618402565b9050600060076000848152602001908152602001600020549050818114616695576000600660008673ffffffffffffffffffffffffffffffffffffffff1673ffffffffffffffffffffffffffffffffffffffff168152602001908152602001600020600084815260200190815260200160002054905080600660008773ffffffffffffffffffffffffffffffffffffffff1673ffffffffffffffffffffffffffffffffffffffff168152602001908152602001600020600084815260200190815260200160002081905550816007600083815260200190815260200160002081905550505b6007600084815260200190815260200160002060009055600660008573ffffffffffffffffffffffffffffffffffffffff1673ffffffffffffffffffffffffffffffffffffffff16815260200190815260200160002060008381526020019081526020016000206000905550505050565b6000600160088054905061671a9190618402565b905060006009600084815260200190815260200160002054905060006008838154811061674a576167496184c8565b5b90600052602060002001549050806008838154811061676c5761676b6184c8565b5b9060005260206000200181905550816009600083815260200190815260200160002081905550600960008581526020019081526020016000206000905560088054806167bb576167ba619b3c565b5b6001900381819060005260206000200160009055905550505050565b60006167e283611e62565b905081600660008573ffffffffffffffffffffffffffffffffffffffff1673ffffffffffffffffffffffffffffffffffffffff168152602001908152602001600020600083815260200190815260200160002081905550806007600084815260200190815260200160002081905550505050565b6000808273ffffffffffffffffffffffffffffffffffffffff163b119050919050565b616883838361693e565b61689060008484846162c3565b6168cf576040517f08c379a00000000000000000000000000000000000000000000000000000000081526004016168c6906198f5565b60405180910390fd5b505050565b60007f01ffc9a7000000000000000000000000000000000000000000000000000000007bffffffffffffffffffffffffffffffffffffffffffffffffffffffff1916827bffffffffffffffffffffffffffffffffffffffffffffffffffffffff1916149050919050565b600073ffffffffffffffffffffffffffffffffffffffff168273ffffffffffffffffffffffffffffffffffffffff16036169ad576040517f08c379a00000000000000000000000000000000000000000000000000000000081526004016169a490619bb7565b60405180910390fd5b6169b681615fcb565b156169f6576040517f08c379a00000000000000000000000000000000000000000000000000000000081526004016169ed90619c23565b60405180910390fd5b616a0460008383600161600c565b616a0d81615fcb565b15616a4d576040517f08c379a0000000000000000000000000000000000000000000000000000000008152600401616a4490619c23565b60405180910390fd5b6001600360008473ffffffffffffffffffffffffffffffffffffffff1673ffffffffffffffffffffffffffffffffffffffff16815260200190815260200160002060008282540192505081905550816002600083815260200190815260200160002060006101000a81548173ffffffffffffffffffffffffffffffffffffffff021916908373ffffffffffffffffffffffffffffffffffffffff160217905550808273ffffffffffffffffffffffffffffffffffffffff16600073ffffffffffffffffffffffffffffffffffffffff167fddf252ad1be2c89b69c2b068fc378daa952ba7f163c4a11628f55a4df523b3ef60405160405180910390a4616b5760008383600161616a565b5050565b828054828255906000526020600020908101928215616ba3579160200282015b82811115616ba2578251829081616b92919061877b565b5091602001919060010190616b7b565b5b509050616bb09190616bb4565b5090565b5b80821115616bd45760008181616bcb9190616bd8565b50600101616bb5565b5090565b508054616be490617e84565b6000825580601f10616bf65750616c15565b601f016020900490600052602060002090810190616c149190616c18565b5b50565b5b80821115616c31576000816000905550600101616c19565b5090565b6000604051905090565b600080fd5b600080fd5b60007fffffffff0000000000000000000000000000000000000000000000000000000082169050919050565b616c7e81616c49565b8114616c8957600080fd5b50565b600081359050616c9b81616c75565b92915050565b600060208284031215616cb757616cb6616c3f565b5b6000616cc584828501616c8c565b91505092915050565b60008115159050919050565b616ce381616cce565b82525050565b6000602082019050616cfe6000830184616cda565b92915050565b600081519050919050565b600082825260208201905092915050565b60005b83811015616d3e578082015181840152602081019050616d23565b60008484015250505050565b6000601f19601f8301169050919050565b6000616d6682616d04565b616d708185616d0f565b9350616d80818560208601616d20565b616d8981616d4a565b840191505092915050565b60006020820190508181036000830152616dae8184616d5b565b905092915050565b6000819050919050565b616dc981616db6565b8114616dd457600080fd5b50565b600081359050616de681616dc0565b92915050565b600060208284031215616e0257616e01616c3f565b5b6000616e1084828501616dd7565b91505092915050565b600073ffffffffffffffffffffffffffffffffffffffff82169050919050565b6000616e4482616e19565b9050919050565b616e5481616e39565b82525050565b6000602082019050616e6f6000830184616e4b565b92915050565b616e7e81616e39565b8114616e8957600080fd5b50565b600081359050616e9b81616e75565b92915050565b60008060408385031215616eb857616eb7616c3f565b5b6000616ec685828601616e8c565b9250506020616ed785828601616dd7565b9150509250929050565b616eea81616db6565b82525050565b6000602082019050616f056000830184616ee1565b92915050565b60008060408385031215616f2257616f21616c3f565b5b6000616f3085828601616dd7565b9250506020616f4185828601616e8c565b9150509250929050565b600080600060608486031215616f6457616f63616c3f565b5b6000616f7286828701616e8c565b9350506020616f8386828701616e8c565b9250506040616f9486828701616dd7565b9150509250925092565b60008060408385031215616fb557616fb4616c3f565b5b6000616fc385828601616dd7565b9250506020616fd485828601616dd7565b9150509250929050565b6000604082019050616ff36000830185616e4b565b6170006020830184616ee1565b9392505050565b6000819050919050565b61701a81617007565b82525050565b600081519050919050565b600082825260208201905092915050565b6000819050602082019050919050565b600082825260208201905092915050565b600061706882616d04565b617072818561704c565b9350617082818560208601616d20565b61708b81616d4a565b840191505092915050565b60006170a2838361705d565b905092915050565b6000602082019050919050565b60006170c282617020565b6170cc818561702b565b9350836020820285016170de8561703c565b8060005b8581101561711a57848403895281516170fb8582617096565b9450617106836170aa565b925060208a019950506001810190506170e2565b50829750879550505050505092915050565b600060608201905081810360008301526171468186616d5b565b90506171556020830185617011565b818103604083015261716781846170b7565b9050949350505050565b60006020820190506171866000830184617011565b92915050565b600060c0820190506171a16000830189616e4b565b6171ae6020830188616ee1565b6171bb6040830187616ee1565b6171c86060830186616ee1565b6171d56080830185616ee1565b6171e260a0830184616e4b565b979650505050505050565b600080fd5b600080fd5b7f4e487b7100000000000000000000000000000000000000000000000000000000600052604160045260246000fd5b61722f82616d4a565b810181811067ffffffffffffffff8211171561724e5761724d6171f7565b5b80604052505050565b6000617261616c35565b905061726d8282617226565b919050565b600067ffffffffffffffff82111561728d5761728c6171f7565b5b61729682616d4a565b9050602081019050919050565b82818337600083830152505050565b60006172c56172c084617272565b617257565b9050828152602081018484840111156172e1576172e06171f2565b5b6172ec8482856172a3565b509392505050565b600082601f830112617309576173086171ed565b5b81356173198482602086016172b2565b91505092915050565b6000806040838503121561733957617338616c3f565b5b600061734785828601616dd7565b925050602083013567ffffffffffffffff81111561736857617367616c44565b5b617374858286016172f4565b9150509250929050565b60006020828403121561739457617393616c3f565b5b60006173a284828501616e8c565b91505092915050565b6173b481617007565b81146173bf57600080fd5b50565b6000813590506173d1816173ab565b92915050565b600067ffffffffffffffff8211156173f2576173f16171f7565b5b602082029050602081019050919050565b600080fd5b600061741b617416846173d7565b617257565b9050808382526020820190506020840283018581111561743e5761743d617403565b5b835b8181101561748557803567ffffffffffffffff811115617463576174626171ed565b5b80860161747089826172f4565b85526020850194505050602081019050617440565b5050509392505050565b600082601f8301126174a4576174a36171ed565b5b81356174b4848260208601617408565b91505092915050565b60008060008060008060008060008060006101608c8e0312156174e3576174e2616c3f565b5b60006174f18e828f01616dd7565b9b505060208c013567ffffffffffffffff81111561751257617511616c44565b5b61751e8e828f016172f4565b9a505060408c013567ffffffffffffffff81111561753f5761753e616c44565b5b61754b8e828f016172f4565b99505060608c013567ffffffffffffffff81111561756c5761756b616c44565b5b6175788e828f016172f4565b98505060808c013567ffffffffffffffff81111561759957617598616c44565b5b6175a58e828f016172f4565b97505060a08c013567ffffffffffffffff8111156175c6576175c5616c44565b5b6175d28e828f016172f4565b96505060c08c013567ffffffffffffffff8111156175f3576175f2616c44565b5b6175ff8e828f016172f4565b95505060e08c013567ffffffffffffffff8111156176205761761f616c44565b5b61762c8e828f016172f4565b94505061010061763e8e828f016173c2565b9350506101206176508e828f01616dd7565b9250506101408c013567ffffffffffffffff81111561767257617671616c44565b5b61767e8e828f0161748f565b9150509295989b509295989b9093969950565b600080600080600060a086880312156176ad576176ac616c3f565b5b60006176bb88828901616dd7565b95505060206176cc88828901616e8c565b94505060406176dd88828901616dd7565b93505060606176ee88828901616dd7565b92505060806176ff88828901616dd7565b9150509295509295909350565b600060408201905081810360008301526177268185616d5b565b9050818103602083015261773a8184616d5b565b90509392505050565b600060ff82169050919050565b61775981617743565b811461776457600080fd5b50565b60008135905061777681617750565b92915050565b6000806040838503121561779357617792616c3f565b5b60006177a185828601617767565b92505060206177b285828601616e8c565b9150509250929050565b6000806000606084860312156177d5576177d4616c3f565b5b60006177e386828701616dd7565b93505060206177f486828701616dd7565b9250506040617805868287016173c2565b9150509250925092565b61781881616cce565b811461782357600080fd5b50565b6000813590506178358161780f565b92915050565b6000806040838503121561785257617851616c3f565b5b600061786085828601616e8c565b925050602061787185828601617826565b9150509250929050565b600067ffffffffffffffff821115617896576178956171f7565b5b602082029050602081019050919050565b60006178ba6178b58461787b565b617257565b905080838252602082019050602084028301858111156178dd576178dc617403565b5b835b8181101561790657806178f28882616dd7565b8452602084019350506020810190506178df565b5050509392505050565b600082601f830112617925576179246171ed565b5b81356179358482602086016178a7565b91505092915050565b60008060006060848603121561795757617956616c3f565b5b600084013567ffffffffffffffff81111561797557617974616c44565b5b61798186828701617910565b935050602084013567ffffffffffffffff8111156179a2576179a1616c44565b5b6179ae8682870161748f565b925050604084013567ffffffffffffffff8111156179cf576179ce616c44565b5b6179db8682870161748f565b9150509250925092565b600067ffffffffffffffff821115617a00576179ff6171f7565b5b617a0982616d4a565b9050602081019050919050565b6000617a29617a24846179e5565b617257565b905082815260208101848484011115617a4557617a446171f2565b5b617a508482856172a3565b509392505050565b600082601f830112617a6d57617a6c6171ed565b5b8135617a7d848260208601617a16565b91505092915050565b60008060008060808587031215617aa057617a9f616c3f565b5b6000617aae87828801616e8c565b9450506020617abf87828801616e8c565b9350506040617ad087828801616dd7565b925050606085013567ffffffffffffffff811115617af157617af0616c44565b5b617afd87828801617a58565b91505092959194509250565b600060c0820190508181036000830152617b238189616d5b565b90508181036020830152617b378188616d5b565b90508181036040830152617b4b8187616d5b565b90508181036060830152617b5f8186616d5b565b90508181036080830152617b738185616d5b565b905081810360a0830152617b878184616d5b565b9050979650505050505050565b600080600080600060a08688031215617bb057617baf616c3f565b5b6000617bbe88828901616dd7565b9550506020617bcf88828901616e8c565b945050604086013567ffffffffffffffff811115617bf057617bef616c44565b5b617bfc888289016172f4565b9350506060617c0d88828901616dd7565b9250506080617c1e88828901616dd7565b9150509295509295909350565b60008060008060008060008060006101208a8c031215617c4e57617c4d616c3f565b5b60008a013567ffffffffffffffff811115617c6c57617c6b616c44565b5b617c788c828d016172f4565b99505060208a013567ffffffffffffffff811115617c9957617c98616c44565b5b617ca58c828d016172f4565b98505060408a013567ffffffffffffffff811115617cc657617cc5616c44565b5b617cd28c828d016172f4565b97505060608a013567ffffffffffffffff811115617cf357617cf2616c44565b5b617cff8c828d016172f4565b96505060808a013567ffffffffffffffff811115617d2057617d1f616c44565b5b617d2c8c828d016172f4565b95505060a08a013567ffffffffffffffff811115617d4d57617d4c616c44565b5b617d598c828d016172f4565b94505060c08a013567ffffffffffffffff811115617d7a57617d79616c44565b5b617d868c828d016172f4565b93505060e0617d978c828d016173c2565b9250506101008a013567ffffffffffffffff811115617db957617db8616c44565b5b617dc58c828d0161748f565b9150509295985092959850929598565b60008060408385031215617dec57617deb616c3f565b5b6000617dfa85828601616e8c565b9250506020617e0b85828601616e8c565b9150509250929050565b60008060408385031215617e2c57617e2b616c3f565b5b6000617e3a85828601616dd7565b9250506020617e4b85828601617826565b9150509250929050565b7f4e487b7100000000000000000000000000000000000000000000000000000000600052602260045260246000fd5b60006002820490506001821680617e9c57607f821691505b602082108103617eaf57617eae617e55565b5b50919050565b7f4552433732313a20617070726f76616c20746f2063757272656e74206f776e6560008201527f7200000000000000000000000000000000000000000000000000000000000000602082015250565b6000617f11602183616d0f565b9150617f1c82617eb5565b604082019050919050565b60006020820190508181036000830152617f4081617f04565b9050919050565b7f4552433732313a20617070726f76652063616c6c6572206973206e6f7420746f60008201527f6b656e206f776e6572206f7220617070726f76656420666f7220616c6c000000602082015250565b6000617fa3603d83616d0f565b9150617fae82617f47565b604082019050919050565b60006020820190508181036000830152617fd281617f96565b9050919050565b617fe281616c49565b82525050565b6000604082019050617ffd6000830185616e4b565b61800a6020830184617fd9565b9392505050565b6000815190506180208161780f565b92915050565b60006020828403121561803c5761803b616c3f565b5b600061804a84828501618011565b91505092915050565b7f4e6f7420616c6c6f776564000000000000000000000000000000000000000000600082015250565b6000618089600b83616d0f565b915061809482618053565b602082019050919050565b600060208201905081810360008301526180b88161807c565b9050919050565b7f436f6e7472616374206973206e6f742052616e646f6d697a6572000000000000600082015250565b60006180f5601a83616d0f565b9150618100826180bf565b602082019050919050565b60006020820190508181036000830152618124816180e8565b9050919050565b7f4552433732313a2063616c6c6572206973206e6f7420746f6b656e206f776e6560008201527f72206f7220617070726f76656400000000000000000000000000000000000000602082015250565b6000618187602d83616d0f565b91506181928261812b565b604082019050919050565b600060208201905081810360008301526181b68161817a565b9050919050565b7f4e487b7100000000000000000000000000000000000000000000000000000000600052601160045260246000fd5b60006181f782616db6565b915061820283616db6565b925082820261821081616db6565b91508282048414831517618227576182266181bd565b5b5092915050565b7f4e487b7100000000000000000000000000000000000000000000000000000000600052601260045260246000fd5b600061826882616db6565b915061827383616db6565b9250826182835761828261822e565b5b828204905092915050565b7f455243373231456e756d657261626c653a206f776e657220696e646578206f7560008201527f74206f6620626f756e6473000000000000000000000000000000000000000000602082015250565b60006182ea602b83616d0f565b91506182f58261828e565b604082019050919050565b60006020820190508181036000830152618319816182dd565b9050919050565b60008151905061832f81616dc0565b92915050565b60006020828403121561834b5761834a616c3f565b5b600061835984828501618320565b91505092915050565b600061836d82616db6565b915061837883616db6565b92508282019050808211156183905761838f6181bd565b5b92915050565b7f54696d6520686173206e6f742070617373656400000000000000000000000000600082015250565b60006183cc601383616d0f565b91506183d782618396565b602082019050919050565b600060208201905081810360008301526183fb816183bf565b9050919050565b600061840d82616db6565b915061841883616db6565b92508282039050818111156184305761842f6181bd565b5b92915050565b7f455243373231456e756d657261626c653a20676c6f62616c20696e646578206f60008201527f7574206f6620626f756e64730000000000000000000000000000000000000000602082015250565b6000618492602c83616d0f565b915061849d82618436565b604082019050919050565b600060208201905081810360008301526184c181618485565b9050919050565b7f4e487b7100000000000000000000000000000000000000000000000000000000600052603260045260246000fd5b7f4552433732313a20696e76616c696420746f6b656e2049440000000000000000600082015250565b600061852d601883616d0f565b9150618538826184f7565b602082019050919050565b6000602082019050818103600083015261855c81618520565b9050919050565b7f4e6f74206172746973742f5369676e6564000000000000000000000000000000600082015250565b6000618599601183616d0f565b91506185a482618563565b602082019050919050565b600060208201905081810360008301526185c88161858c565b9050919050565b60008190508160005260206000209050919050565b60006020601f8301049050919050565b600082821b905092915050565b6000600883026186317fffffffffffffffffffffffffffffffffffffffffffffffffffffffffffffffff826185f4565b61863b86836185f4565b95508019841693508086168417925050509392505050565b6000819050919050565b600061867861867361866e84616db6565b618653565b616db6565b9050919050565b6000819050919050565b6186928361865d565b6186a661869e8261867f565b848454618601565b825550505050565b600090565b6186bb6186ae565b6186c6818484618689565b505050565b5b818110156186ea576186df6000826186b3565b6001810190506186cc565b5050565b601f82111561872f57618700816185cf565b618709846185e4565b81016020851015618718578190505b61872c618724856185e4565b8301826186cb565b50505b505050565b600082821c905092915050565b600061875260001984600802618734565b1980831691505092915050565b600061876b8383618741565b9150826002028217905092915050565b61878482616d04565b67ffffffffffffffff81111561879d5761879c6171f7565b5b6187a78254617e84565b6187b28282856186ee565b600060209050601f8311600181146187e557600084156187d3578287015190505b6187dd858261875f565b865550618845565b601f1984166187f3866185cf565b60005b8281101561881b578489015182556001820191506020850194506020810190506187f6565b868310156188385784890151618834601f891682618741565b8355505b6001600288020188555050505b505050505050565b600081905092915050565b600061886382616d04565b61886d818561884d565b935061887d818560208601616d20565b80840191505092915050565b6000815461889681617e84565b6188a0818661884d565b945060018216600081146188bb57600181146188d057618903565b60ff1983168652811515820286019350618903565b6188d9856185cf565b60005b838110156188fb578154818901526001820191506020810190506188dc565b838801955050505b50505092915050565b60006189188285618858565b91506189248284618889565b91508190509392505050565b600061893b82616db6565b91507fffffffffffffffffffffffffffffffffffffffffffffffffffffffffffffffff820361896d5761896c6181bd565b5b600182019050919050565b7f6c657420686173683d2700000000000000000000000000000000000000000000600082015250565b60006189ae600a8361884d565b91506189b982618978565b600a82019050919050565b7f273b6c657420746f6b656e49643d000000000000000000000000000000000000600082015250565b60006189fa600e8361884d565b9150618a05826189c4565b600e82019050919050565b7f3b6c657420746f6b656e446174613d5b00000000000000000000000000000000600082015250565b6000618a4660108361884d565b9150618a5182618a10565b601082019050919050565b7f5d00000000000000000000000000000000000000000000000000000000000000600082015250565b6000618a9260018361884d565b9150618a9d82618a5c565b600182019050919050565b7f3b6c657420646570656e64656e63795363726970743d27000000000000000000600082015250565b6000618ade60178361884d565b9150618ae982618aa8565b601782019050919050565b7f273b000000000000000000000000000000000000000000000000000000000000600082015250565b6000618b2a60028361884d565b9150618b3582618af4565b600282019050919050565b6000618b4b826189a1565b9150618b578288618858565b9150618b62826189ed565b9150618b6e8287618858565b9150618b7982618a39565b9150618b858286618889565b9150618b9082618a85565b9150618b9b82618ad1565b9150618ba78285618858565b9150618bb282618b1d565b9150618bbe8284618858565b91508190509695505050505050565b7f4552433732313a2061646472657373207a65726f206973206e6f74206120766160008201527f6c6964206f776e65720000000000000000000000000000000000000000000000602082015250565b6000618c29602983616d0f565b9150618c3482618bcd565b604082019050919050565b60006020820190508181036000830152618c5881618c1c565b9050919050565b7f6572722f667265657a6564000000000000000000000000000000000000000000600082015250565b6000618c95600b83616d0f565b9150618ca082618c5f565b602082019050919050565b60006020820190508181036000830152618cc481618c88565b9050919050565b7f4e6f742041646d696e0000000000000000000000000000000000000000000000600082015250565b6000618d01600983616d0f565b9150618d0c82618ccb565b602082019050919050565b60006020820190508181036000830152618d3081618cf4565b9050919050565b7f4e6f74204d696e74657200000000000000000000000000000000000000000000600082015250565b6000618d6d600a83616d0f565b9150618d7882618d37565b602082019050919050565b60006020820190508181036000830152618d9c81618d60565b9050919050565b7f446174612066726f7a656e000000000000000000000000000000000000000000600082015250565b6000618dd9600b83616d0f565b9150618de482618da3565b602082019050919050565b60006020820190508181036000830152618e0881618dcc565b9050919050565b7f696e76206c656e00000000000000000000000000000000000000000000000000600082015250565b6000618e45600783616d0f565b9150618e5082618e0f565b602082019050919050565b60006020820190508181036000830152618e7481618e38565b9050919050565b7f6964206572720000000000000000000000000000000000000000000000000000600082015250565b6000618eb1600683616d0f565b9150618ebc82618e7b565b602082019050919050565b60006020820190508181036000830152618ee081618ea4565b9050919050565b6000618ef38285618858565b9150618eff8284618858565b91508190509392505050565b7f70656e64696e6700000000000000000000000000000000000000000000000000600082015250565b6000618f4160078361884d565b9150618f4c82618f0b565b600782019050919050565b6000618f638284618858565b9150618f6e82618f34565b915081905092915050565b7f3c68746d6c3e3c686561643e3c2f686561643e3c626f64793e3c73637269707460008201527f207372633d220000000000000000000000000000000000000000000000000000602082015250565b6000618fd560268361884d565b9150618fe082618f79565b602682019050919050565b7f223e3c2f7363726970743e3c7363726970743e00000000000000000000000000600082015250565b600061902160138361884d565b915061902c82618feb565b601382019050919050565b7f3c2f7363726970743e3c2f626f64793e3c2f68746d6c3e000000000000000000600082015250565b600061906d60178361884d565b915061907882619037565b601782019050919050565b600061908e82618fc8565b915061909a8285618889565b91506190a582619014565b91506190b18284618858565b91506190bc82619060565b91508190509392505050565b7f646174613a6170706c69636174696f6e2f6a736f6e3b757466382c7b226e616d60008201527f65223a2200000000000000000000000000000000000000000000000000000000602082015250565b600061912460248361884d565b915061912f826190c8565b602482019050919050565b7f222c226465736372697074696f6e223a22000000000000000000000000000000600082015250565b600061917060118361884d565b915061917b8261913a565b601182019050919050565b7f222c22696d616765223a22000000000000000000000000000000000000000000600082015250565b60006191bc600b8361884d565b91506191c782619186565b600b82019050919050565b7f222c2261747472696275746573223a5b00000000000000000000000000000000600082015250565b600061920860108361884d565b9150619213826191d2565b601082019050919050565b7f5d2c22616e696d6174696f6e5f75726c223a22646174613a746578742f68746d60008201527f6c3b6261736536342c0000000000000000000000000000000000000000000000602082015250565b600061927a60298361884d565b91506192858261921e565b602982019050919050565b7f227d000000000000000000000000000000000000000000000000000000000000600082015250565b60006192c660028361884d565b91506192d182619290565b600282019050919050565b60006192e782619117565b91506192f38288618858565b91506192fe82619163565b915061930a8287618889565b9150619315826191af565b91506193218286618889565b915061932c826191fb565b91506193388285618889565b91506193438261926d565b915061934f8284618858565b915061935a826192b9565b91508190509695505050505050565b7f43616c6c6572206973206e6f7420746865204d696e74657220436f6e7472616360008201527f7400000000000000000000000000000000000000000000000000000000000000602082015250565b60006193c5602183616d0f565b91506193d082619369565b604082019050919050565b600060208201905081810360008301526193f4816193b8565b9050919050565b7f537570706c792072656163686564000000000000000000000000000000000000600082015250565b6000619431600e83616d0f565b915061943c826193fb565b602082019050919050565b6000602082019050818103600083015261946081619424565b9050919050565b7f4f776e61626c653a206e6577206f776e657220697320746865207a65726f206160008201527f6464726573730000000000000000000000000000000000000000000000000000602082015250565b60006194c3602683616d0f565b91506194ce82619467565b604082019050919050565b600060208201905081810360008301526194f2816194b6565b9050919050565b7f4552433732313a207472616e736665722066726f6d20696e636f72726563742060008201527f6f776e6572000000000000000000000000000000000000000000000000000000602082015250565b6000619555602583616d0f565b9150619560826194f9565b604082019050919050565b6000602082019050818103600083015261958481619548565b9050919050565b7f4552433732313a207472616e7366657220746f20746865207a65726f2061646460008201527f7265737300000000000000000000000000000000000000000000000000000000602082015250565b60006195e7602483616d0f565b91506195f28261958b565b604082019050919050565b60006020820190508181036000830152619616816195da565b9050919050565b600061962882616db6565b91506000820361963b5761963a6181bd565b5b600182039050919050565b7f537472696e67733a20686578206c656e67746820696e73756666696369656e74600082015250565b600061967c602083616d0f565b915061968782619646565b602082019050919050565b600060208201905081810360008301526196ab8161966f565b9050919050565b60006040820190506196c76000830185617011565b6196d46020830184616ee1565b9392505050565b60006196ee6196e984617272565b617257565b90508281526020810184848401111561970a576197096171f2565b5b619715848285616d20565b509392505050565b600082601f830112619732576197316171ed565b5b81516197428482602086016196db565b91505092915050565b60006020828403121561976157619760616c3f565b5b600082015167ffffffffffffffff81111561977f5761977e616c44565b5b61978b8482850161971d565b91505092915050565b60006197a08284618858565b915081905092915050565b7f4f776e61626c653a2063616c6c6572206973206e6f7420746865206f776e6572600082015250565b60006197e1602083616d0f565b91506197ec826197ab565b602082019050919050565b60006020820190508181036000830152619810816197d4565b9050919050565b7f4552433732313a20617070726f766520746f2063616c6c657200000000000000600082015250565b600061984d601983616d0f565b915061985882619817565b602082019050919050565b6000602082019050818103600083015261987c81619840565b9050919050565b7f4552433732313a207472616e7366657220746f206e6f6e20455243373231526560008201527f63656976657220696d706c656d656e7465720000000000000000000000000000602082015250565b60006198df603283616d0f565b91506198ea82619883565b604082019050919050565b6000602082019050818103600083015261990e816198d2565b9050919050565b7f2023000000000000000000000000000000000000000000000000000000000000600082015250565b600061994b60028361884d565b915061995682619915565b600282019050919050565b600061996d8285618889565b91506199788261993e565b91506199848284618858565b91508190509392505050565b60006060820190506199a56000830186616ee1565b6199b26020830185616ee1565b6199bf6040830184616ee1565b949350505050565b7f455243373231456e756d657261626c653a20636f6e736563757469766520747260008201527f616e7366657273206e6f7420737570706f727465640000000000000000000000602082015250565b6000619a23603583616d0f565b9150619a2e826199c7565b604082019050919050565b60006020820190508181036000830152619a5281619a16565b9050919050565b600081519050919050565b600082825260208201905092915050565b6000619a8082619a59565b619a8a8185619a64565b9350619a9a818560208601616d20565b619aa381616d4a565b840191505092915050565b6000608082019050619ac36000830187616e4b565b619ad06020830186616e4b565b619add6040830185616ee1565b8181036060830152619aef8184619a75565b905095945050505050565b600081519050619b0981616c75565b92915050565b600060208284031215619b2557619b24616c3f565b5b6000619b3384828501619afa565b91505092915050565b7f4e487b7100000000000000000000000000000000000000000000000000000000600052603160045260246000fd5b7f4552433732313a206d696e7420746f20746865207a65726f2061646472657373600082015250565b6000619ba1602083616d0f565b9150619bac82619b6b565b602082019050919050565b60006020820190508181036000830152619bd081619b94565b9050919050565b7f4552433732313a20746f6b656e20616c7265616479206d696e74656400000000600082015250565b6000619c0d601c83616d0f565b9150619c1882619bd7565b602082019050919050565b60006020820190508181036000830152619c3c81619c00565b905091905056fe4142434445464748494a4b4c4d4e4f505152535455565758595a6162636465666768696a6b6c6d6e6f707172737475767778797a303132333435363738392b2fa26469706673582212206011c19d036cd40225d515f38e807dad817677621d43f9dd23ae6811cb066a3464736f6c63430008130033","linkReferences":{}},"methodIdentifiers":{"addRandomizer(uint256,address)":"1aab8d69","approve(address,uint256)":"095ea7b3","artistSignature(uint256,string)":"6799a46a","artistSigned(uint256)":"d3d54928","artistsSignatures(uint256)":"d9a03e38","balanceOf(address)":"70a08231","burn(uint256,uint256)":"b390c0ab","burnAmount(uint256)":"6fafdf83","changeMetadataView(uint256,bool)":"f6a85dd0","changeTokenData(uint256,string)":"9a8490f3","collectionFreezeStatus(uint256)":"2ed330f7","createCollection(string,string,string,string,string,string,string,bytes32,string[])":"e1fa8089","freezeCollection(uint256)":"bcc405d0","getApproved(uint256)":"081812fc","isApprovedForAll(address,address)":"e985e9c5","mint(uint256,address,string,uint256,uint256)":"dabb57ca","minterContract()":"92f00233","name()":"06fdde03","newCollectionIndex()":"663a3c00","onchainMetadata(uint256)":"074b5539","owner()":"8da5cb5b","ownerOf(uint256)":"6352211e","renounceOwnership()":"715018a6","retrieveArtistAddress(uint256)":"b9902968","retrieveCollectionAdditionalData(uint256)":"5c91d74a","retrieveCollectionInfo(uint256)":"d0950271","retrieveCollectionLibraryAndScript(uint256)":"3d2bed8d","retrieveGenerativeScript(uint256)":"6fa13531","retrieveTokenHash(uint256)":"4ab6897c","retrieveTokensAirdroppedPerAddress(uint256,address)":"94c14957","retrieveTokensMintedALPerAddress(uint256,address)":"cb6d67e0","retrieveTokensMintedPublicPerAddress(uint256,address)":"e943a2c7","retrievetokenImageAndAttributes(uint256)":"80f8c8ab","retrievewereDataAdded(uint256)":"d3741000","royaltyInfo(uint256,uint256)":"2a55205a","safeTransferFrom(address,address,uint256)":"42842e0e","safeTransferFrom(address,address,uint256,bytes)":"b88d4fde","setApprovalForAll(address,bool)":"a22cb465","setCollectionData(uint256,address,uint256,uint256,uint256)":"7b5dbac5","setFinalSupply(uint256)":"366b0ab2","setTokenHash(uint256,uint256,bytes32)":"9cac0f1f","supportsInterface(bytes4)":"01ffc9a7","symbol()":"95d89b41","tokenByIndex(uint256)":"4f6ccce7","tokenData(uint256)":"b4b5b48f","tokenOfOwnerByIndex(address,uint256)":"2f745c59","tokenURI(uint256)":"c87b56dd","totalSupply()":"18160ddd","totalSupplyOfCollection(uint256)":"f18332dd","transferFrom(address,address,uint256)":"23b872dd","transferOwnership(address)":"f2fde38b","updateCollectionInfo(uint256,string,string,string,string,string,string,string,bytes32,uint256,string[])":"73b40ae9","updateContracts(uint8,address)":"88c2dd08","updateImagesAndAttributes(uint256[],string[],string[])":"ad241020","viewCirSupply(uint256)":"af569fd4","viewColIDforTokenID(uint256)":"fa92668a","viewMaxAllowance(uint256)":"945e549b","viewTokensIndexMax(uint256)":"6c6aab16","viewTokensIndexMin(uint256)":"e9b7a860"},"id":4}