{"abi":[{"type":"constructor","inputs":[],"stateMutability":"nonpayable"},{"type":"function","name":"batchDelegations","inputs":[{"name":"_collectionAddresses","type":"address[]","internalType":"address[]"},{"name":"_delegationAddresses","type":"address[]","internalType":"address[]"},{"name":"_expiryDates","type":"uint256[]","internalType":"uint256[]"},{"name":"_useCases","type":"uint256[]","internalType":"uint256[]"},{"name":"_allTokens","type":"bool[]","internalType":"bool[]"},{"name":"_tokenIds","type":"uint256[]","internalType":"uint256[]"}],"outputs":[],"stateMutability":"nonpayable"},{"type":"function","name":"batchRevocations","inputs":[{"name":"_collectionAddresses","type":"address[]","internalType":"address[]"},{"name":"_delegationAddresses","type":"address[]","internalType":"address[]"},{"name":"_useCases","type":"uint256[]","internalType":"uint256[]"}],"outputs":[],"stateMutability":"nonpayable"},{"type":"function","name":"checkConsolidationStatus","inputs":[{"name":"_wallet1","type":"address","internalType":"address"},{"name":"_wallet2","type":"address","internalType":"address"},{"name":"_collectionAddress","type":"address","internalType":"address"}],"outputs":[{"name":"","type":"bool","internalType":"bool"}],"stateMutability":"view"},{"type":"function","name":"collectionLock","inputs":[{"name":"","type":"bytes32","internalType":"bytes32"}],"outputs":[{"name":"","type":"bool","internalType":"bool"}],"stateMutability":"view"},{"type":"function","name":"collectionUsecaseLock","inputs":[{"name":"","type":"bytes32","internalType":"bytes32"}],"outputs":[{"name":"","type":"bool","internalType":"bool"}],"stateMutability":"view"},{"type":"function","name":"delegationAddressHashes","inputs":[{"name":"","type":"bytes32","internalType":"bytes32"},{"name":"","type":"uint256","internalType":"uint256"}],"outputs":[{"name":"","type":"address","internalType":"address"}],"stateMutability":"view"},{"type":"function","name":"delegatorHashes","inputs":[{"name":"","type":"bytes32","internalType":"bytes32"},{"name":"","type":"uint256","internalType":"uint256"}],"outputs":[{"name":"","type":"address","internalType":"address"}],"stateMutability":"view"},{"type":"function","name":"globalDelegationHashes","inputs":[{"name":"","type":"bytes32","internalType":"bytes32"},{"name":"","type":"uint256","internalType":"uint256"}],"outputs":[{"name":"delegatorAddress","type":"address","internalType":"address"},{"name":"delegationAddress","type":"address","internalType":"address"},{"name":"registeredDate","type":"uint256","internalType":"uint256"},{"name":"expiryDate","type":"uint256","internalType":"uint256"},{"name":"allTokens","type":"bool","internalType":"bool"},{"name":"tokens","type":"uint256","internalType":"uint256"}],"stateMutability":"view"},{"type":"function","name":"globalLock","inputs":[{"name":"","type":"address","internalType":"address"}],"outputs":[{"name":"","type":"bool","internalType":"bool"}],"stateMutability":"view"},{"type":"function","name":"registerDelegationAddress","inputs":[{"name":"_collectionAddress","type":"address","internalType":"address"},{"name":"_delegationAddress","type":"address","internalType":"address"},{"name":"_expiryDate","type":"uint256","internalType":"uint256"},{"name":"_useCase","type":"uint256","internalType":"uint256"},{"name":"_allTokens","type":"bool","internalType":"bool"},{"name":"_tokenId","type":"uint256","internalType":"uint256"}],"outputs":[],"stateMutability":"nonpayable"},{"type":"function","name":"registerDelegationAddressUsingSubDelegation","inputs":[{"name":"_delegatorAddress","type":"address","internalType":"address"},{"name":"_collectionAddress","type":"address","internalType":"address"},{"name":"_delegationAddress","type":"address","internalType":"address"},{"name":"_expiryDate","type":"uint256","internalType":"uint256"},{"name":"_useCase","type":"uint256","internalType":"uint256"},{"name":"_allTokens","type":"bool","internalType":"bool"},{"name":"_tokenId","type":"uint256","internalType":"uint256"}],"outputs":[],"stateMutability":"nonpayable"},{"type":"function","name":"retrieveActiveDelegations","inputs":[{"name":"_delegatorAddress","type":"address","internalType":"address"},{"name":"_collectionAddress","type":"address","internalType":"address"},{"name":"_date","type":"uint256","internalType":"uint256"},{"name":"_useCase","type":"uint256","internalType":"uint256"}],"outputs":[{"name":"","type":"address[]","internalType":"address[]"}],"stateMutability":"view"},{"type":"function","name":"retrieveActiveDelegators","inputs":[{"name":"_delegationAddress","type":"address","internalType":"address"},{"name":"_collectionAddress","type":"address","internalType":"address"},{"name":"_date","type":"uint256","internalType":"uint256"},{"name":"_useCase","type":"uint256","internalType":"uint256"}],"outputs":[{"name":"","type":"address[]","internalType":"address[]"}],"stateMutability":"view"},{"type":"function","name":"retrieveCollectionLockStatus","inputs":[{"name":"_collectionAddress","type":"address","internalType":"address"},{"name":"_delegationAddress","type":"address","internalType":"address"}],"outputs":[{"name":"","type":"bool","internalType":"bool"}],"stateMutability":"view"},{"type":"function","name":"retrieveCollectionUseCaseLockStatus","inputs":[{"name":"_collectionAddress","type":"address","internalType":"address"},{"name":"_delegationAddress","type":"address","internalType":"address"},{"name":"_useCase","type":"uint256","internalType":"uint256"}],"outputs":[{"name":"","type":"bool","internalType":"bool"}],"stateMutability":"view"},{"type":"function","name":"retrieveCollectionUseCaseLockStatusOneCall","inputs":[{"name":"_collectionAddress","type":"address","internalType":"address"},{"name":"_delegationAddress","type":"address","internalType":"address"},{"name":"_useCase","type":"uint256","internalType":"uint256"}],"outputs":[{"name":"","type":"bool","internalType":"bool"}],"stateMutability":"view"},{"type":"function","name":"retrieveDelegationAddressStatusOfDelegation","inputs":[{"name":"_delegationAddress","type":"address","internalType":"address"},{"name":"_collectionAddress","type":"address","internalType":"address"},{"name":"_useCase","type":"uint256","internalType":"uint256"}],"outputs":[{"name":"","type":"bool","internalType":"bool"}],"stateMutability":"view"},{"type":"function","name":"retrieveDelegationAddresses","inputs":[{"name":"_delegatorAddress","type":"address","internalType":"address"},{"name":"_collectionAddress","type":"address","internalType":"address"},{"name":"_useCase","type":"uint256","internalType":"uint256"}],"outputs":[{"name":"","type":"address[]","internalType":"address[]"}],"stateMutability":"view"},{"type":"function","name":"retrieveDelegationAddressesTokensIDsandExpiredDates","inputs":[{"name":"_delegatorAddress","type":"address","internalType":"address"},{"name":"_collectionAddress","type":"address","internalType":"address"},{"name":"_useCase","type":"uint256","internalType":"uint256"}],"outputs":[{"name":"","type":"address[]","internalType":"address[]"},{"name":"","type":"uint256[]","internalType":"uint256[]"},{"name":"","type":"bool[]","internalType":"bool[]"},{"name":"","type":"uint256[]","internalType":"uint256[]"}],"stateMutability":"view"},{"type":"function","name":"retrieveDelegatorStatusOfDelegation","inputs":[{"name":"_delegatorAddress","type":"address","internalType":"address"},{"name":"_collectionAddress","type":"address","internalType":"address"},{"name":"_useCase","type":"uint256","internalType":"uint256"}],"outputs":[{"name":"","type":"bool","internalType":"bool"}],"stateMutability":"view"},{"type":"function","name":"retrieveDelegators","inputs":[{"name":"_delegationAddress","type":"address","internalType":"address"},{"name":"_collectionAddress","type":"address","internalType":"address"},{"name":"_useCase","type":"uint256","internalType":"uint256"}],"outputs":[{"name":"","type":"address[]","internalType":"address[]"}],"stateMutability":"view"},{"type":"function","name":"retrieveDelegatorsTokensIDsandExpiredDates","inputs":[{"name":"_delegationAddress","type":"address","internalType":"address"},{"name":"_collectionAddress","type":"address","internalType":"address"},{"name":"_useCase","type":"uint256","internalType":"uint256"}],"outputs":[{"name":"","type":"address[]","internalType":"address[]"},{"name":"","type":"uint256[]","internalType":"uint256[]"},{"name":"","type":"bool[]","internalType":"bool[]"},{"name":"","type":"uint256[]","internalType":"uint256[]"}],"stateMutability":"view"},{"type":"function","name":"retrieveGlobalHash","inputs":[{"name":"_delegatorAddress","type":"address","internalType":"address"},{"name":"_collectionAddress","type":"address","internalType":"address"},{"name":"_delegationAddress","type":"address","internalType":"address"},{"name":"_useCase","type":"uint256","internalType":"uint256"}],"outputs":[{"name":"","type":"bytes32","internalType":"bytes32"}],"stateMutability":"pure"},{"type":"function","name":"retrieveGlobalLockStatus","inputs":[{"name":"_delegationAddress","type":"address","internalType":"address"}],"outputs":[{"name":"","type":"bool","internalType":"bool"}],"stateMutability":"view"},{"type":"function","name":"retrieveGlobalStatusOfDelegation","inputs":[{"name":"_delegatorAddress","type":"address","internalType":"address"},{"name":"_collectionAddress","type":"address","internalType":"address"},{"name":"_delegationAddress","type":"address","internalType":"address"},{"name":"_useCase","type":"uint256","internalType":"uint256"}],"outputs":[{"name":"","type":"bool","internalType":"bool"}],"stateMutability":"view"},{"type":"function","name":"retrieveLocalHash","inputs":[{"name":"_walletAddress","type":"address","internalType":"address"},{"name":"_collectionAddress","type":"address","internalType":"address"},{"name":"_useCase","type":"uint256","internalType":"uint256"}],"outputs":[{"name":"","type":"bytes32","internalType":"bytes32"}],"stateMutability":"pure"},{"type":"function","name":"retrieveMostRecentDelegation","inputs":[{"name":"_delegatorAddress","type":"address","internalType":"address"},{"name":"_collectionAddress","type":"address","internalType":"address"},{"name":"_useCase","type":"uint256","internalType":"uint256"}],"outputs":[{"name":"","type":"address","internalType":"address"}],"stateMutability":"view"},{"type":"function","name":"retrieveMostRecentDelegator","inputs":[{"name":"_delegationAddress","type":"address","internalType":"address"},{"name":"_collectionAddress","type":"address","internalType":"address"},{"name":"_useCase","type":"uint256","internalType":"uint256"}],"outputs":[{"name":"","type":"address","internalType":"address"}],"stateMutability":"view"},{"type":"function","name":"retrieveStatusOfActiveDelegator","inputs":[{"name":"_delegatorAddress","type":"address","internalType":"address"},{"name":"_collectionAddress","type":"address","internalType":"address"},{"name":"_delegationAddress","type":"address","internalType":"address"},{"name":"_date","type":"uint256","internalType":"uint256"},{"name":"_useCase","type":"uint256","internalType":"uint256"}],"outputs":[{"name":"","type":"bool","internalType":"bool"}],"stateMutability":"view"},{"type":"function","name":"retrieveStatusOfMostRecentDelegation","inputs":[{"name":"_delegatorAddress","type":"address","internalType":"address"},{"name":"_collectionAddress","type":"address","internalType":"address"},{"name":"_delegationAddress","type":"address","internalType":"address"},{"name":"_useCase","type":"uint256","internalType":"uint256"}],"outputs":[{"name":"","type":"bool","internalType":"bool"}],"stateMutability":"view"},{"type":"function","name":"retrieveSubDelegationStatus","inputs":[{"name":"_delegatorAddress","type":"address","internalType":"address"},{"name":"_collectionAddress","type":"address","internalType":"address"},{"name":"_delegationAddress","type":"address","internalType":"address"}],"outputs":[{"name":"","type":"bool","internalType":"bool"}],"stateMutability":"view"},{"type":"function","name":"retrieveTokenStatus","inputs":[{"name":"_delegatorAddress","type":"address","internalType":"address"},{"name":"_collectionAddress","type":"address","internalType":"address"},{"name":"_delegationAddress","type":"address","internalType":"address"},{"name":"_useCase","type":"uint256","internalType":"uint256"},{"name":"_tokenId","type":"uint256","internalType":"uint256"}],"outputs":[{"name":"","type":"bool","internalType":"bool"}],"stateMutability":"view"},{"type":"function","name":"revokeDelegationAddress","inputs":[{"name":"_collectionAddress","type":"address","internalType":"address"},{"name":"_delegationAddress","type":"address","internalType":"address"},{"name":"_useCase","type":"uint256","internalType":"uint256"}],"outputs":[],"stateMutability":"nonpayable"},{"type":"function","name":"revokeDelegationAddressUsingSubdelegation","inputs":[{"name":"_delegatorAddress","type":"address","internalType":"address"},{"name":"_collectionAddress","type":"address","internalType":"address"},{"name":"_delegationAddress","type":"address","internalType":"address"},{"name":"_useCase","type":"uint256","internalType":"uint256"}],"outputs":[],"stateMutability":"nonpayable"},{"type":"function","name":"setCollectionLock","inputs":[{"name":"_collectionAddress","type":"address","internalType":"address"},{"name":"_status","type":"bool","internalType":"bool"}],"outputs":[],"stateMutability":"nonpayable"},{"type":"function","name":"setCollectionUsecaseLock","inputs":[{"name":"_collectionAddress","type":"address","internalType":"address"},{"name":"_useCase","type":"uint256","internalType":"uint256"},{"name":"_status","type":"bool","internalType":"bool"}],"outputs":[],"stateMutability":"nonpayable"},{"type":"function","name":"setGlobalLock","inputs":[{"name":"_status","type":"bool","internalType":"bool"}],"outputs":[],"stateMutability":"nonpayable"},{"type":"function","name":"updateDelegationAddress","inputs":[{"name":"_collectionAddress","type":"address","internalType":"address"},{"name":"_olddelegationAddress","type":"address","internalType":"address"},{"name":"_newdelegationAddress","type":"address","internalType":"address"},{"name":"_expiryDate","type":"uint256","internalType":"uint256"},{"name":"_useCase","type":"uint256","internalType":"uint256"},{"name":"_allTokens","type":"bool","internalType":"bool"},{"name":"_tokenId","type":"uint256","internalType":"uint256"}],"outputs":[],"stateMutability":"nonpayable"},{"type":"function","name":"updateUseCaseCounter","inputs":[],"outputs":[],"stateMutability":"nonpayable"},{"type":"function","name":"useCaseCounter","inputs":[],"outputs":[{"name":"","type":"uint256","internalType":"uint256"}],"stateMutability":"view"},{"type":"event","name":"RegisterDelegation","inputs":[{"name":"from","type":"address","indexed":true,"internalType":"address"},{"name":"collectionAddress","type":"address","indexed":true,"internalType":"address"},{"name":"delegationAddress","type":"address","indexed":true,"internalType":"address"},{"name":"useCase","type":"uint256","indexed":false,"internalType":"uint256"},{"name":"allTokens","type":"bool","indexed":false,"internalType":"bool"},{"name":"_tokenId","type":"uint256","indexed":false,"internalType":"uint256"}],"anonymous":false},{"type":"event","name":"RegisterDelegationUsingSubDelegation","inputs":[{"name":"delegator","type":"address","indexed":true,"internalType":"address"},{"name":"from","type":"address","indexed":false,"internalType":"address"},{"name":"collectionAddress","type":"address","indexed":true,"internalType":"address"},{"name":"delegationAddress","type":"address","indexed":true,"internalType":"address"},{"name":"useCase","type":"uint256","indexed":false,"internalType":"uint256"},{"name":"allTokens","type":"bool","indexed":false,"internalType":"bool"},{"name":"_tokenId","type":"uint256","indexed":false,"internalType":"uint256"}],"anonymous":false},{"type":"event","name":"RevokeDelegation","inputs":[{"name":"from","type":"address","indexed":true,"internalType":"address"},{"name":"collectionAddress","type":"address","indexed":true,"internalType":"address"},{"name":"delegationAddress","type":"address","indexed":true,"internalType":"address"},{"name":"useCase","type":"uint256","indexed":false,"internalType":"uint256"}],"anonymous":false},{"type":"event","name":"RevokeDelegationUsingSubDelegation","inputs":[{"name":"delegator","type":"address","indexed":true,"internalType":"address"},{"name":"from","type":"address","indexed":false,"internalType":"address"},{"name":"collectionAddress","type":"address","indexed":true,"internalType":"address"},{"name":"delegationAddress","type":"address","indexed":true,"internalType":"address"},{"name":"useCase","type":"uint256","indexed":false,"internalType":"uint256"}],"anonymous":false},{"type":"event","name":"UpdateDelegation","inputs":[{"name":"from","type":"address","indexed":true,"internalType":"address"},{"name":"collectionAddress","type":"address","indexed":true,"internalType":"address"},{"name":"olddelegationAddress","type":"address","indexed":false,"internalType":"address"},{"name":"newdelegationAddress","type":"address","indexed":true,"internalType":"address"},{"name":"useCase","type":"uint256","indexed":false,"internalType":"uint256"},{"name":"allTokens","type":"bool","indexed":false,"internalType":"bool"},{"name":"_tokenId","type":"uint256","indexed":false,"internalType":"uint256"}],"anonymous":false}],"bytecode":{"object":"0x608060405234801561001057600080fd5b506103e7600081905550616e9d806200002a6000396000f3fe608060405234801561001057600080fd5b50600436106102485760003560e01c80637d20ab741161013b578063ccc4f4a4116100b8578063ea63eedc1161007c578063ea63eedc146107fc578063ec0c95ee1461082c578063ec699beb1461085c578063f5b986df1461088c578063f793b96e146108bc57610248565b8063ccc4f4a414610746578063d141baae14610750578063d6a0a3d514610780578063d986ff6d1461079c578063db143239146107cc57610248565b80639bccd56c116100ff5780639bccd56c1461067b578063a4fa030314610697578063aa3e650a146106b3578063b2f60eec146106e6578063c7cc4bb41461071657610248565b80637d20ab74146105c55780637ed01e12146105f55780637f1a2fdf14610611578063850e8e061461062f5780638bb60cb61461064b57610248565b806346edce67116101c957806366ff484d1161018d57806366ff484d146104e95780636cfcae20146105055780636ff565131461053557806373aedfff14610565578063782740d51461059557610248565b806346edce67146104055780634b1fe2491461043a5780634b402f271461046d5780635d44c776146104895780635e5b57a2146104b957610248565b80632c96e0d9116102105780632c96e0d914610329578063319a9395146103595780633465ef111461037557806336ddecfb146103a55780633b995952146103d557610248565b8063155424001461024d57806316eca9931461027d57806322b613ef146102ad578063234dd639146102dd5780632a243ce71461030d575b600080fd5b61026760048036038101906102629190615dde565b6108d8565b6040516102749190615e5f565b60405180910390f35b61029760048036038101906102929190615ea6565b610926565b6040516102a49190615f3c565b60405180910390f35b6102c760048036038101906102c29190615f57565b610a5d565b6040516102d49190616068565b60405180910390f35b6102f760048036038101906102f29190615ea6565b610b30565b6040516103049190615f3c565b60405180910390f35b610327600480360381019061032291906160b6565b610bd8565b005b610343600480360381019061033e9190615f57565b61126f565b6040516103509190615f3c565b60405180910390f35b610373600480360381019061036e9190616143565b6112c3565b005b61038f600480360381019061038a9190615f57565b61131d565b60405161039c9190615e5f565b60405180910390f35b6103bf60048036038101906103ba9190615f57565b611860565b6040516103cc9190615f3c565b60405180910390f35b6103ef60048036038101906103ea9190615f57565b6118b6565b6040516103fc9190615f3c565b60405180910390f35b61041f600480360381019061041a9190615dde565b61190a565b6040516104319695949392919061617f565b60405180910390f35b610454600480360381019061044f9190615f57565b6119b0565b604051610464949392919061635c565b60405180910390f35b610487600480360381019061048291906163bd565b61211c565b005b6104a3600480360381019061049e919061645f565b6128fd565b6040516104b09190615f3c565b60405180910390f35b6104d360048036038101906104ce919061649f565b6129ae565b6040516104e09190615f3c565b60405180910390f35b61050360048036038101906104fe9190615f57565b612a60565b005b61051f600480360381019061051a9190615f57565b6132c0565b60405161052c9190616068565b60405180910390f35b61054f600480360381019061054a9190615f57565b613393565b60405161055c9190615f3c565b60405180910390f35b61057f600480360381019061057a9190615f57565b613409565b60405161058c9190615e5f565b60405180910390f35b6105af60048036038101906105aa91906164f2565b61394c565b6040516105bc9190615f3c565b60405180910390f35b6105df60048036038101906105da9190615f57565b613991565b6040516105ec9190616568565b60405180910390f35b61060f600480360381019061060a91906164f2565b6139cc565b005b610619614373565b6040516106269190616583565b60405180910390f35b610649600480360381019061064491906163bd565b614379565b005b6106656004803603810190610660919061649f565b61441d565b6040516106729190615f3c565b60405180910390f35b6106956004803603810190610690919061687d565b614546565b005b6106b160048036038101906106ac91906169b2565b61461e565b005b6106cd60048036038101906106c89190615f57565b614696565b6040516106dd949392919061635c565b60405180910390f35b61070060048036038101906106fb9190616a05565b614e02565b60405161070d9190615f3c565b60405180910390f35b610730600480360381019061072b9190616a32565b614e22565b60405161073d9190616068565b60405180910390f35b61074e615402565b005b61076a60048036038101906107659190616a05565b615419565b6040516107779190615f3c565b60405180910390f35b61079a60048036038101906107959190616a99565b615439565b005b6107b660048036038101906107b191906164f2565b6154ec565b6040516107c39190615f3c565b60405180910390f35b6107e660048036038101906107e19190615dde565b615543565b6040516107f39190615e5f565b60405180910390f35b61081660048036038101906108119190616a32565b615591565b6040516108239190616068565b60405180910390f35b61084660048036038101906108419190616ad9565b615b71565b6040516108539190615f3c565b60405180910390f35b61087660048036038101906108719190616ad9565b615b91565b6040516108839190615f3c565b60405180910390f35b6108a660048036038101906108a191906164f2565b615be7565b6040516108b39190616568565b60405180910390f35b6108d660048036038101906108d19190616b06565b615c25565b005b600160205281600052604060002081815481106108f457600080fd5b906000526020600020016000915091509054906101000a900473ffffffffffffffffffffffffffffffffffffffff1681565b600080868686866040516020016109409493929190616c16565b60405160208183030381529060405280519060200120905060008060036000848152602001908152602001600020805490501115610a4d5760005b6003600084815260200190815260200160002080549050811015610a4257600015156003600085815260200190815260200160002082815481106109c2576109c1616c64565b5b906000526020600020906006020160040160009054906101000a900460ff161515148015610a25575084600360008581526020019081526020016000208281548110610a1157610a10616c64565b5b906000526020600020906006020160050154145b15610a335760019150610a42565b6000915080600101905061097b565b508092505050610a54565b6000925050505b95945050505050565b60606000848484604051602001610a7693929190616c93565b60405160208183030381529060405280519060200120905060016000828152602001908152602001600020805480602002602001604051908101604052809291908181526020018280548015610b2157602002820191906000526020600020905b8160009054906101000a900473ffffffffffffffffffffffffffffffffffffffff1673ffffffffffffffffffffffffffffffffffffffff1681526020019060010190808311610ad7575b50505050509150509392505050565b600080610b3f85878686614e22565b905060008082511115610bc85760005b8251811015610bbd57828181518110610b6b57610b6a616c64565b5b602002602001015173ffffffffffffffffffffffffffffffffffffffff168973ffffffffffffffffffffffffffffffffffffffff1603610bae5760019150610bbd565b60009150806001019050610b4f565b508092505050610bcf565b6000925050505b95945050505050565b600083118015610bea57506000548311155b610bf357600080fd5b6000806000806000808b8b604051602001610c0f929190616cd0565b6040516020818303038152906040528051906020012092508b8b8a604051602001610c3c93929190616c93565b6040516020818303038152906040528051906020012091507388888888888888888888888888888888888888888b8a604051602001610c7d93929190616c93565b60405160208183030381529060405280519060200120905060001515600460008d73ffffffffffffffffffffffffffffffffffffffff1673ffffffffffffffffffffffffffffffffffffffff16815260200190815260200160002060009054906101000a900460ff16151514610cf257600080fd5b600015156005600085815260200190815260200160002060009054906101000a900460ff16151514610d2357600080fd5b600015156006600084815260200190815260200160002060009054906101000a900460ff16151514610d5457600080fd5b600015156006600083815260200190815260200160002060009054906101000a900460ff16151514610d8557600080fd5b338c8c8b604051602001610d9c9493929190616c16565b604051602081830303815290604052805190602001209350338c8a604051602001610dc993929190616c93565b6040516020818303038152906040528051906020012095508a8c8a604051602001610df693929190616c93565b604051602081830303815290604052805190602001209450600160008781526020019081526020016000208b9080600181540180825580915050600190039060005260206000200160009091909190916101000a81548173ffffffffffffffffffffffffffffffffffffffff021916908373ffffffffffffffffffffffffffffffffffffffff16021790555060026000868152602001908152602001600020339080600181540180825580915050600190039060005260206000200160009091909190916101000a81548173ffffffffffffffffffffffffffffffffffffffff021916908373ffffffffffffffffffffffffffffffffffffffff16021790555060011515881515036110745760006040518060c001604052803373ffffffffffffffffffffffffffffffffffffffff1681526020018d73ffffffffffffffffffffffffffffffffffffffff1681526020014281526020018c8152602001600115158152602001600081525090506003600086815260200190815260200160002081908060018154018082558091505060019003906000526020600020906006020160009091909190915060008201518160000160006101000a81548173ffffffffffffffffffffffffffffffffffffffff021916908373ffffffffffffffffffffffffffffffffffffffff16021790555060208201518160010160006101000a81548173ffffffffffffffffffffffffffffffffffffffff021916908373ffffffffffffffffffffffffffffffffffffffff160217905550604082015181600201556060820151816003015560808201518160040160006101000a81548160ff02191690831515021790555060a082015181600501555050506111e1565b60006040518060c001604052803373ffffffffffffffffffffffffffffffffffffffff1681526020018d73ffffffffffffffffffffffffffffffffffffffff1681526020014281526020018c81526020016000151581526020018981525090506003600086815260200190815260200160002081908060018154018082558091505060019003906000526020600020906006020160009091909190915060008201518160000160006101000a81548173ffffffffffffffffffffffffffffffffffffffff021916908373ffffffffffffffffffffffffffffffffffffffff16021790555060208201518160010160006101000a81548173ffffffffffffffffffffffffffffffffffffffff021916908373ffffffffffffffffffffffffffffffffffffffff160217905550604082015181600201556060820151816003015560808201518160040160006101000a81548160ff02191690831515021790555060a082015181600501555050505b8a73ffffffffffffffffffffffffffffffffffffffff168c73ffffffffffffffffffffffffffffffffffffffff163373ffffffffffffffffffffffffffffffffffffffff167fcf23f2b40be0e08bb0a6b6d6bef575e6441f3137f93730338475a86920fd22178c8c8c60405161125993929190616cfc565b60405180910390a4505050505050505050505050565b60008084848460405160200161128793929190616c93565b60405160208183030381529060405280519060200120905060006002600083815260200190815260200160002080549050119150509392505050565b80600460003373ffffffffffffffffffffffffffffffffffffffff1673ffffffffffffffffffffffffffffffffffffffff16815260200190815260200160002060006101000a81548160ff02191690831515021790555050565b60008061132b8585856132c0565b9050600080825167ffffffffffffffff81111561134b5761134a6165b4565b5b6040519080825280602002602001820160405280156113795781602001602082028036833780820191505090505b5090506000806000808651111561184e5760005b8651811015611419578681815181106113a9576113a8616c64565b5b60200260200101518a8c8b6040516020016113c79493929190616c16565b604051602081830303815290604052805190602001209550858585815181106113f3576113f2616c64565b5b60200260200101818152505060018461140c9190616d62565b935080600101905061138d565b5060005b6001855161142b9190616d96565b8110156114c25760006001826114419190616d62565b90505b85518110156114b6578581815181106114605761145f616c64565b5b602002602001015186838151811061147b5761147a616c64565b5b6020026020010151036114ab5785828151811061149b5761149a616c64565b5b6020026020010160008019168152505b806001019050611444565b5080600101905061141d565b5060005b84518110156115185781600360008784815181106114e7576114e6616c64565b5b602002602001015181526020019081526020016000208054905061150b9190616d62565b91508060010190506114c6565b5060008167ffffffffffffffff811115611535576115346165b4565b5b6040519080825280602002602001820160405280156115635781602001602082028036833780820191505090505b50905060008267ffffffffffffffff811115611582576115816165b4565b5b6040519080825280602002602001820160405280156115b05781602001602082028036833780820191505090505b50905060005b83811015611787576000600360008984815181106115d7576115d6616c64565b5b6020026020010151815260200190815260200160002080549050111561177c5760005b6003600089848151811061161157611610616c64565b5b602002602001015181526020019081526020016000208054905081101561177a576003600089848151811061164957611648616c64565b5b60200260200101518152602001908152602001600020818154811061167157611670616c64565b5b906000526020600020906006020160000160009054906101000a900473ffffffffffffffffffffffffffffffffffffffff168487815181106116b6576116b5616c64565b5b602002602001019073ffffffffffffffffffffffffffffffffffffffff16908173ffffffffffffffffffffffffffffffffffffffff16815250506003600089848151811061170757611706616c64565b5b60200260200101518152602001908152602001600020818154811061172f5761172e616c64565b5b90600052602060002090600602016002015483878151811061175457611753616c64565b5b60200260200101818152505060018661176d9190616d62565b95508060010190506115fa565b505b8060010190506115b6565b5060008260008151811061179e5761179d616c64565b5b602002602001015190506000826000815181106117be576117bd616c64565b5b6020026020010151905060005b845181101561183b57818482815181106117e8576117e7616c64565b5b6020026020010151106118305783818151811061180857611807616c64565b5b6020026020010151915084818151811061182557611824616c64565b5b602002602001015192505b8060010190506117cb565b50819a5050505050505050505050611859565b600096505050505050505b9392505050565b60006001820361187b5761187484846128fd565b90506118af565b611886848484613393565b806118ac57506118ab7388888888888888888888888888888888888888888484613393565b5b90505b9392505050565b6000808484846040516020016118ce93929190616c93565b60405160208183030381529060405280519060200120905060006001600083815260200190815260200160002080549050119150509392505050565b6003602052816000526040600020818154811061192657600080fd5b9060005260206000209060060201600091509150508060000160009054906101000a900473ffffffffffffffffffffffffffffffffffffffff16908060010160009054906101000a900473ffffffffffffffffffffffffffffffffffffffff16908060020154908060030154908060040160009054906101000a900460ff16908060050154905086565b60608060608060006119c38888886132c0565b9050600080825167ffffffffffffffff8111156119e3576119e26165b4565b5b604051908082528060200260200182016040528015611a115781602001602082028036833780820191505090505b50905060008060008086511115611fc85760005b8651811015611ab157868181518110611a4157611a40616c64565b5b60200260200101518d8f8e604051602001611a5f9493929190616c16565b60405160208183030381529060405280519060200120955085858581518110611a8b57611a8a616c64565b5b602002602001018181525050600184611aa49190616d62565b9350806001019050611a25565b5060005b60018551611ac39190616d96565b811015611b5a576000600182611ad99190616d62565b90505b8551811015611b4e57858181518110611af857611af7616c64565b5b6020026020010151868381518110611b1357611b12616c64565b5b602002602001015103611b4357858281518110611b3357611b32616c64565b5b6020026020010160008019168152505b806001019050611adc565b50806001019050611ab5565b5060005b8451811015611bb0578160036000878481518110611b7f57611b7e616c64565b5b6020026020010151815260200190815260200160002080549050611ba39190616d62565b9150806001019050611b5e565b5060008167ffffffffffffffff811115611bcd57611bcc6165b4565b5b604051908082528060200260200182016040528015611bfb5781602001602082028036833780820191505090505b50905060008267ffffffffffffffff811115611c1a57611c196165b4565b5b604051908082528060200260200182016040528015611c485781602001602082028036833780820191505090505b50905060008367ffffffffffffffff811115611c6757611c666165b4565b5b604051908082528060200260200182016040528015611c955781602001602082028036833780820191505090505b50905060008467ffffffffffffffff811115611cb457611cb36165b4565b5b604051908082528060200260200182016040528015611ce25781602001602082028036833780820191505090505b50905060005b85811015611fac576000600360008b8481518110611d0957611d08616c64565b5b60200260200101518152602001908152602001600020805490501115611fa15760005b600360008b8481518110611d4357611d42616c64565b5b6020026020010151815260200190815260200160002080549050811015611f9f57600360008b8481518110611d7b57611d7a616c64565b5b602002602001015181526020019081526020016000208181548110611da357611da2616c64565b5b906000526020600020906006020160000160009054906101000a900473ffffffffffffffffffffffffffffffffffffffff16868981518110611de857611de7616c64565b5b602002602001019073ffffffffffffffffffffffffffffffffffffffff16908173ffffffffffffffffffffffffffffffffffffffff1681525050600360008b8481518110611e3957611e38616c64565b5b602002602001015181526020019081526020016000208181548110611e6157611e60616c64565b5b906000526020600020906006020160030154838981518110611e8657611e85616c64565b5b602002602001018181525050600360008b8481518110611ea957611ea8616c64565b5b602002602001015181526020019081526020016000208181548110611ed157611ed0616c64565b5b906000526020600020906006020160040160009054906101000a900460ff16848981518110611f0357611f02616c64565b5b602002602001019015159081151581525050600360008b8481518110611f2c57611f2b616c64565b5b602002602001015181526020019081526020016000208181548110611f5457611f53616c64565b5b906000526020600020906006020160050154858981518110611f7957611f78616c64565b5b602002602001018181525050600188611f929190616d62565b9750806001019050611d2c565b505b806001019050611ce8565b50838183859d509d509d509d5050505050505050505050612113565b60008067ffffffffffffffff811115611fe457611fe36165b4565b5b6040519080825280602002602001820160405280156120125781602001602082028036833780820191505090505b50905060008067ffffffffffffffff811115612031576120306165b4565b5b60405190808252806020026020018201604052801561205f5781602001602082028036833780820191505090505b50905060008067ffffffffffffffff81111561207e5761207d6165b4565b5b6040519080825280602002602001820160405280156120ac5781602001602082028036833780820191505090505b50905060008067ffffffffffffffff8111156120cb576120ca6165b4565b5b6040519080825280602002602001820160405280156120f95781602001602082028036833780820191505090505b509050838183859d509d509d509d50505050505050505050505b93509350935093565b60008061212c33896103e66132c0565b90506000815111156121a75760005b81518110156121a55781818151811061215757612156616c64565b5b602002602001015173ffffffffffffffffffffffffffffffffffffffff168a73ffffffffffffffffffffffffffffffffffffffff160361219a57600192506121a5565b80600101905061213b565b505b6121c8337388888888888888888888888888888888888888886103e66132c0565b905060008151111561225057600115158215151461224f5760005b815181101561224d578181815181106121ff576121fe616c64565b5b602002602001015173ffffffffffffffffffffffffffffffffffffffff168a73ffffffffffffffffffffffffffffffffffffffff1603612242576001925061224d565b8060010190506121e3565b505b5b600115158215151461226157600080fd5b505060008311801561227557506000548311155b61227e57600080fd5b6000806000806000808b8b60405160200161229a929190616cd0565b6040516020818303038152906040528051906020012092508b8b8a6040516020016122c793929190616c93565b6040516020818303038152906040528051906020012091507388888888888888888888888888888888888888888b8a60405160200161230893929190616c93565b60405160208183030381529060405280519060200120905060001515600460008d73ffffffffffffffffffffffffffffffffffffffff1673ffffffffffffffffffffffffffffffffffffffff16815260200190815260200160002060009054906101000a900460ff1615151461237d57600080fd5b600015156005600085815260200190815260200160002060009054906101000a900460ff161515146123ae57600080fd5b600015156006600084815260200190815260200160002060009054906101000a900460ff161515146123df57600080fd5b600015156006600083815260200190815260200160002060009054906101000a900460ff1615151461241057600080fd5b8c8c8c8b6040516020016124279493929190616c16565b6040516020818303038152906040528051906020012093508c8c8a60405160200161245493929190616c93565b6040516020818303038152906040528051906020012095508a8c8a60405160200161248193929190616c93565b604051602081830303815290604052805190602001209450600160008781526020019081526020016000208b9080600181540180825580915050600190039060005260206000200160009091909190916101000a81548173ffffffffffffffffffffffffffffffffffffffff021916908373ffffffffffffffffffffffffffffffffffffffff160217905550600260008681526020019081526020016000208d9080600181540180825580915050600190039060005260206000200160009091909190916101000a81548173ffffffffffffffffffffffffffffffffffffffff021916908373ffffffffffffffffffffffffffffffffffffffff16021790555060011515881515036126ff5760006040518060c001604052808f73ffffffffffffffffffffffffffffffffffffffff1681526020018d73ffffffffffffffffffffffffffffffffffffffff1681526020014281526020018c8152602001600115158152602001600081525090506003600086815260200190815260200160002081908060018154018082558091505060019003906000526020600020906006020160009091909190915060008201518160000160006101000a81548173ffffffffffffffffffffffffffffffffffffffff021916908373ffffffffffffffffffffffffffffffffffffffff16021790555060208201518160010160006101000a81548173ffffffffffffffffffffffffffffffffffffffff021916908373ffffffffffffffffffffffffffffffffffffffff160217905550604082015181600201556060820151816003015560808201518160040160006101000a81548160ff02191690831515021790555060a0820151816005015550505061286c565b60006040518060c001604052808f73ffffffffffffffffffffffffffffffffffffffff1681526020018d73ffffffffffffffffffffffffffffffffffffffff1681526020014281526020018c81526020016000151581526020018981525090506003600086815260200190815260200160002081908060018154018082558091505060019003906000526020600020906006020160009091909190915060008201518160000160006101000a81548173ffffffffffffffffffffffffffffffffffffffff021916908373ffffffffffffffffffffffffffffffffffffffff16021790555060208201518160010160006101000a81548173ffffffffffffffffffffffffffffffffffffffff021916908373ffffffffffffffffffffffffffffffffffffffff160217905550604082015181600201556060820151816003015560808201518160040160006101000a81548160ff02191690831515021790555060a082015181600501555050505b8a73ffffffffffffffffffffffffffffffffffffffff168c73ffffffffffffffffffffffffffffffffffffffff168e73ffffffffffffffffffffffffffffffffffffffff167fbd5af040fa27449f00e35a368bb558ba6b619f0da43b8f35722fe7f8de754b5f338d8d8d6040516128e69493929190616dca565b60405180910390a450505050505050505050505050565b600073888888888888888888888888888888888888888873ffffffffffffffffffffffffffffffffffffffff168373ffffffffffffffffffffffffffffffffffffffff16036129565761294f82615b91565b90506129a8565b6000838360405160200161296b929190616cd0565b6040516020818303038152906040528051906020012090506005600082815260200190815260200160002060009054906101000a900460ff169150505b92915050565b60008060006129c084866103e66132c0565b9050600081511115612a3b5760005b8151811015612a39578181815181106129eb576129ea616c64565b5b602002602001015173ffffffffffffffffffffffffffffffffffffffff168773ffffffffffffffffffffffffffffffffffffffff1603612a2e5760019250612a39565b8060010190506129cf565b505b6001151582151503612a5257600192505050612a59565b6000925050505b9392505050565b60008060008033878787604051602001612a7d9493929190616c16565b604051602081830303815290604052805190602001209150338786604051602001612aaa93929190616c93565b604051602081830303815290604052805190602001209350858786604051602001612ad793929190616c93565b604051602081830303815290604052805190602001209250600090506000600160008681526020019081526020016000208054905011156132b75760005b6001600086815260200190815260200160002080549050811015612bd057600160008681526020019081526020016000208181548110612b5857612b57616c64565b5b9060005260206000200160009054906101000a900473ffffffffffffffffffffffffffffffffffffffff1673ffffffffffffffffffffffffffffffffffffffff168773ffffffffffffffffffffffffffffffffffffffff1603612bc557600182612bc29190616d62565b91505b806001019050612b15565b5060008167ffffffffffffffff811115612bed57612bec6165b4565b5b604051908082528060200260200182016040528015612c1b5781602001602082028036833780820191505090505b5090506000805b6001600088815260200190815260200160002080549050811015612cfd57600160008881526020019081526020016000208181548110612c6557612c64616c64565b5b9060005260206000200160009054906101000a900473ffffffffffffffffffffffffffffffffffffffff1673ffffffffffffffffffffffffffffffffffffffff168973ffffffffffffffffffffffffffffffffffffffff1603612cf25780838381518110612cd657612cd5616c64565b5b602002602001018181525050600182612cef9190616d62565b91505b806001019050612c22565b506000811115612e935760005b8251811015612e9157600080848360018751612d269190616d96565b612d309190616d96565b81518110612d4157612d40616c64565b5b6020026020010151915060018060008b815260200190815260200160002080549050612d6d9190616d96565b9050600160008a81526020019081526020016000208181548110612d9457612d93616c64565b5b9060005260206000200160009054906101000a900473ffffffffffffffffffffffffffffffffffffffff16600160008b81526020019081526020016000208381548110612de457612de3616c64565b5b9060005260206000200160006101000a81548173ffffffffffffffffffffffffffffffffffffffff021916908373ffffffffffffffffffffffffffffffffffffffff160217905550600160008a8152602001908152602001600020805480612e4f57612e4e616e0f565b5b6001900381819060005260206000200160006101000a81549073ffffffffffffffffffffffffffffffffffffffff021916905590558260010192505050612d0a565b505b6000805b6002600088815260200190815260200160002080549050811015612f5257600260008881526020019081526020016000208181548110612eda57612ed9616c64565b5b9060005260206000200160009054906101000a900473ffffffffffffffffffffffffffffffffffffffff1673ffffffffffffffffffffffffffffffffffffffff163373ffffffffffffffffffffffffffffffffffffffff1603612f4757600182612f449190616d62565b91505b806001019050612e97565b5060008167ffffffffffffffff811115612f6f57612f6e6165b4565b5b604051908082528060200260200182016040528015612f9d5781602001602082028036833780820191505090505b5090506000805b600260008a81526020019081526020016000208054905081101561307f57600260008a81526020019081526020016000208181548110612fe757612fe6616c64565b5b9060005260206000200160009054906101000a900473ffffffffffffffffffffffffffffffffffffffff1673ffffffffffffffffffffffffffffffffffffffff163373ffffffffffffffffffffffffffffffffffffffff1603613074578083838151811061305857613057616c64565b5b6020026020010181815250506001826130719190616d62565b91505b806001019050612fa4565b5060008111156132165760005b8251811015613214576000808483600187516130a89190616d96565b6130b29190616d96565b815181106130c3576130c2616c64565b5b602002602001015191506001600260008d8152602001908152602001600020805490506130f09190616d96565b9050600260008c8152602001908152602001600020818154811061311757613116616c64565b5b9060005260206000200160009054906101000a900473ffffffffffffffffffffffffffffffffffffffff16600260008d8152602001908152602001600020838154811061316757613166616c64565b5b9060005260206000200160006101000a81548173ffffffffffffffffffffffffffffffffffffffff021916908373ffffffffffffffffffffffffffffffffffffffff160217905550600260008c81526020019081526020016000208054806131d2576131d1616e0f565b5b6001900381819060005260206000200160006101000a81549073ffffffffffffffffffffffffffffffffffffffff02191690559055826001019250505061308c565b505b6003600088815260200190815260200160002060006132359190615ca9565b8a73ffffffffffffffffffffffffffffffffffffffff168c73ffffffffffffffffffffffffffffffffffffffff163373ffffffffffffffffffffffffffffffffffffffff167feb2716ae908a1e27125f13f2a948ee7b067d22f92b1fc0152355e0085d80177e8d6040516132a99190616583565b60405180910390a450505050505b50505050505050565b606060008484846040516020016132d993929190616c93565b6040516020818303038152906040528051906020012090506002600082815260200190815260200160002080548060200260200160405190810160405280929190818152602001828054801561338457602002820191906000526020600020905b8160009054906101000a900473ffffffffffffffffffffffffffffffffffffffff1673ffffffffffffffffffffffffffffffffffffffff168152602001906001019080831161333a575b50505050509150509392505050565b6000600182036133ae576133a784846128fd565b9050613402565b60008484846040516020016133c593929190616c93565b6040516020818303038152906040528051906020012090506006600082815260200190815260200160002060009054906101000a900460ff169150505b9392505050565b600080613417858585610a5d565b9050600080825167ffffffffffffffff811115613437576134366165b4565b5b6040519080825280602002602001820160405280156134655781602001602082028036833780820191505090505b5090506000806000808651111561393a5760005b8651811015613505578a8a88838151811061349757613496616c64565b5b60200260200101518b6040516020016134b39493929190616c16565b604051602081830303815290604052805190602001209550858585815181106134df576134de616c64565b5b6020026020010181815250506001846134f89190616d62565b9350806001019050613479565b5060005b600185516135179190616d96565b8110156135ae57600060018261352d9190616d62565b90505b85518110156135a25785818151811061354c5761354b616c64565b5b602002602001015186838151811061356757613566616c64565b5b6020026020010151036135975785828151811061358757613586616c64565b5b6020026020010160008019168152505b806001019050613530565b50806001019050613509565b5060005b84518110156136045781600360008784815181106135d3576135d2616c64565b5b60200260200101518152602001908152602001600020805490506135f79190616d62565b91508060010190506135b2565b5060008167ffffffffffffffff811115613621576136206165b4565b5b60405190808252806020026020018201604052801561364f5781602001602082028036833780820191505090505b50905060008267ffffffffffffffff81111561366e5761366d6165b4565b5b60405190808252806020026020018201604052801561369c5781602001602082028036833780820191505090505b50905060005b83811015613873576000600360008984815181106136c3576136c2616c64565b5b602002602001015181526020019081526020016000208054905011156138685760005b600360008984815181106136fd576136fc616c64565b5b6020026020010151815260200190815260200160002080549050811015613866576003600089848151811061373557613734616c64565b5b60200260200101518152602001908152602001600020818154811061375d5761375c616c64565b5b906000526020600020906006020160010160009054906101000a900473ffffffffffffffffffffffffffffffffffffffff168487815181106137a2576137a1616c64565b5b602002602001019073ffffffffffffffffffffffffffffffffffffffff16908173ffffffffffffffffffffffffffffffffffffffff1681525050600360008984815181106137f3576137f2616c64565b5b60200260200101518152602001908152602001600020818154811061381b5761381a616c64565b5b9060005260206000209060060201600201548387815181106138405761383f616c64565b5b6020026020010181815250506001866138599190616d62565b95508060010190506136e6565b505b8060010190506136a2565b5060008260008151811061388a57613889616c64565b5b602002602001015190506000826000815181106138aa576138a9616c64565b5b6020026020010151905060005b845181101561392757818482815181106138d4576138d3616c64565b5b60200260200101511061391c578381815181106138f4576138f3616c64565b5b6020026020010151915084818151811061391157613910616c64565b5b602002602001015192505b8060010190506138b7565b50819a5050505050505050505050613945565b600096505050505050505b9392505050565b6000613959858584613409565b73ffffffffffffffffffffffffffffffffffffffff168373ffffffffffffffffffffffffffffffffffffffff16149050949350505050565b6000808484846040516020016139a993929190616c93565b604051602081830303815290604052805190602001209050809150509392505050565b6000806139dc33866103e66132c0565b9050600081511115613a575760005b8151811015613a5557818181518110613a0757613a06616c64565b5b602002602001015173ffffffffffffffffffffffffffffffffffffffff168773ffffffffffffffffffffffffffffffffffffffff1603613a4a5760019250613a55565b8060010190506139eb565b505b613a78337388888888888888888888888888888888888888886103e66132c0565b9050600081511115613b00576001151582151514613aff5760005b8151811015613afd57818181518110613aaf57613aae616c64565b5b602002602001015173ffffffffffffffffffffffffffffffffffffffff168773ffffffffffffffffffffffffffffffffffffffff1603613af25760019250613afd565b806001019050613a93565b505b5b6001151582151514613b1157600080fd5b50506000848483604051602001613b2a93929190616c93565b6040516020818303038152906040528051906020012090506000838584604051602001613b5993929190616c93565b604051602081830303815290604052805190602001209050600086868686604051602001613b8a9493929190616c16565b604051602081830303815290604052805190602001209050600080600160008681526020019081526020016000208054905011156143695760005b6001600086815260200190815260200160002080549050811015613c8057600160008681526020019081526020016000208181548110613c0857613c07616c64565b5b9060005260206000200160009054906101000a900473ffffffffffffffffffffffffffffffffffffffff1673ffffffffffffffffffffffffffffffffffffffff168773ffffffffffffffffffffffffffffffffffffffff1603613c7557600182613c729190616d62565b91505b806001019050613bc5565b5060008167ffffffffffffffff811115613c9d57613c9c6165b4565b5b604051908082528060200260200182016040528015613ccb5781602001602082028036833780820191505090505b5090506000805b6001600088815260200190815260200160002080549050811015613dad57600160008881526020019081526020016000208181548110613d1557613d14616c64565b5b9060005260206000200160009054906101000a900473ffffffffffffffffffffffffffffffffffffffff1673ffffffffffffffffffffffffffffffffffffffff168973ffffffffffffffffffffffffffffffffffffffff1603613da25780838381518110613d8657613d85616c64565b5b602002602001018181525050600182613d9f9190616d62565b91505b806001019050613cd2565b506000811115613f435760005b8251811015613f4157600080848360018751613dd69190616d96565b613de09190616d96565b81518110613df157613df0616c64565b5b6020026020010151915060018060008b815260200190815260200160002080549050613e1d9190616d96565b9050600160008a81526020019081526020016000208181548110613e4457613e43616c64565b5b9060005260206000200160009054906101000a900473ffffffffffffffffffffffffffffffffffffffff16600160008b81526020019081526020016000208381548110613e9457613e93616c64565b5b9060005260206000200160006101000a81548173ffffffffffffffffffffffffffffffffffffffff021916908373ffffffffffffffffffffffffffffffffffffffff160217905550600160008a8152602001908152602001600020805480613eff57613efe616e0f565b5b6001900381819060005260206000200160006101000a81549073ffffffffffffffffffffffffffffffffffffffff021916905590558260010192505050613dba565b505b6000805b600260008881526020019081526020016000208054905081101561400257600260008881526020019081526020016000208181548110613f8a57613f89616c64565b5b9060005260206000200160009054906101000a900473ffffffffffffffffffffffffffffffffffffffff1673ffffffffffffffffffffffffffffffffffffffff168c73ffffffffffffffffffffffffffffffffffffffff1603613ff757600182613ff49190616d62565b91505b806001019050613f47565b5060008167ffffffffffffffff81111561401f5761401e6165b4565b5b60405190808252806020026020018201604052801561404d5781602001602082028036833780820191505090505b5090506000805b600260008a81526020019081526020016000208054905081101561412f57600260008a8152602001908152602001600020818154811061409757614096616c64565b5b9060005260206000200160009054906101000a900473ffffffffffffffffffffffffffffffffffffffff1673ffffffffffffffffffffffffffffffffffffffff168e73ffffffffffffffffffffffffffffffffffffffff1603614124578083838151811061410857614107616c64565b5b6020026020010181815250506001826141219190616d62565b91505b806001019050614054565b5060008111156142c65760005b82518110156142c4576000808483600187516141589190616d96565b6141629190616d96565b8151811061417357614172616c64565b5b602002602001015191506001600260008d8152602001908152602001600020805490506141a09190616d96565b9050600260008c815260200190815260200160002081815481106141c7576141c6616c64565b5b9060005260206000200160009054906101000a900473ffffffffffffffffffffffffffffffffffffffff16600260008d8152602001908152602001600020838154811061421757614216616c64565b5b9060005260206000200160006101000a81548173ffffffffffffffffffffffffffffffffffffffff021916908373ffffffffffffffffffffffffffffffffffffffff160217905550600260008c815260200190815260200160002080548061428257614281616e0f565b5b6001900381819060005260206000200160006101000a81549073ffffffffffffffffffffffffffffffffffffffff02191690559055826001019250505061413c565b505b6003600088815260200190815260200160002060006142e59190615ca9565b8a73ffffffffffffffffffffffffffffffffffffffff168c73ffffffffffffffffffffffffffffffffffffffff168e73ffffffffffffffffffffffffffffffffffffffff167f3fc9853b549d505712a2e247960ed1ec823b23c592b38d4b438cc603c2c55d70338e60405161435b929190616e3e565b60405180910390a450505050505b5050505050505050565b60005481565b614384878785612a60565b614392878686868686610bd8565b8473ffffffffffffffffffffffffffffffffffffffff168773ffffffffffffffffffffffffffffffffffffffff163373ffffffffffffffffffffffffffffffffffffffff167f3660f2984c57dfe2d77b6a3d25a5a622a20793c5264ac0fb4b7d1f9b3e38b7ca8987878760405161440c9493929190616dca565b60405180910390a450505050505050565b60008061442e8584866103e76154ec565b905060006144408585886103e76154ec565b9050600061446687738888888888888888888888888888888888888888886103e76154ec565b9050600061448c877388888888888888888888888888888888888888888a6103e76154ec565b9050600115158415151480156144a6575060011515831515145b156144b857600194505050505061453f565b600115158415151480156144d0575060011515811515145b156144e257600194505050505061453f565b600115158315151480156144fa575060011515821515145b1561450c57600194505050505061453f565b60011515821515148015614524575060011515811515145b1561453657600194505050505061453f565b60009450505050505b9392505050565b600686511061455457600080fd5b60005b86518110156146155761460a87828151811061457657614575616c64565b5b602002602001015187838151811061459157614590616c64565b5b60200260200101518784815181106145ac576145ab616c64565b5b60200260200101518785815181106145c7576145c6616c64565b5b60200260200101518786815181106145e2576145e1616c64565b5b60200260200101518787815181106145fd576145fc616c64565b5b6020026020010151610bd8565b806001019050614557565b50505050505050565b60018203614635576146308382615439565b614691565b600083338460405160200161464c93929190616c93565b604051602081830303815290604052805190602001209050816006600083815260200190815260200160002060006101000a81548160ff021916908315150217905550505b505050565b60608060608060006146a9888888610a5d565b9050600080825167ffffffffffffffff8111156146c9576146c86165b4565b5b6040519080825280602002602001820160405280156146f75781602001602082028036833780820191505090505b50905060008060008086511115614cae5760005b8651811015614797578d8d88838151811061472957614728616c64565b5b60200260200101518e6040516020016147459493929190616c16565b6040516020818303038152906040528051906020012095508585858151811061477157614770616c64565b5b60200260200101818152505060018461478a9190616d62565b935080600101905061470b565b5060005b600185516147a99190616d96565b8110156148405760006001826147bf9190616d62565b90505b8551811015614834578581815181106147de576147dd616c64565b5b60200260200101518683815181106147f9576147f8616c64565b5b6020026020010151036148295785828151811061481957614818616c64565b5b6020026020010160008019168152505b8060010190506147c2565b5080600101905061479b565b5060005b845181101561489657816003600087848151811061486557614864616c64565b5b60200260200101518152602001908152602001600020805490506148899190616d62565b9150806001019050614844565b5060008167ffffffffffffffff8111156148b3576148b26165b4565b5b6040519080825280602002602001820160405280156148e15781602001602082028036833780820191505090505b50905060008267ffffffffffffffff811115614900576148ff6165b4565b5b60405190808252806020026020018201604052801561492e5781602001602082028036833780820191505090505b50905060008367ffffffffffffffff81111561494d5761494c6165b4565b5b60405190808252806020026020018201604052801561497b5781602001602082028036833780820191505090505b50905060008467ffffffffffffffff81111561499a576149996165b4565b5b6040519080825280602002602001820160405280156149c85781602001602082028036833780820191505090505b50905060005b85811015614c92576000600360008b84815181106149ef576149ee616c64565b5b60200260200101518152602001908152602001600020805490501115614c875760005b600360008b8481518110614a2957614a28616c64565b5b6020026020010151815260200190815260200160002080549050811015614c8557600360008b8481518110614a6157614a60616c64565b5b602002602001015181526020019081526020016000208181548110614a8957614a88616c64565b5b906000526020600020906006020160010160009054906101000a900473ffffffffffffffffffffffffffffffffffffffff16868981518110614ace57614acd616c64565b5b602002602001019073ffffffffffffffffffffffffffffffffffffffff16908173ffffffffffffffffffffffffffffffffffffffff1681525050600360008b8481518110614b1f57614b1e616c64565b5b602002602001015181526020019081526020016000208181548110614b4757614b46616c64565b5b906000526020600020906006020160030154838981518110614b6c57614b6b616c64565b5b602002602001018181525050600360008b8481518110614b8f57614b8e616c64565b5b602002602001015181526020019081526020016000208181548110614bb757614bb6616c64565b5b906000526020600020906006020160040160009054906101000a900460ff16848981518110614be957614be8616c64565b5b602002602001019015159081151581525050600360008b8481518110614c1257614c11616c64565b5b602002602001015181526020019081526020016000208181548110614c3a57614c39616c64565b5b906000526020600020906006020160050154858981518110614c5f57614c5e616c64565b5b602002602001018181525050600188614c789190616d62565b9750806001019050614a12565b505b8060010190506149ce565b50838183859d509d509d509d5050505050505050505050614df9565b60008067ffffffffffffffff811115614cca57614cc96165b4565b5b604051908082528060200260200182016040528015614cf85781602001602082028036833780820191505090505b50905060008067ffffffffffffffff811115614d1757614d166165b4565b5b604051908082528060200260200182016040528015614d455781602001602082028036833780820191505090505b50905060008067ffffffffffffffff811115614d6457614d636165b4565b5b604051908082528060200260200182016040528015614d925781602001602082028036833780820191505090505b50905060008067ffffffffffffffff811115614db157614db06165b4565b5b604051908082528060200260200182016040528015614ddf5781602001602082028036833780820191505090505b509050838183859d509d509d509d50505050505050505050505b93509350935093565b60056020528060005260406000206000915054906101000a900460ff1681565b60606000614e318686856132c0565b9050600080825167ffffffffffffffff811115614e5157614e506165b4565b5b604051908082528060200260200182016040528015614e7f5781602001602082028036833780820191505090505b5090506000806000806000875111156153a15760005b8751811015614f2157878181518110614eb157614eb0616c64565b5b60200260200101518c8e8c604051602001614ecf9493929190616c16565b60405160208183030381529060405280519060200120965086868681518110614efb57614efa616c64565b5b602002602001018181525050600185614f149190616d62565b9450806001019050614e95565b5060005b60018651614f339190616d96565b811015614fca576000600182614f499190616d62565b90505b8651811015614fbe57868181518110614f6857614f67616c64565b5b6020026020010151878381518110614f8357614f82616c64565b5b602002602001015103614fb357868281518110614fa357614fa2616c64565b5b6020026020010160008019168152505b806001019050614f4c565b50806001019050614f25565b5060005b8551811015615020578160036000888481518110614fef57614fee616c64565b5b60200260200101518152602001908152602001600020805490506150139190616d62565b9150806001019050614fce565b5060008167ffffffffffffffff81111561503d5761503c6165b4565b5b60405190808252806020026020018201604052801561506b5781602001602082028036833780820191505090505b50905060008267ffffffffffffffff81111561508a576150896165b4565b5b6040519080825280602002602001820160405280156150b85781602001602082028036833780820191505090505b50905060005b8381101561528f576000600360008a84815181106150df576150de616c64565b5b602002602001015181526020019081526020016000208054905011156152845760005b600360008a848151811061511957615118616c64565b5b602002602001015181526020019081526020016000208054905081101561528257600360008a848151811061515157615150616c64565b5b60200260200101518152602001908152602001600020818154811061517957615178616c64565b5b906000526020600020906006020160000160009054906101000a900473ffffffffffffffffffffffffffffffffffffffff168488815181106151be576151bd616c64565b5b602002602001019073ffffffffffffffffffffffffffffffffffffffff16908173ffffffffffffffffffffffffffffffffffffffff1681525050600360008a848151811061520f5761520e616c64565b5b60200260200101518152602001908152602001600020818154811061523757615236616c64565b5b90600052602060002090600602016003015483888151811061525c5761525b616c64565b5b6020026020010181815250506001876152759190616d62565b9650806001019050615102565b505b8060010190506150be565b506000815167ffffffffffffffff8111156152ad576152ac6165b4565b5b6040519080825280602002602001820160405280156152db5781602001602082028036833780820191505090505b50905060005b8481101561538e578d8382815181106152fd576152fc616c64565b5b602002602001015111156153835783818151811061531e5761531d616c64565b5b602002602001015182878151811061533957615338616c64565b5b602002602001019073ffffffffffffffffffffffffffffffffffffffff16908173ffffffffffffffffffffffffffffffffffffffff16815250506001866153809190616d62565b95505b8060010190506152e1565b50809a50505050505050505050506153fa565b60008067ffffffffffffffff8111156153bd576153bc6165b4565b5b6040519080825280602002602001820160405280156153eb5781602001602082028036833780820191505090505b50905080985050505050505050505b949350505050565b60016000546154119190616d62565b600081905550565b60066020528060005260406000206000915054906101000a900460ff1681565b73888888888888888888888888888888888888888873ffffffffffffffffffffffffffffffffffffffff168273ffffffffffffffffffffffffffffffffffffffff160361548e57615489816112c3565b6154e8565b600082336040516020016154a3929190616cd0565b604051602081830303815290604052805190602001209050816005600083815260200190815260200160002060006101000a81548160ff021916908315150217905550505b5050565b600080858585856040516020016155069493929190616c16565b6040516020818303038152906040528051906020012090506000600360008381526020019081526020016000208054905011915050949350505050565b6002602052816000526040600020818154811061555f57600080fd5b906000526020600020016000915091509054906101000a900473ffffffffffffffffffffffffffffffffffffffff1681565b606060006155a0868685610a5d565b9050600080825167ffffffffffffffff8111156155c0576155bf6165b4565b5b6040519080825280602002602001820160405280156155ee5781602001602082028036833780820191505090505b509050600080600080600087511115615b105760005b8751811015615690578c8c89838151811061562257615621616c64565b5b60200260200101518c60405160200161563e9493929190616c16565b6040516020818303038152906040528051906020012096508686868151811061566a57615669616c64565b5b6020026020010181815250506001856156839190616d62565b9450806001019050615604565b5060005b600186516156a29190616d96565b8110156157395760006001826156b89190616d62565b90505b865181101561572d578681815181106156d7576156d6616c64565b5b60200260200101518783815181106156f2576156f1616c64565b5b6020026020010151036157225786828151811061571257615711616c64565b5b6020026020010160008019168152505b8060010190506156bb565b50806001019050615694565b5060005b855181101561578f57816003600088848151811061575e5761575d616c64565b5b60200260200101518152602001908152602001600020805490506157829190616d62565b915080600101905061573d565b5060008167ffffffffffffffff8111156157ac576157ab6165b4565b5b6040519080825280602002602001820160405280156157da5781602001602082028036833780820191505090505b50905060008267ffffffffffffffff8111156157f9576157f86165b4565b5b6040519080825280602002602001820160405280156158275781602001602082028036833780820191505090505b50905060005b838110156159fe576000600360008a848151811061584e5761584d616c64565b5b602002602001015181526020019081526020016000208054905011156159f35760005b600360008a848151811061588857615887616c64565b5b60200260200101518152602001908152602001600020805490508110156159f157600360008a84815181106158c0576158bf616c64565b5b6020026020010151815260200190815260200160002081815481106158e8576158e7616c64565b5b906000526020600020906006020160010160009054906101000a900473ffffffffffffffffffffffffffffffffffffffff1684888151811061592d5761592c616c64565b5b602002602001019073ffffffffffffffffffffffffffffffffffffffff16908173ffffffffffffffffffffffffffffffffffffffff1681525050600360008a848151811061597e5761597d616c64565b5b6020026020010151815260200190815260200160002081815481106159a6576159a5616c64565b5b9060005260206000209060060201600301548388815181106159cb576159ca616c64565b5b6020026020010181815250506001876159e49190616d62565b9650806001019050615871565b505b80600101905061582d565b506000815167ffffffffffffffff811115615a1c57615a1b6165b4565b5b604051908082528060200260200182016040528015615a4a5781602001602082028036833780820191505090505b50905060005b84811015615afd578d838281518110615a6c57615a6b616c64565b5b60200260200101511115615af257838181518110615a8d57615a8c616c64565b5b6020026020010151828781518110615aa857615aa7616c64565b5b602002602001019073ffffffffffffffffffffffffffffffffffffffff16908173ffffffffffffffffffffffffffffffffffffffff1681525050600186615aef9190616d62565b95505b806001019050615a50565b50809a5050505050505050505050615b69565b60008067ffffffffffffffff811115615b2c57615b2b6165b4565b5b604051908082528060200260200182016040528015615b5a5781602001602082028036833780820191505090505b50905080985050505050505050505b949350505050565b60046020528060005260406000206000915054906101000a900460ff1681565b6000600460008373ffffffffffffffffffffffffffffffffffffffff1673ffffffffffffffffffffffffffffffffffffffff16815260200190815260200160002060009054906101000a900460ff169050919050565b60008085858585604051602001615c019493929190616c16565b60405160208183030381529060405280519060200120905080915050949350505050565b6006835110615c3357600080fd5b60005b8351811015615ca357615c98848281518110615c5557615c54616c64565b5b6020026020010151848381518110615c7057615c6f616c64565b5b6020026020010151848481518110615c8b57615c8a616c64565b5b6020026020010151612a60565b806001019050615c36565b50505050565b5080546000825560060290600052602060002090810190615cca9190615ccd565b50565b5b80821115615d5a57600080820160006101000a81549073ffffffffffffffffffffffffffffffffffffffff02191690556001820160006101000a81549073ffffffffffffffffffffffffffffffffffffffff0219169055600282016000905560038201600090556004820160006101000a81549060ff0219169055600582016000905550600601615cce565b5090565b6000604051905090565b600080fd5b600080fd5b6000819050919050565b615d8581615d72565b8114615d9057600080fd5b50565b600081359050615da281615d7c565b92915050565b6000819050919050565b615dbb81615da8565b8114615dc657600080fd5b50565b600081359050615dd881615db2565b92915050565b60008060408385031215615df557615df4615d68565b5b6000615e0385828601615d93565b9250506020615e1485828601615dc9565b9150509250929050565b600073ffffffffffffffffffffffffffffffffffffffff82169050919050565b6000615e4982615e1e565b9050919050565b615e5981615e3e565b82525050565b6000602082019050615e746000830184615e50565b92915050565b615e8381615e3e565b8114615e8e57600080fd5b50565b600081359050615ea081615e7a565b92915050565b600080600080600060a08688031215615ec257615ec1615d68565b5b6000615ed088828901615e91565b9550506020615ee188828901615e91565b9450506040615ef288828901615e91565b9350506060615f0388828901615dc9565b9250506080615f1488828901615dc9565b9150509295509295909350565b60008115159050919050565b615f3681615f21565b82525050565b6000602082019050615f516000830184615f2d565b92915050565b600080600060608486031215615f7057615f6f615d68565b5b6000615f7e86828701615e91565b9350506020615f8f86828701615e91565b9250506040615fa086828701615dc9565b9150509250925092565b600081519050919050565b600082825260208201905092915050565b6000819050602082019050919050565b615fdf81615e3e565b82525050565b6000615ff18383615fd6565b60208301905092915050565b6000602082019050919050565b600061601582615faa565b61601f8185615fb5565b935061602a83615fc6565b8060005b8381101561605b5781516160428882615fe5565b975061604d83615ffd565b92505060018101905061602e565b5085935050505092915050565b60006020820190508181036000830152616082818461600a565b905092915050565b61609381615f21565b811461609e57600080fd5b50565b6000813590506160b08161608a565b92915050565b60008060008060008060c087890312156160d3576160d2615d68565b5b60006160e189828a01615e91565b96505060206160f289828a01615e91565b955050604061610389828a01615dc9565b945050606061611489828a01615dc9565b935050608061612589828a016160a1565b92505060a061613689828a01615dc9565b9150509295509295509295565b60006020828403121561615957616158615d68565b5b6000616167848285016160a1565b91505092915050565b61617981615da8565b82525050565b600060c0820190506161946000830189615e50565b6161a16020830188615e50565b6161ae6040830187616170565b6161bb6060830186616170565b6161c86080830185615f2d565b6161d560a0830184616170565b979650505050505050565b600081519050919050565b600082825260208201905092915050565b6000819050602082019050919050565b61621581615da8565b82525050565b6000616227838361620c565b60208301905092915050565b6000602082019050919050565b600061624b826161e0565b61625581856161eb565b9350616260836161fc565b8060005b83811015616291578151616278888261621b565b975061628383616233565b925050600181019050616264565b5085935050505092915050565b600081519050919050565b600082825260208201905092915050565b6000819050602082019050919050565b6162d381615f21565b82525050565b60006162e583836162ca565b60208301905092915050565b6000602082019050919050565b60006163098261629e565b61631381856162a9565b935061631e836162ba565b8060005b8381101561634f57815161633688826162d9565b9750616341836162f1565b925050600181019050616322565b5085935050505092915050565b60006080820190508181036000830152616376818761600a565b9050818103602083015261638a8186616240565b9050818103604083015261639e81856162fe565b905081810360608301526163b28184616240565b905095945050505050565b600080600080600080600060e0888a0312156163dc576163db615d68565b5b60006163ea8a828b01615e91565b97505060206163fb8a828b01615e91565b965050604061640c8a828b01615e91565b955050606061641d8a828b01615dc9565b945050608061642e8a828b01615dc9565b93505060a061643f8a828b016160a1565b92505060c06164508a828b01615dc9565b91505092959891949750929550565b6000806040838503121561647657616475615d68565b5b600061648485828601615e91565b925050602061649585828601615e91565b9150509250929050565b6000806000606084860312156164b8576164b7615d68565b5b60006164c686828701615e91565b93505060206164d786828701615e91565b92505060406164e886828701615e91565b9150509250925092565b6000806000806080858703121561650c5761650b615d68565b5b600061651a87828801615e91565b945050602061652b87828801615e91565b935050604061653c87828801615e91565b925050606061654d87828801615dc9565b91505092959194509250565b61656281615d72565b82525050565b600060208201905061657d6000830184616559565b92915050565b60006020820190506165986000830184616170565b92915050565b600080fd5b6000601f19601f8301169050919050565b7f4e487b7100000000000000000000000000000000000000000000000000000000600052604160045260246000fd5b6165ec826165a3565b810181811067ffffffffffffffff8211171561660b5761660a6165b4565b5b80604052505050565b600061661e615d5e565b905061662a82826165e3565b919050565b600067ffffffffffffffff82111561664a576166496165b4565b5b602082029050602081019050919050565b600080fd5b600061667361666e8461662f565b616614565b905080838252602082019050602084028301858111156166965761669561665b565b5b835b818110156166bf57806166ab8882615e91565b845260208401935050602081019050616698565b5050509392505050565b600082601f8301126166de576166dd61659e565b5b81356166ee848260208601616660565b91505092915050565b600067ffffffffffffffff821115616712576167116165b4565b5b602082029050602081019050919050565b6000616736616731846166f7565b616614565b905080838252602082019050602084028301858111156167595761675861665b565b5b835b81811015616782578061676e8882615dc9565b84526020840193505060208101905061675b565b5050509392505050565b600082601f8301126167a1576167a061659e565b5b81356167b1848260208601616723565b91505092915050565b600067ffffffffffffffff8211156167d5576167d46165b4565b5b602082029050602081019050919050565b60006167f96167f4846167ba565b616614565b9050808382526020820190506020840283018581111561681c5761681b61665b565b5b835b81811015616845578061683188826160a1565b84526020840193505060208101905061681e565b5050509392505050565b600082601f8301126168645761686361659e565b5b81356168748482602086016167e6565b91505092915050565b60008060008060008060c0878903121561689a57616899615d68565b5b600087013567ffffffffffffffff8111156168b8576168b7615d6d565b5b6168c489828a016166c9565b965050602087013567ffffffffffffffff8111156168e5576168e4615d6d565b5b6168f189828a016166c9565b955050604087013567ffffffffffffffff81111561691257616911615d6d565b5b61691e89828a0161678c565b945050606087013567ffffffffffffffff81111561693f5761693e615d6d565b5b61694b89828a0161678c565b935050608087013567ffffffffffffffff81111561696c5761696b615d6d565b5b61697889828a0161684f565b92505060a087013567ffffffffffffffff81111561699957616998615d6d565b5b6169a589828a0161678c565b9150509295509295509295565b6000806000606084860312156169cb576169ca615d68565b5b60006169d986828701615e91565b93505060206169ea86828701615dc9565b92505060406169fb868287016160a1565b9150509250925092565b600060208284031215616a1b57616a1a615d68565b5b6000616a2984828501615d93565b91505092915050565b60008060008060808587031215616a4c57616a4b615d68565b5b6000616a5a87828801615e91565b9450506020616a6b87828801615e91565b9350506040616a7c87828801615dc9565b9250506060616a8d87828801615dc9565b91505092959194509250565b60008060408385031215616ab057616aaf615d68565b5b6000616abe85828601615e91565b9250506020616acf858286016160a1565b9150509250929050565b600060208284031215616aef57616aee615d68565b5b6000616afd84828501615e91565b91505092915050565b600080600060608486031215616b1f57616b1e615d68565b5b600084013567ffffffffffffffff811115616b3d57616b3c615d6d565b5b616b49868287016166c9565b935050602084013567ffffffffffffffff811115616b6a57616b69615d6d565b5b616b76868287016166c9565b925050604084013567ffffffffffffffff811115616b9757616b96615d6d565b5b616ba38682870161678c565b9150509250925092565b60008160601b9050919050565b6000616bc582616bad565b9050919050565b6000616bd782616bba565b9050919050565b616bef616bea82615e3e565b616bcc565b82525050565b6000819050919050565b616c10616c0b82615da8565b616bf5565b82525050565b6000616c228287616bde565b601482019150616c328286616bde565b601482019150616c428285616bde565b601482019150616c528284616bff565b60208201915081905095945050505050565b7f4e487b7100000000000000000000000000000000000000000000000000000000600052603260045260246000fd5b6000616c9f8286616bde565b601482019150616caf8285616bde565b601482019150616cbf8284616bff565b602082019150819050949350505050565b6000616cdc8285616bde565b601482019150616cec8284616bde565b6014820191508190509392505050565b6000606082019050616d116000830186616170565b616d1e6020830185615f2d565b616d2b6040830184616170565b949350505050565b7f4e487b7100000000000000000000000000000000000000000000000000000000600052601160045260246000fd5b6000616d6d82615da8565b9150616d7883615da8565b9250828201905080821115616d9057616d8f616d33565b5b92915050565b6000616da182615da8565b9150616dac83615da8565b9250828203905081811115616dc457616dc3616d33565b5b92915050565b6000608082019050616ddf6000830187615e50565b616dec6020830186616170565b616df96040830185615f2d565b616e066060830184616170565b95945050505050565b7f4e487b7100000000000000000000000000000000000000000000000000000000600052603160045260246000fd5b6000604082019050616e536000830185615e50565b616e606020830184616170565b939250505056fea2646970667358221220162c42f57ae5a4a6d2af2f10c5d98c21010735af30e31fce1e6182a071c1063c64736f6c63430008130033","linkReferences":{}},"methodIdentifiers":{"batchDelegations(address[],address[],uint256[],uint256[],bool[],uint256[])":"9bccd56c","batchRevocations(address[],address[],uint256[])":"f793b96e","checkConsolidationStatus(address,address,address)":"8bb60cb6","collectionLock(bytes32)":"b2f60eec","collectionUsecaseLock(bytes32)":"d141baae","delegationAddressHashes(bytes32,uint256)":"db143239","delegatorHashes(bytes32,uint256)":"15542400","globalDelegationHashes(bytes32,uint256)":"46edce67","globalLock(address)":"ec0c95ee","registerDelegationAddress(address,address,uint256,uint256,bool,uint256)":"2a243ce7","registerDelegationAddressUsingSubDelegation(address,address,address,uint256,uint256,bool,uint256)":"4b402f27","retrieveActiveDelegations(address,address,uint256,uint256)":"ea63eedc","retrieveActiveDelegators(address,address,uint256,uint256)":"c7cc4bb4","retrieveCollectionLockStatus(address,address)":"5d44c776","retrieveCollectionUseCaseLockStatus(address,address,uint256)":"6ff56513","retrieveCollectionUseCaseLockStatusOneCall(address,address,uint256)":"36ddecfb","retrieveDelegationAddressStatusOfDelegation(address,address,uint256)":"2c96e0d9","retrieveDelegationAddresses(address,address,uint256)":"22b613ef","retrieveDelegationAddressesTokensIDsandExpiredDates(address,address,uint256)":"aa3e650a","retrieveDelegatorStatusOfDelegation(address,address,uint256)":"3b995952","retrieveDelegators(address,address,uint256)":"6cfcae20","retrieveDelegatorsTokensIDsandExpiredDates(address,address,uint256)":"4b1fe249","retrieveGlobalHash(address,address,address,uint256)":"f5b986df","retrieveGlobalLockStatus(address)":"ec699beb","retrieveGlobalStatusOfDelegation(address,address,address,uint256)":"d986ff6d","retrieveLocalHash(address,address,uint256)":"7d20ab74","retrieveMostRecentDelegation(address,address,uint256)":"73aedfff","retrieveMostRecentDelegator(address,address,uint256)":"3465ef11","retrieveStatusOfActiveDelegator(address,address,address,uint256,uint256)":"234dd639","retrieveStatusOfMostRecentDelegation(address,address,address,uint256)":"782740d5","retrieveSubDelegationStatus(address,address,address)":"5e5b57a2","retrieveTokenStatus(address,address,address,uint256,uint256)":"16eca993","revokeDelegationAddress(address,address,uint256)":"66ff484d","revokeDelegationAddressUsingSubdelegation(address,address,address,uint256)":"7ed01e12","setCollectionLock(address,bool)":"d6a0a3d5","setCollectionUsecaseLock(address,uint256,bool)":"a4fa0303","setGlobalLock(bool)":"319a9395","updateDelegationAddress(address,address,address,uint256,uint256,bool,uint256)":"850e8e06","updateUseCaseCounter()":"ccc4f4a4","useCaseCounter()":"7f1a2fdf"},"id":2}