{"abi":[{"type":"constructor","inputs":[{"name":"_adminsContract","type":"address","internalType":"address"}],"stateMutability":"nonpayable"},{"type":"function","name":"addDependency","inputs":[{"name":"_collectionDependencyName","type":"bytes32","internalType":"bytes32"},{"name":"_libraryScript","type":"string[]","internalType":"string[]"}],"outputs":[],"stateMutability":"nonpayable"},{"type":"function","name":"addDependencyScriptIndex","inputs":[{"name":"_collectionDependencyName","type":"bytes32","internalType":"bytes32"},{"name":"index","type":"uint256","internalType":"uint256"},{"name":"_libraryScript","type":"string","internalType":"string"}],"outputs":[],"stateMutability":"nonpayable"},{"type":"function","name":"getDependencyScript","inputs":[{"name":"dependencyNameAndVersion","type":"bytes32","internalType":"bytes32"},{"name":"index","type":"uint256","internalType":"uint256"}],"outputs":[{"name":"","type":"string","internalType":"string"}],"stateMutability":"view"},{"type":"function","name":"getDependencyScriptCount","inputs":[{"name":"dependencyNameAndVersion","type":"bytes32","internalType":"bytes32"}],"outputs":[{"name":"","type":"uint256","internalType":"uint256"}],"stateMutability":"view"},{"type":"function","name":"updateAdminContract","inputs":[{"name":"_newadminsContract","type":"address","internalType":"address"}],"outputs":[],"stateMutability":"nonpayable"}],"bytecode":{"object":"0x60806040523480156200001157600080fd5b506040516200148d3803806200148d8339818101604052810190620000379190620000e9565b80600160006101000a81548173ffffffffffffffffffffffffffffffffffffffff021916908373ffffffffffffffffffffffffffffffffffffffff160217905550506200011b565b600080fd5b600073ffffffffffffffffffffffffffffffffffffffff82169050919050565b6000620000b18262000084565b9050919050565b620000c381620000a4565b8114620000cf57600080fd5b50565b600081519050620000e381620000b8565b92915050565b6000602082840312156200010257620001016200007f565b5b60006200011284828501620000d2565b91505092915050565b611362806200012b6000396000f3fe608060405234801561001057600080fd5b50600436106100575760003560e01c8063388d2c241461005c578063518cb3df146100785780635668bc5e146100a8578063894f23b9146100d8578063d3d2f5c9146100f4575b600080fd5b6100766004803603810190610071919061098c565b610110565b005b610092600480360381019061008d9190610a25565b6103a0565b60405161009f9190610af5565b60405180910390f35b6100c260048036038101906100bd9190610b17565b610464565b6040516100cf9190610b53565b60405180910390f35b6100f260048036038101906100ed9190610d89565b610486565b005b61010e60048036038101906101099190610de5565b610665565b005b63388d2c2460e01b60011515600160009054906101000a900473ffffffffffffffffffffffffffffffffffffffff1673ffffffffffffffffffffffffffffffffffffffff1663feb2e23333846040518363ffffffff1660e01b8152600401610179929190610e9e565b602060405180830381865afa158015610196573d6000803e3d6000fd5b505050506040513d601f19601f820116820180604052508101906101ba9190610eff565b15151480610267575060011515600160009054906101000a900473ffffffffffffffffffffffffffffffffffffffff1673ffffffffffffffffffffffffffffffffffffffff1663b3076d55336040518263ffffffff1660e01b81526004016102229190610f2c565b602060405180830381865afa15801561023f573d6000803e3d6000fd5b505050506040513d601f19601f820116820180604052508101906102639190610eff565b1515145b6102a6576040517f08c379a000000000000000000000000000000000000000000000000000000000815260040161029d90610f93565b60405180910390fd5b600115158273ffffffffffffffffffffffffffffffffffffffff16639068edac6040518163ffffffff1660e01b8152600401602060405180830381865afa1580156102f5573d6000803e3d6000fd5b505050506040513d601f19601f820116820180604052508101906103199190610eff565b15151461035b576040517f08c379a000000000000000000000000000000000000000000000000000000000815260040161035290610fff565b60405180910390fd5b81600160006101000a81548173ffffffffffffffffffffffffffffffffffffffff021916908373ffffffffffffffffffffffffffffffffffffffff1602179055505050565b606060008084815260200190815260200160002060010182815481106103c9576103c861101f565b5b9060005260206000200180546103de9061107d565b80601f016020809104026020016040519081016040528092919081815260200182805461040a9061107d565b80156104575780601f1061042c57610100808354040283529160200191610457565b820191906000526020600020905b81548152906001019060200180831161043a57829003601f168201915b5050505050905092915050565b6000806000838152602001908152602001600020600101805490509050919050565b63894f23b960e01b60011515600160009054906101000a900473ffffffffffffffffffffffffffffffffffffffff1673ffffffffffffffffffffffffffffffffffffffff1663feb2e23333846040518363ffffffff1660e01b81526004016104ef929190610e9e565b602060405180830381865afa15801561050c573d6000803e3d6000fd5b505050506040513d601f19601f820116820180604052508101906105309190610eff565b151514806105dd575060011515600160009054906101000a900473ffffffffffffffffffffffffffffffffffffffff1673ffffffffffffffffffffffffffffffffffffffff1663b3076d55336040518263ffffffff1660e01b81526004016105989190610f2c565b602060405180830381865afa1580156105b5573d6000803e3d6000fd5b505050506040513d601f19601f820116820180604052508101906105d99190610eff565b1515145b61061c576040517f08c379a000000000000000000000000000000000000000000000000000000000815260040161061390610f93565b60405180910390fd5b826000808581526020019081526020016000206000018190555081600080858152602001908152602001600020600101908051906020019061065f929190610840565b50505050565b63d3d2f5c960e01b60011515600160009054906101000a900473ffffffffffffffffffffffffffffffffffffffff1673ffffffffffffffffffffffffffffffffffffffff1663feb2e23333846040518363ffffffff1660e01b81526004016106ce929190610e9e565b602060405180830381865afa1580156106eb573d6000803e3d6000fd5b505050506040513d601f19601f8201168201806040525081019061070f9190610eff565b151514806107bc575060011515600160009054906101000a900473ffffffffffffffffffffffffffffffffffffffff1673ffffffffffffffffffffffffffffffffffffffff1663b3076d55336040518263ffffffff1660e01b81526004016107779190610f2c565b602060405180830381865afa158015610794573d6000803e3d6000fd5b505050506040513d601f19601f820116820180604052508101906107b89190610eff565b1515145b6107fb576040517f08c379a00000000000000000000000000000000000000000000000000000000081526004016107f290610f93565b60405180910390fd5b8160008086815260200190815260200160002060010184815481106108235761082261101f565b5b906000526020600020019081610839919061125a565b5050505050565b828054828255906000526020600020908101928215610888579160200282015b82811115610887578251829081610877919061125a565b5091602001919060010190610860565b5b5090506108959190610899565b5090565b5b808211156108b957600081816108b091906108bd565b5060010161089a565b5090565b5080546108c99061107d565b6000825580601f106108db57506108fa565b601f0160209004906000526020600020908101906108f991906108fd565b5b50565b5b808211156109165760008160009055506001016108fe565b5090565b6000604051905090565b600080fd5b600080fd5b600073ffffffffffffffffffffffffffffffffffffffff82169050919050565b60006109598261092e565b9050919050565b6109698161094e565b811461097457600080fd5b50565b60008135905061098681610960565b92915050565b6000602082840312156109a2576109a1610924565b5b60006109b084828501610977565b91505092915050565b6000819050919050565b6109cc816109b9565b81146109d757600080fd5b50565b6000813590506109e9816109c3565b92915050565b6000819050919050565b610a02816109ef565b8114610a0d57600080fd5b50565b600081359050610a1f816109f9565b92915050565b60008060408385031215610a3c57610a3b610924565b5b6000610a4a858286016109da565b9250506020610a5b85828601610a10565b9150509250929050565b600081519050919050565b600082825260208201905092915050565b60005b83811015610a9f578082015181840152602081019050610a84565b60008484015250505050565b6000601f19601f8301169050919050565b6000610ac782610a65565b610ad18185610a70565b9350610ae1818560208601610a81565b610aea81610aab565b840191505092915050565b60006020820190508181036000830152610b0f8184610abc565b905092915050565b600060208284031215610b2d57610b2c610924565b5b6000610b3b848285016109da565b91505092915050565b610b4d816109ef565b82525050565b6000602082019050610b686000830184610b44565b92915050565b600080fd5b7f4e487b7100000000000000000000000000000000000000000000000000000000600052604160045260246000fd5b610bab82610aab565b810181811067ffffffffffffffff82111715610bca57610bc9610b73565b5b80604052505050565b6000610bdd61091a565b9050610be98282610ba2565b919050565b600067ffffffffffffffff821115610c0957610c08610b73565b5b602082029050602081019050919050565b600080fd5b600080fd5b600067ffffffffffffffff821115610c3f57610c3e610b73565b5b610c4882610aab565b9050602081019050919050565b82818337600083830152505050565b6000610c77610c7284610c24565b610bd3565b905082815260208101848484011115610c9357610c92610c1f565b5b610c9e848285610c55565b509392505050565b600082601f830112610cbb57610cba610b6e565b5b8135610ccb848260208601610c64565b91505092915050565b6000610ce7610ce284610bee565b610bd3565b90508083825260208201905060208402830185811115610d0a57610d09610c1a565b5b835b81811015610d5157803567ffffffffffffffff811115610d2f57610d2e610b6e565b5b808601610d3c8982610ca6565b85526020850194505050602081019050610d0c565b5050509392505050565b600082601f830112610d7057610d6f610b6e565b5b8135610d80848260208601610cd4565b91505092915050565b60008060408385031215610da057610d9f610924565b5b6000610dae858286016109da565b925050602083013567ffffffffffffffff811115610dcf57610dce610929565b5b610ddb85828601610d5b565b9150509250929050565b600080600060608486031215610dfe57610dfd610924565b5b6000610e0c868287016109da565b9350506020610e1d86828701610a10565b925050604084013567ffffffffffffffff811115610e3e57610e3d610929565b5b610e4a86828701610ca6565b9150509250925092565b610e5d8161094e565b82525050565b60007fffffffff0000000000000000000000000000000000000000000000000000000082169050919050565b610e9881610e63565b82525050565b6000604082019050610eb36000830185610e54565b610ec06020830184610e8f565b9392505050565b60008115159050919050565b610edc81610ec7565b8114610ee757600080fd5b50565b600081519050610ef981610ed3565b92915050565b600060208284031215610f1557610f14610924565b5b6000610f2384828501610eea565b91505092915050565b6000602082019050610f416000830184610e54565b92915050565b7f4e6f7420616c6c6f776564000000000000000000000000000000000000000000600082015250565b6000610f7d600b83610a70565b9150610f8882610f47565b602082019050919050565b60006020820190508181036000830152610fac81610f70565b9050919050565b7f436f6e7472616374206973206e6f742041646d696e0000000000000000000000600082015250565b6000610fe9601583610a70565b9150610ff482610fb3565b602082019050919050565b6000602082019050818103600083015261101881610fdc565b9050919050565b7f4e487b7100000000000000000000000000000000000000000000000000000000600052603260045260246000fd5b7f4e487b7100000000000000000000000000000000000000000000000000000000600052602260045260246000fd5b6000600282049050600182168061109557607f821691505b6020821081036110a8576110a761104e565b5b50919050565b60008190508160005260206000209050919050565b60006020601f8301049050919050565b600082821b905092915050565b6000600883026111107fffffffffffffffffffffffffffffffffffffffffffffffffffffffffffffffff826110d3565b61111a86836110d3565b95508019841693508086168417925050509392505050565b6000819050919050565b600061115761115261114d846109ef565b611132565b6109ef565b9050919050565b6000819050919050565b6111718361113c565b61118561117d8261115e565b8484546110e0565b825550505050565b600090565b61119a61118d565b6111a5818484611168565b505050565b5b818110156111c9576111be600082611192565b6001810190506111ab565b5050565b601f82111561120e576111df816110ae565b6111e8846110c3565b810160208510156111f7578190505b61120b611203856110c3565b8301826111aa565b50505b505050565b600082821c905092915050565b600061123160001984600802611213565b1980831691505092915050565b600061124a8383611220565b9150826002028217905092915050565b61126382610a65565b67ffffffffffffffff81111561127c5761127b610b73565b5b611286825461107d565b6112918282856111cd565b600060209050601f8311600181146112c457600084156112b2578287015190505b6112bc858261123e565b865550611324565b601f1984166112d2866110ae565b60005b828110156112fa578489015182556001820191506020850194506020810190506112d5565b868310156113175784890151611313601f891682611220565b8355505b6001600288020188555050505b50505050505056fea2646970667358221220a6be5b756ad8c6b6df46c6c29cbcdc2cf303fde25f9b194cb044568d90d1e3f264736f6c63430008130033","linkReferences":{}},"methodIdentifiers":{"addDependency(bytes32,string[])":"894f23b9","addDependencyScriptIndex(bytes32,uint256,string)":"d3d2f5c9","getDependencyScript(bytes32,uint256)":"518cb3df","getDependencyScriptCount(bytes32)":"5668bc5e","updateAdminContract(address)":"388d2c24"},"id":1}