{"abi":[{"type":"constructor","inputs":[{"name":"_tdhSigner","type":"address","internalType":"address"}],"stateMutability":"nonpayable"},{"type":"function","name":"adminPermissions","inputs":[{"name":"","type":"address","internalType":"address"}],"outputs":[{"name":"","type":"bool","internalType":"bool"}],"stateMutability":"view"},{"type":"function","name":"isAdminContract","inputs":[],"outputs":[{"name":"","type":"bool","internalType":"bool"}],"stateMutability":"view"},{"type":"function","name":"owner","inputs":[],"outputs":[{"name":"","type":"address","internalType":"address"}],"stateMutability":"view"},{"type":"function","name":"registerAdmin","inputs":[{"name":"_admin","type":"address","internalType":"address"},{"name":"_status","type":"bool","internalType":"bool"}],"outputs":[],"stateMutability":"nonpayable"},{"type":"function","name":"registerBatchFunctionAdmin","inputs":[{"name":"_address","type":"address","internalType":"address"},{"name":"_selector","type":"bytes4[]","internalType":"bytes4[]"},{"name":"_status","type":"bool","internalType":"bool"}],"outputs":[],"stateMutability":"nonpayable"},{"type":"function","name":"registerFunctionAdmin","inputs":[{"name":"_address","type":"address","internalType":"address"},{"name":"_selector","type":"bytes4","internalType":"bytes4"},{"name":"_status","type":"bool","internalType":"bool"}],"outputs":[],"stateMutability":"nonpayable"},{"type":"function","name":"renounceOwnership","inputs":[],"outputs":[],"stateMutability":"nonpayable"},{"type":"function","name":"retrieveFunctionAdmin","inputs":[{"name":"_address","type":"address","internalType":"address"},{"name":"_selector","type":"bytes4","internalType":"bytes4"}],"outputs":[{"name":"","type":"bool","internalType":"bool"}],"stateMutability":"view"},{"type":"function","name":"retrieveGlobalAdmin","inputs":[{"name":"_address","type":"address","internalType":"address"}],"outputs":[{"name":"","type":"bool","internalType":"bool"}],"stateMutability":"view"},{"type":"function","name":"tdhSigner","inputs":[],"outputs":[{"name":"","type":"address","internalType":"address"}],"stateMutability":"view"},{"type":"function","name":"transferOwnership","inputs":[{"name":"newOwner","type":"address","internalType":"address"}],"outputs":[],"stateMutability":"nonpayable"},{"type":"event","name":"OwnershipTransferred","inputs":[{"name":"previousOwner","type":"address","indexed":true,"internalType":"address"},{"name":"newOwner","type":"address","indexed":true,"internalType":"address"}],"anonymous":false}],"bytecode":{"object":"0x60806040523480156200001157600080fd5b50604051620012113803806200121183398181016040528101906200003791906200024e565b620000576200004b6200011860201b60201c565b6200012060201b60201c565b80600360006101000a81548173ffffffffffffffffffffffffffffffffffffffff021916908373ffffffffffffffffffffffffffffffffffffffff1602179055506001806000600360009054906101000a900473ffffffffffffffffffffffffffffffffffffffff1673ffffffffffffffffffffffffffffffffffffffff1673ffffffffffffffffffffffffffffffffffffffff16815260200190815260200160002060006101000a81548160ff0219169083151502179055505062000280565b600033905090565b60008060009054906101000a900473ffffffffffffffffffffffffffffffffffffffff169050816000806101000a81548173ffffffffffffffffffffffffffffffffffffffff021916908373ffffffffffffffffffffffffffffffffffffffff1602179055508173ffffffffffffffffffffffffffffffffffffffff168173ffffffffffffffffffffffffffffffffffffffff167f8be0079c531659141344cd1fd0a4f28419497f9722a3daafe3b4186f6b6457e060405160405180910390a35050565b600080fd5b600073ffffffffffffffffffffffffffffffffffffffff82169050919050565b60006200021682620001e9565b9050919050565b620002288162000209565b81146200023457600080fd5b50565b60008151905062000248816200021d565b92915050565b600060208284031215620002675762000266620001e4565b5b6000620002778482850162000237565b91505092915050565b610f8180620002906000396000f3fe608060405234801561001057600080fd5b50600436106100a95760003560e01c8063b3076d5511610071578063b3076d5514610140578063d21992db14610170578063e5ad621d1461018c578063efe11c35146101a8578063f2fde38b146101c6578063feb2e233146101e2576100a9565b8063715018a6146100ae5780638da5cb5b146100b85780639068edac146100d657806390a9b86c146100f4578063ad278c1514610124575b600080fd5b6100b6610212565b005b6100c0610226565b6040516100cd9190610943565b60405180910390f35b6100de61024f565b6040516100eb9190610979565b60405180910390f35b61010e600480360381019061010991906109d4565b610258565b60405161011b9190610979565b60405180910390f35b61013e60048036038101906101399190610a85565b610278565b005b61015a600480360381019061015591906109d4565b6103b3565b6040516101679190610979565b60405180910390f35b61018a60048036038101906101859190610c31565b610409565b005b6101a660048036038101906101a19190610ca0565b61057e565b005b6101b0610669565b6040516101bd9190610943565b60405180910390f35b6101e060048036038101906101db91906109d4565b61068f565b005b6101fc60048036038101906101f79190610ce0565b610712565b6040516102099190610979565b60405180910390f35b61021a6107b8565b6102246000610836565b565b60008060009054906101000a900473ffffffffffffffffffffffffffffffffffffffff16905090565b60006001905090565b60016020528060005260406000206000915054906101000a900460ff1681565b600360009054906101000a900473ffffffffffffffffffffffffffffffffffffffff1673ffffffffffffffffffffffffffffffffffffffff163373ffffffffffffffffffffffffffffffffffffffff1614610308576040517f08c379a00000000000000000000000000000000000000000000000000000000081526004016102ff90610d7d565b60405180910390fd5b80600260008573ffffffffffffffffffffffffffffffffffffffff1673ffffffffffffffffffffffffffffffffffffffff1681526020019081526020016000206000847bffffffffffffffffffffffffffffffffffffffffffffffffffffffff19167bffffffffffffffffffffffffffffffffffffffffffffffffffffffff1916815260200190815260200160002060006101000a81548160ff021916908315150217905550505050565b6000600160008373ffffffffffffffffffffffffffffffffffffffff1673ffffffffffffffffffffffffffffffffffffffff16815260200190815260200160002060009054906101000a900460ff169050919050565b600360009054906101000a900473ffffffffffffffffffffffffffffffffffffffff1673ffffffffffffffffffffffffffffffffffffffff163373ffffffffffffffffffffffffffffffffffffffff1614610499576040517f08c379a000000000000000000000000000000000000000000000000000000000815260040161049090610d7d565b60405180910390fd5b60005b82518110156105785781600260008673ffffffffffffffffffffffffffffffffffffffff1673ffffffffffffffffffffffffffffffffffffffff16815260200190815260200160002060008584815181106104fa576104f9610d9d565b5b60200260200101517bffffffffffffffffffffffffffffffffffffffffffffffffffffffff19167bffffffffffffffffffffffffffffffffffffffffffffffffffffffff1916815260200190815260200160002060006101000a81548160ff021916908315150217905550808061057090610e05565b91505061049c565b50505050565b600360009054906101000a900473ffffffffffffffffffffffffffffffffffffffff1673ffffffffffffffffffffffffffffffffffffffff163373ffffffffffffffffffffffffffffffffffffffff161461060e576040517f08c379a000000000000000000000000000000000000000000000000000000000815260040161060590610d7d565b60405180910390fd5b80600160008473ffffffffffffffffffffffffffffffffffffffff1673ffffffffffffffffffffffffffffffffffffffff16815260200190815260200160002060006101000a81548160ff0219169083151502179055505050565b600360009054906101000a900473ffffffffffffffffffffffffffffffffffffffff1681565b6106976107b8565b600073ffffffffffffffffffffffffffffffffffffffff168173ffffffffffffffffffffffffffffffffffffffff1603610706576040517f08c379a00000000000000000000000000000000000000000000000000000000081526004016106fd90610ebf565b60405180910390fd5b61070f81610836565b50565b6000600260008473ffffffffffffffffffffffffffffffffffffffff1673ffffffffffffffffffffffffffffffffffffffff1681526020019081526020016000206000837bffffffffffffffffffffffffffffffffffffffffffffffffffffffff19167bffffffffffffffffffffffffffffffffffffffffffffffffffffffff1916815260200190815260200160002060009054906101000a900460ff16905092915050565b6107c06108fa565b73ffffffffffffffffffffffffffffffffffffffff166107de610226565b73ffffffffffffffffffffffffffffffffffffffff1614610834576040517f08c379a000000000000000000000000000000000000000000000000000000000815260040161082b90610f2b565b60405180910390fd5b565b60008060009054906101000a900473ffffffffffffffffffffffffffffffffffffffff169050816000806101000a81548173ffffffffffffffffffffffffffffffffffffffff021916908373ffffffffffffffffffffffffffffffffffffffff1602179055508173ffffffffffffffffffffffffffffffffffffffff168173ffffffffffffffffffffffffffffffffffffffff167f8be0079c531659141344cd1fd0a4f28419497f9722a3daafe3b4186f6b6457e060405160405180910390a35050565b600033905090565b600073ffffffffffffffffffffffffffffffffffffffff82169050919050565b600061092d82610902565b9050919050565b61093d81610922565b82525050565b60006020820190506109586000830184610934565b92915050565b60008115159050919050565b6109738161095e565b82525050565b600060208201905061098e600083018461096a565b92915050565b6000604051905090565b600080fd5b600080fd5b6109b181610922565b81146109bc57600080fd5b50565b6000813590506109ce816109a8565b92915050565b6000602082840312156109ea576109e961099e565b5b60006109f8848285016109bf565b91505092915050565b60007fffffffff0000000000000000000000000000000000000000000000000000000082169050919050565b610a3681610a01565b8114610a4157600080fd5b50565b600081359050610a5381610a2d565b92915050565b610a628161095e565b8114610a6d57600080fd5b50565b600081359050610a7f81610a59565b92915050565b600080600060608486031215610a9e57610a9d61099e565b5b6000610aac868287016109bf565b9350506020610abd86828701610a44565b9250506040610ace86828701610a70565b9150509250925092565b600080fd5b6000601f19601f8301169050919050565b7f4e487b7100000000000000000000000000000000000000000000000000000000600052604160045260246000fd5b610b2682610add565b810181811067ffffffffffffffff82111715610b4557610b44610aee565b5b80604052505050565b6000610b58610994565b9050610b648282610b1d565b919050565b600067ffffffffffffffff821115610b8457610b83610aee565b5b602082029050602081019050919050565b600080fd5b6000610bad610ba884610b69565b610b4e565b90508083825260208201905060208402830185811115610bd057610bcf610b95565b5b835b81811015610bf95780610be58882610a44565b845260208401935050602081019050610bd2565b5050509392505050565b600082601f830112610c1857610c17610ad8565b5b8135610c28848260208601610b9a565b91505092915050565b600080600060608486031215610c4a57610c4961099e565b5b6000610c58868287016109bf565b935050602084013567ffffffffffffffff811115610c7957610c786109a3565b5b610c8586828701610c03565b9250506040610c9686828701610a70565b9150509250925092565b60008060408385031215610cb757610cb661099e565b5b6000610cc5858286016109bf565b9250506020610cd685828601610a70565b9150509250929050565b60008060408385031215610cf757610cf661099e565b5b6000610d05858286016109bf565b9250506020610d1685828601610a44565b9150509250929050565b600082825260208201905092915050565b7f4e6f7420416c6c6f776564000000000000000000000000000000000000000000600082015250565b6000610d67600b83610d20565b9150610d7282610d31565b602082019050919050565b60006020820190508181036000830152610d9681610d5a565b9050919050565b7f4e487b7100000000000000000000000000000000000000000000000000000000600052603260045260246000fd5b7f4e487b7100000000000000000000000000000000000000000000000000000000600052601160045260246000fd5b6000819050919050565b6000610e1082610dfb565b91507fffffffffffffffffffffffffffffffffffffffffffffffffffffffffffffffff8203610e4257610e41610dcc565b5b600182019050919050565b7f4f776e61626c653a206e6577206f776e657220697320746865207a65726f206160008201527f6464726573730000000000000000000000000000000000000000000000000000602082015250565b6000610ea9602683610d20565b9150610eb482610e4d565b604082019050919050565b60006020820190508181036000830152610ed881610e9c565b9050919050565b7f4f776e61626c653a2063616c6c6572206973206e6f7420746865206f776e6572600082015250565b6000610f15602083610d20565b9150610f2082610edf565b602082019050919050565b60006020820190508181036000830152610f4481610f08565b905091905056fea2646970667358221220b5f7b6528fa8748c8a05166ee59e66550d2fba503e0d671fb7a6fd77652e2c4864736f6c63430008130033","linkReferences":{}},"methodIdentifiers":{"adminPermissions(address)":"90a9b86c","isAdminContract()":"9068edac","owner()":"8da5cb5b","registerAdmin(address,bool)":"e5ad621d","registerBatchFunctionAdmin(address,bytes4[],bool)":"d21992db","registerFunctionAdmin(address,bytes4,bool)":"ad278c15","renounceOwnership()":"715018a6","retrieveFunctionAdmin(address,bytes4)":"feb2e233","retrieveGlobalAdmin(address)":"b3076d55","tdhSigner()":"efe11c35","transferOwnership(address)":"f2fde38b"},"id":3}