{"abi":[{"type":"constructor","inputs":[{"name":"_tdhSignerContract","type":"address","internalType":"address"},{"name":"_minterContract","type":"address","internalType":"address"},{"name":"_adminsContract","type":"address","internalType":"address"},{"name":"_payOutAddress","type":"address","internalType":"address"},{"name":"_curatorsPoolAddress","type":"address","internalType":"address"}],"stateMutability":"nonpayable"},{"type":"function","name":"activeTime","inputs":[],"outputs":[{"name":"","type":"uint256","internalType":"uint256"}],"stateMutability":"view"},{"type":"function","name":"adminsContract","inputs":[],"outputs":[{"name":"","type":"address","internalType":"contract IStreamAdmins"}],"stateMutability":"view"},{"type":"function","name":"allDrops","inputs":[{"name":"","type":"uint256","internalType":"uint256"}],"outputs":[{"name":"","type":"bytes32","internalType":"bytes32"}],"stateMutability":"view"},{"type":"function","name":"curatorsPoolAddress","inputs":[],"outputs":[{"name":"","type":"address","internalType":"address"}],"stateMutability":"view"},{"type":"function","name":"mintDrop","inputs":[{"name":"_poster","type":"address","internalType":"address"},{"name":"_tokenData","type":"string","internalType":"string"},{"name":"_collectionID","type":"uint256","internalType":"uint256"},{"name":"_opt","type":"uint256","internalType":"uint256"},{"name":"_price","type":"uint256","internalType":"uint256"},{"name":"_endDate","type":"uint256","internalType":"uint256"}],"outputs":[],"stateMutability":"payable"},{"type":"function","name":"minterContract","inputs":[],"outputs":[{"name":"","type":"address","internalType":"contract IStreamMinter"}],"stateMutability":"view"},{"type":"function","name":"owner","inputs":[],"outputs":[{"name":"","type":"address","internalType":"address"}],"stateMutability":"view"},{"type":"function","name":"payOutAddress","inputs":[],"outputs":[{"name":"","type":"address","internalType":"address"}],"stateMutability":"view"},{"type":"function","name":"renounceOwnership","inputs":[],"outputs":[],"stateMutability":"nonpayable"},{"type":"function","name":"retrieveAuctionPoster","inputs":[{"name":"_tokenid","type":"uint256","internalType":"uint256"}],"outputs":[{"name":"","type":"address","internalType":"address"}],"stateMutability":"view"},{"type":"function","name":"retrieveAuctionPrice","inputs":[{"name":"_tokenid","type":"uint256","internalType":"uint256"}],"outputs":[{"name":"","type":"uint256","internalType":"uint256"}],"stateMutability":"view"},{"type":"function","name":"retrieveDropID","inputs":[{"name":"_tokenid","type":"uint256","internalType":"uint256"}],"outputs":[{"name":"","type":"bytes32","internalType":"bytes32"}],"stateMutability":"view"},{"type":"function","name":"retrieveDropInfo","inputs":[{"name":"_dropId","type":"bytes32","internalType":"bytes32"}],"outputs":[{"name":"","type":"uint256","internalType":"uint256"},{"name":"","type":"address","internalType":"address"},{"name":"","type":"address","internalType":"address"},{"name":"","type":"address","internalType":"address"}],"stateMutability":"view"},{"type":"function","name":"retrieveDrops","inputs":[],"outputs":[{"name":"","type":"bytes32[]","internalType":"bytes32[]"}],"stateMutability":"view"},{"type":"function","name":"retrieveExecutionAddress","inputs":[{"name":"_tokenid","type":"uint256","internalType":"uint256"}],"outputs":[{"name":"","type":"address","internalType":"address"}],"stateMutability":"view"},{"type":"function","name":"retrieveMessageAndDropID","inputs":[{"name":"_poster","type":"address","internalType":"address"},{"name":"_tokenData","type":"string","internalType":"string"},{"name":"_collectionID","type":"uint256","internalType":"uint256"},{"name":"_opt","type":"uint256","internalType":"uint256"},{"name":"_price","type":"uint256","internalType":"uint256"},{"name":"_endDate","type":"uint256","internalType":"uint256"}],"outputs":[{"name":"","type":"string","internalType":"string"},{"name":"","type":"bytes32","internalType":"bytes32"}],"stateMutability":"pure"},{"type":"function","name":"retrieveTokenID","inputs":[{"name":"_dropId","type":"bytes32","internalType":"bytes32"}],"outputs":[{"name":"","type":"uint256","internalType":"uint256"}],"stateMutability":"view"},{"type":"function","name":"tdhSigner","inputs":[],"outputs":[{"name":"","type":"address","internalType":"address"}],"stateMutability":"view"},{"type":"function","name":"tdhThreshold","inputs":[],"outputs":[{"name":"","type":"uint256","internalType":"uint256"}],"stateMutability":"view"},{"type":"function","name":"transferOwnership","inputs":[{"name":"newOwner","type":"address","internalType":"address"}],"outputs":[],"stateMutability":"nonpayable"},{"type":"function","name":"updateAdminContract","inputs":[{"name":"_newContract","type":"address","internalType":"address"}],"outputs":[],"stateMutability":"nonpayable"},{"type":"function","name":"updateCuratorsPoolAddress","inputs":[{"name":"_curatorsPoolAddress","type":"address","internalType":"address"}],"outputs":[],"stateMutability":"nonpayable"},{"type":"function","name":"updateMinterContract","inputs":[{"name":"_newContract","type":"address","internalType":"address"}],"outputs":[],"stateMutability":"nonpayable"},{"type":"function","name":"updatePayOutAddress","inputs":[{"name":"_payOutAddress","type":"address","internalType":"address"}],"outputs":[],"stateMutability":"nonpayable"},{"type":"function","name":"updateTDHsigner","inputs":[{"name":"_tsigner","type":"address","internalType":"address"}],"outputs":[],"stateMutability":"nonpayable"},{"type":"event","name":"OwnershipTransferred","inputs":[{"name":"previousOwner","type":"address","indexed":true,"internalType":"address"},{"name":"newOwner","type":"address","indexed":true,"internalType":"address"}],"anonymous":false}],"bytecode":{"object":"0x60806040523480156200001157600080fd5b5060405162003eb838038062003eb8833981810160405281019062000037919062000517565b620000576200004b620003e160201b60201c565b620003e960201b60201c565b600073ffffffffffffffffffffffffffffffffffffffff168573ffffffffffffffffffffffffffffffffffffffff1603620000c9576040517f08c379a0000000000000000000000000000000000000000000000000000000008152600401620000c09062000600565b60405180910390fd5b600073ffffffffffffffffffffffffffffffffffffffff168473ffffffffffffffffffffffffffffffffffffffff16036200013b576040517f08c379a0000000000000000000000000000000000000000000000000000000008152600401620001329062000672565b60405180910390fd5b600073ffffffffffffffffffffffffffffffffffffffff168373ffffffffffffffffffffffffffffffffffffffff1603620001ad576040517f08c379a0000000000000000000000000000000000000000000000000000000008152600401620001a490620006e4565b60405180910390fd5b600073ffffffffffffffffffffffffffffffffffffffff168273ffffffffffffffffffffffffffffffffffffffff16036200021f576040517f08c379a0000000000000000000000000000000000000000000000000000000008152600401620002169062000756565b60405180910390fd5b600073ffffffffffffffffffffffffffffffffffffffff168173ffffffffffffffffffffffffffffffffffffffff160362000291576040517f08c379a00000000000000000000000000000000000000000000000000000000081526004016200028890620007c8565b60405180910390fd5b84600460006101000a81548173ffffffffffffffffffffffffffffffffffffffff021916908373ffffffffffffffffffffffffffffffffffffffff16021790555083600260006101000a81548173ffffffffffffffffffffffffffffffffffffffff021916908373ffffffffffffffffffffffffffffffffffffffff16021790555082600360006101000a81548173ffffffffffffffffffffffffffffffffffffffff021916908373ffffffffffffffffffffffffffffffffffffffff16021790555081600a60006101000a81548173ffffffffffffffffffffffffffffffffffffffff021916908373ffffffffffffffffffffffffffffffffffffffff16021790555080600b60006101000a81548173ffffffffffffffffffffffffffffffffffffffff021916908373ffffffffffffffffffffffffffffffffffffffff1602179055505050505050620007ea565b600033905090565b60008060009054906101000a900473ffffffffffffffffffffffffffffffffffffffff169050816000806101000a81548173ffffffffffffffffffffffffffffffffffffffff021916908373ffffffffffffffffffffffffffffffffffffffff1602179055508173ffffffffffffffffffffffffffffffffffffffff168173ffffffffffffffffffffffffffffffffffffffff167f8be0079c531659141344cd1fd0a4f28419497f9722a3daafe3b4186f6b6457e060405160405180910390a35050565b600080fd5b600073ffffffffffffffffffffffffffffffffffffffff82169050919050565b6000620004df82620004b2565b9050919050565b620004f181620004d2565b8114620004fd57600080fd5b50565b6000815190506200051181620004e6565b92915050565b600080600080600060a08688031215620005365762000535620004ad565b5b6000620005468882890162000500565b9550506020620005598882890162000500565b94505060406200056c8882890162000500565b93505060606200057f8882890162000500565b9250506080620005928882890162000500565b9150509295509295909350565b600082825260208201905092915050565b7f696e76616c6964207369676e6572000000000000000000000000000000000000600082015250565b6000620005e8600e836200059f565b9150620005f582620005b0565b602082019050919050565b600060208201905081810360008301526200061b81620005d9565b9050919050565b7f696e76616c6964206d696e746572000000000000000000000000000000000000600082015250565b60006200065a600e836200059f565b9150620006678262000622565b602082019050919050565b600060208201905081810360008301526200068d816200064b565b9050919050565b7f696e76616c69642061646d696e00000000000000000000000000000000000000600082015250565b6000620006cc600d836200059f565b9150620006d98262000694565b602082019050919050565b60006020820190508181036000830152620006ff81620006bd565b9050919050565b7f696e76616c6964207061796f7574000000000000000000000000000000000000600082015250565b60006200073e600e836200059f565b91506200074b8262000706565b602082019050919050565b6000602082019050818103600083015262000771816200072f565b9050919050565b7f696e76616c69642063757261746f727300000000000000000000000000000000600082015250565b6000620007b06010836200059f565b9150620007bd8262000778565b602082019050919050565b60006020820190508181036000830152620007e381620007a1565b9050919050565b6136be80620007fa6000396000f3fe6080604052600436106101665760003560e01c80637e3c9be7116100d1578063ac5825951161008a578063d63f7c1011610064578063d63f7c1014610549578063e20043b114610586578063efe11c35146105af578063f2fde38b146105da57610166565b8063ac582595146104ca578063c5280731146104f3578063cb8c478a1461051e57610166565b80637e3c9be7146103b35780638da5cb5b146103de57806392f002331461040957806396f448ce146104345780639a28f741146104715780639d45c3f71461048d57610166565b80635b96e4c5116101235780635b96e4c51461027b57806361da5031146102a45780636c7ca0f7146102e4578063715018a61461032257806373a9542c146103395780637ca983321461037657610166565b8063388d2c241461016b5780634098fff11461019457806343226e8b146101d157806348337282146101fc5780634b79fd6b146102255780635a6fcb2814610250575b600080fd5b34801561017757600080fd5b50610192600480360381019061018d919061255b565b610603565b005b3480156101a057600080fd5b506101bb60048036038101906101b691906125be565b610893565b6040516101c89190612604565b60405180910390f35b3480156101dd57600080fd5b506101e66108b3565b6040516101f391906126dd565b60405180910390f35b34801561020857600080fd5b50610223600480360381019061021e919061255b565b61090b565b005b34801561023157600080fd5b5061023a610b9b565b6040516102479190612604565b60405180910390f35b34801561025c57600080fd5b50610265610ba1565b604051610272919061270e565b60405180910390f35b34801561028757600080fd5b506102a2600480360381019061029d919061255b565b610bc7565b005b3480156102b057600080fd5b506102cb60048036038101906102c691906125be565b610da2565b6040516102db9493929190612729565b60405180910390f35b3480156102f057600080fd5b5061030b600480360381019061030691906128e0565b610e73565b604051610319929190612a17565b60405180910390f35b34801561032e57600080fd5b50610337610f22565b005b34801561034557600080fd5b50610360600480360381019061035b9190612a47565b610f36565b60405161036d919061270e565b60405180910390f35b34801561038257600080fd5b5061039d60048036038101906103989190612a47565b610f73565b6040516103aa9190612a74565b60405180910390f35b3480156103bf57600080fd5b506103c8610f90565b6040516103d59190612aee565b60405180910390f35b3480156103ea57600080fd5b506103f3610fb6565b604051610400919061270e565b60405180910390f35b34801561041557600080fd5b5061041e610fdf565b60405161042b9190612b2a565b60405180910390f35b34801561044057600080fd5b5061045b60048036038101906104569190612a47565b611005565b604051610468919061270e565b60405180910390f35b61048b600480360381019061048691906128e0565b61104d565b005b34801561049957600080fd5b506104b460048036038101906104af9190612a47565b611a76565b6040516104c19190612a74565b60405180910390f35b3480156104d657600080fd5b506104f160048036038101906104ec919061255b565b611a9a565b005b3480156104ff57600080fd5b50610508611c75565b604051610515919061270e565b60405180910390f35b34801561052a57600080fd5b50610533611c9b565b6040516105409190612604565b60405180910390f35b34801561055557600080fd5b50610570600480360381019061056b9190612a47565b611ca1565b60405161057d9190612604565b60405180910390f35b34801561059257600080fd5b506105ad60048036038101906105a8919061255b565b611cbe565b005b3480156105bb57600080fd5b506105c4611e99565b6040516105d1919061270e565b60405180910390f35b3480156105e657600080fd5b5061060160048036038101906105fc919061255b565b611ebf565b005b63388d2c2460e01b60011515600360009054906101000a900473ffffffffffffffffffffffffffffffffffffffff1673ffffffffffffffffffffffffffffffffffffffff1663feb2e23333846040518363ffffffff1660e01b815260040161066c929190612b80565b602060405180830381865afa158015610689573d6000803e3d6000fd5b505050506040513d601f19601f820116820180604052508101906106ad9190612be1565b1515148061075a575060011515600360009054906101000a900473ffffffffffffffffffffffffffffffffffffffff1673ffffffffffffffffffffffffffffffffffffffff1663b3076d55336040518263ffffffff1660e01b8152600401610715919061270e565b602060405180830381865afa158015610732573d6000803e3d6000fd5b505050506040513d601f19601f820116820180604052508101906107569190612be1565b1515145b610799576040517f08c379a000000000000000000000000000000000000000000000000000000000815260040161079090612c5a565b60405180910390fd5b600115158273ffffffffffffffffffffffffffffffffffffffff16639068edac6040518163ffffffff1660e01b8152600401602060405180830381865afa1580156107e8573d6000803e3d6000fd5b505050506040513d601f19601f8201168201806040525081019061080c9190612be1565b15151461084e576040517f08c379a000000000000000000000000000000000000000000000000000000000815260040161084590612cc6565b60405180910390fd5b81600360006101000a81548173ffffffffffffffffffffffffffffffffffffffff021916908373ffffffffffffffffffffffffffffffffffffffff1602179055505050565b600060016000838152602001908152602001600020600001549050919050565b6060600980548060200260200160405190810160405280929190818152602001828054801561090157602002820191906000526020600020905b8154815260200190600101908083116108ed575b5050505050905090565b634833728260e01b60011515600360009054906101000a900473ffffffffffffffffffffffffffffffffffffffff1673ffffffffffffffffffffffffffffffffffffffff1663feb2e23333846040518363ffffffff1660e01b8152600401610974929190612b80565b602060405180830381865afa158015610991573d6000803e3d6000fd5b505050506040513d601f19601f820116820180604052508101906109b59190612be1565b15151480610a62575060011515600360009054906101000a900473ffffffffffffffffffffffffffffffffffffffff1673ffffffffffffffffffffffffffffffffffffffff1663b3076d55336040518263ffffffff1660e01b8152600401610a1d919061270e565b602060405180830381865afa158015610a3a573d6000803e3d6000fd5b505050506040513d601f19601f82011682018060405250810190610a5e9190612be1565b1515145b610aa1576040517f08c379a0000000000000000000000000000000000000000000000000000000008152600401610a9890612c5a565b60405180910390fd5b600115158273ffffffffffffffffffffffffffffffffffffffff1663fb9422ff6040518163ffffffff1660e01b8152600401602060405180830381865afa158015610af0573d6000803e3d6000fd5b505050506040513d601f19601f82011682018060405250810190610b149190612be1565b151514610b56576040517f08c379a0000000000000000000000000000000000000000000000000000000008152600401610b4d90612cc6565b60405180910390fd5b81600260006101000a81548173ffffffffffffffffffffffffffffffffffffffff021916908373ffffffffffffffffffffffffffffffffffffffff1602179055505050565b600c5481565b600b60009054906101000a900473ffffffffffffffffffffffffffffffffffffffff1681565b635b96e4c560e01b60011515600360009054906101000a900473ffffffffffffffffffffffffffffffffffffffff1673ffffffffffffffffffffffffffffffffffffffff1663feb2e23333846040518363ffffffff1660e01b8152600401610c30929190612b80565b602060405180830381865afa158015610c4d573d6000803e3d6000fd5b505050506040513d601f19601f82011682018060405250810190610c719190612be1565b15151480610d1e575060011515600360009054906101000a900473ffffffffffffffffffffffffffffffffffffffff1673ffffffffffffffffffffffffffffffffffffffff1663b3076d55336040518263ffffffff1660e01b8152600401610cd9919061270e565b602060405180830381865afa158015610cf6573d6000803e3d6000fd5b505050506040513d601f19601f82011682018060405250810190610d1a9190612be1565b1515145b610d5d576040517f08c379a0000000000000000000000000000000000000000000000000000000008152600401610d5490612c5a565b60405180910390fd5b81600b60006101000a81548173ffffffffffffffffffffffffffffffffffffffff021916908373ffffffffffffffffffffffffffffffffffffffff1602179055505050565b60008060008060016000868152602001908152602001600020600001546001600087815260200190815260200160002060010160009054906101000a900473ffffffffffffffffffffffffffffffffffffffff166001600088815260200190815260200160002060020160009054906101000a900473ffffffffffffffffffffffffffffffffffffffff166001600089815260200190815260200160002060030160009054906101000a900473ffffffffffffffffffffffffffffffffffffffff1693509350935093509193509193565b6060600080610e998973ffffffffffffffffffffffffffffffffffffffff166014611f42565b88610ea38961217e565b610eac8961217e565b610eb58961217e565b610ebe8961217e565b604051602001610ed396959493929190612d22565b6040516020818303038152906040529050600081604051602001610ef79190612d7a565b6040516020818303038152906040528051906020012090508181935093505050965096945050505050565b610f2a61224c565b610f3460006122ca565b565b60006006600083815260200190815260200160002060009054906101000a900473ffffffffffffffffffffffffffffffffffffffff169050919050565b600060086000838152602001908152602001600020549050919050565b600360009054906101000a900473ffffffffffffffffffffffffffffffffffffffff1681565b60008060009054906101000a900473ffffffffffffffffffffffffffffffffffffffff16905090565b600260009054906101000a900473ffffffffffffffffffffffffffffffffffffffff1681565b60006001600061101484610f73565b815260200190815260200160002060030160009054906101000a900473ffffffffffffffffffffffffffffffffffffffff169050919050565b600460009054906101000a900473ffffffffffffffffffffffffffffffffffffffff1673ffffffffffffffffffffffffffffffffffffffff163373ffffffffffffffffffffffffffffffffffffffff16146110dd576040517f08c379a00000000000000000000000000000000000000000000000000000000081526004016110d490612ddd565b60405180910390fd5b60006111008773ffffffffffffffffffffffffffffffffffffffff166014611f42565b8661110a8761217e565b6111138761217e565b61111c8761217e565b6111258761217e565b60405160200161113a96959493929190612d22565b6040516020818303038152906040526040516020016111599190612d7a565b604051602081830303815290604052805190602001209050600015156005600083815260200190815260200160002060009054906101000a900460ff161515146111d8576040517f08c379a00000000000000000000000000000000000000000000000000000000081526004016111cf90612e49565b60405180910390fd5b60016005600083815260200190815260200160002060006101000a81548160ff021916908315150217905550600080889050600088905060008890506001880361176e5786341461125e576040517f08c379a000000000000000000000000000000000000000000000000000000000815260040161125590612eb5565b60405180910390fd5b6000600167ffffffffffffffff81111561127b5761127a612789565b5b6040519080825280602002602001820160405280156112a95781602001602082028036833780820191505090505b5090506000600167ffffffffffffffff8111156112c9576112c8612789565b5b6040519080825280602002602001820160405280156112f75781602001602082028036833780820191505090505b5090506000600167ffffffffffffffff81111561131757611316612789565b5b60405190808252806020026020018201604052801561134a57816020015b60608152602001906001900390816113355790505b5090506000600167ffffffffffffffff81111561136a57611369612789565b5b6040519080825280602002602001820160405280156113985781602001602082028036833780820191505090505b50905033816000815181106113b0576113af612ed5565b5b602002602001019073ffffffffffffffffffffffffffffffffffffffff16908173ffffffffffffffffffffffffffffffffffffffff1681525050600084600081518110611400576113ff612ed5565b5b60200260200101818152505060018360008151811061142257611421612ed5565b5b602002602001018181525050858260008151811061144357611442612ed5565b5b602002602001018190525060008773ffffffffffffffffffffffffffffffffffffffff166002346114749190612f62565b60405161148090612fc4565b60006040518083038185875af1925050503d80600081146114bd576040519150601f19603f3d011682016040523d82523d6000602084013e6114c2565b606091505b505090506000600a60009054906101000a900473ffffffffffffffffffffffffffffffffffffffff1673ffffffffffffffffffffffffffffffffffffffff1660043461150e9190612f62565b60405161151a90612fc4565b60006040518083038185875af1925050503d8060008114611557576040519150601f19603f3d011682016040523d82523d6000602084013e61155c565b606091505b505090506000600b60009054906101000a900473ffffffffffffffffffffffffffffffffffffffff1673ffffffffffffffffffffffffffffffffffffffff166004346115a89190612f62565b6040516115b490612fc4565b60006040518083038185875af1925050503d80600081146115f1576040519150601f19603f3d011682016040523d82523d6000602084013e6115f6565b606091505b505090508261163a576040517f08c379a000000000000000000000000000000000000000000000000000000000815260040161163190613025565b60405180910390fd5b8161167a576040517f08c379a000000000000000000000000000000000000000000000000000000000815260040161167190613025565b60405180910390fd5b806116ba576040517f08c379a00000000000000000000000000000000000000000000000000000000081526004016116b190613025565b60405180910390fd5b600260009054906101000a900473ffffffffffffffffffffffffffffffffffffffff1673ffffffffffffffffffffffffffffffffffffffff16631f14ec7485878a8c8b6040518663ffffffff1660e01b815260040161171d9594939291906132cd565b6020604051808303816000875af115801561173c573d6000803e3d6000fd5b505050506040513d601f19601f820116820180604052508101906117609190613351565b9a50505050505050506118ec565b600288036118b057600260009054906101000a900473ffffffffffffffffffffffffffffffffffffffff1673ffffffffffffffffffffffffffffffffffffffff166346372ba6600a60009054906101000a900473ffffffffffffffffffffffffffffffffffffffff16846000858b6040518663ffffffff1660e01b81526004016117fc9594939291906133b9565b6020604051808303816000875af115801561181b573d6000803e3d6000fd5b505050506040513d601f19601f8201168201806040525081019061183f9190613351565b9350826006600086815260200190815260200160002060006101000a81548173ffffffffffffffffffffffffffffffffffffffff021916908373ffffffffffffffffffffffffffffffffffffffff1602179055508660076000868152602001908152602001600020819055506118eb565b6040517f08c379a00000000000000000000000000000000000000000000000000000000081526004016118e29061345f565b60405180910390fd5b5b846008600086815260200190815260200160002081905550836001600087815260200190815260200160002060000181905550600460009054906101000a900473ffffffffffffffffffffffffffffffffffffffff166001600087815260200190815260200160002060010160006101000a81548173ffffffffffffffffffffffffffffffffffffffff021916908373ffffffffffffffffffffffffffffffffffffffff160217905550826001600087815260200190815260200160002060020160006101000a81548173ffffffffffffffffffffffffffffffffffffffff021916908373ffffffffffffffffffffffffffffffffffffffff160217905550336001600087815260200190815260200160002060030160006101000a81548173ffffffffffffffffffffffffffffffffffffffff021916908373ffffffffffffffffffffffffffffffffffffffff16021790555060098590806001815401808255809150506001900390600052602060002001600090919091909150555050505050505050505050565b60098181548110611a8657600080fd5b906000526020600020016000915090505481565b63ac58259560e01b60011515600360009054906101000a900473ffffffffffffffffffffffffffffffffffffffff1673ffffffffffffffffffffffffffffffffffffffff1663feb2e23333846040518363ffffffff1660e01b8152600401611b03929190612b80565b602060405180830381865afa158015611b20573d6000803e3d6000fd5b505050506040513d601f19601f82011682018060405250810190611b449190612be1565b15151480611bf1575060011515600360009054906101000a900473ffffffffffffffffffffffffffffffffffffffff1673ffffffffffffffffffffffffffffffffffffffff1663b3076d55336040518263ffffffff1660e01b8152600401611bac919061270e565b602060405180830381865afa158015611bc9573d6000803e3d6000fd5b505050506040513d601f19601f82011682018060405250810190611bed9190612be1565b1515145b611c30576040517f08c379a0000000000000000000000000000000000000000000000000000000008152600401611c2790612c5a565b60405180910390fd5b81600a60006101000a81548173ffffffffffffffffffffffffffffffffffffffff021916908373ffffffffffffffffffffffffffffffffffffffff1602179055505050565b600a60009054906101000a900473ffffffffffffffffffffffffffffffffffffffff1681565b600d5481565b600060076000838152602001908152602001600020549050919050565b63e20043b160e01b60011515600360009054906101000a900473ffffffffffffffffffffffffffffffffffffffff1673ffffffffffffffffffffffffffffffffffffffff1663feb2e23333846040518363ffffffff1660e01b8152600401611d27929190612b80565b602060405180830381865afa158015611d44573d6000803e3d6000fd5b505050506040513d601f19601f82011682018060405250810190611d689190612be1565b15151480611e15575060011515600360009054906101000a900473ffffffffffffffffffffffffffffffffffffffff1673ffffffffffffffffffffffffffffffffffffffff1663b3076d55336040518263ffffffff1660e01b8152600401611dd0919061270e565b602060405180830381865afa158015611ded573d6000803e3d6000fd5b505050506040513d601f19601f82011682018060405250810190611e119190612be1565b1515145b611e54576040517f08c379a0000000000000000000000000000000000000000000000000000000008152600401611e4b90612c5a565b60405180910390fd5b81600460006101000a81548173ffffffffffffffffffffffffffffffffffffffff021916908373ffffffffffffffffffffffffffffffffffffffff1602179055505050565b600460009054906101000a900473ffffffffffffffffffffffffffffffffffffffff1681565b611ec761224c565b600073ffffffffffffffffffffffffffffffffffffffff168173ffffffffffffffffffffffffffffffffffffffff1603611f36576040517f08c379a0000000000000000000000000000000000000000000000000000000008152600401611f2d906134f1565b60405180910390fd5b611f3f816122ca565b50565b606060006002836002611f559190613511565b611f5f9190613553565b67ffffffffffffffff811115611f7857611f77612789565b5b6040519080825280601f01601f191660200182016040528015611faa5781602001600182028036833780820191505090505b5090507f300000000000000000000000000000000000000000000000000000000000000081600081518110611fe257611fe1612ed5565b5b60200101907effffffffffffffffffffffffffffffffffffffffffffffffffffffffffffff1916908160001a9053507f78000000000000000000000000000000000000000000000000000000000000008160018151811061204657612045612ed5565b5b60200101907effffffffffffffffffffffffffffffffffffffffffffffffffffffffffffff1916908160001a905350600060018460026120869190613511565b6120909190613553565b90505b6001811115612130577f3031323334353637383961626364656600000000000000000000000000000000600f8616601081106120d2576120d1612ed5565b5b1a60f81b8282815181106120e9576120e8612ed5565b5b60200101907effffffffffffffffffffffffffffffffffffffffffffffffffffffffffffff1916908160001a905350600485901c94508061212990613587565b9050612093565b5060008414612174576040517f08c379a000000000000000000000000000000000000000000000000000000000815260040161216b906135fc565b60405180910390fd5b8091505092915050565b60606000600161218d8461238e565b01905060008167ffffffffffffffff8111156121ac576121ab612789565b5b6040519080825280601f01601f1916602001820160405280156121de5781602001600182028036833780820191505090505b509050600082602001820190505b600115612241578080600190039150507f3031323334353637383961626364656600000000000000000000000000000000600a86061a8153600a858161223557612234612f04565b5b049450600085036121ec575b819350505050919050565b6122546124e1565b73ffffffffffffffffffffffffffffffffffffffff16612272610fb6565b73ffffffffffffffffffffffffffffffffffffffff16146122c8576040517f08c379a00000000000000000000000000000000000000000000000000000000081526004016122bf90613668565b60405180910390fd5b565b60008060009054906101000a900473ffffffffffffffffffffffffffffffffffffffff169050816000806101000a81548173ffffffffffffffffffffffffffffffffffffffff021916908373ffffffffffffffffffffffffffffffffffffffff1602179055508173ffffffffffffffffffffffffffffffffffffffff168173ffffffffffffffffffffffffffffffffffffffff167f8be0079c531659141344cd1fd0a4f28419497f9722a3daafe3b4186f6b6457e060405160405180910390a35050565b600080600090507a184f03e93ff9f4daa797ed6e38ed64bf6a1f01000000000000000083106123ec577a184f03e93ff9f4daa797ed6e38ed64bf6a1f01000000000000000083816123e2576123e1612f04565b5b0492506040810190505b6d04ee2d6d415b85acef81000000008310612429576d04ee2d6d415b85acef8100000000838161241f5761241e612f04565b5b0492506020810190505b662386f26fc10000831061245857662386f26fc10000838161244e5761244d612f04565b5b0492506010810190505b6305f5e1008310612481576305f5e100838161247757612476612f04565b5b0492506008810190505b61271083106124a657612710838161249c5761249b612f04565b5b0492506004810190505b606483106124c957606483816124bf576124be612f04565b5b0492506002810190505b600a83106124d8576001810190505b80915050919050565b600033905090565b6000604051905090565b600080fd5b600080fd5b600073ffffffffffffffffffffffffffffffffffffffff82169050919050565b6000612528826124fd565b9050919050565b6125388161251d565b811461254357600080fd5b50565b6000813590506125558161252f565b92915050565b600060208284031215612571576125706124f3565b5b600061257f84828501612546565b91505092915050565b6000819050919050565b61259b81612588565b81146125a657600080fd5b50565b6000813590506125b881612592565b92915050565b6000602082840312156125d4576125d36124f3565b5b60006125e2848285016125a9565b91505092915050565b6000819050919050565b6125fe816125eb565b82525050565b600060208201905061261960008301846125f5565b92915050565b600081519050919050565b600082825260208201905092915050565b6000819050602082019050919050565b61265481612588565b82525050565b6000612666838361264b565b60208301905092915050565b6000602082019050919050565b600061268a8261261f565b612694818561262a565b935061269f8361263b565b8060005b838110156126d05781516126b7888261265a565b97506126c283612672565b9250506001810190506126a3565b5085935050505092915050565b600060208201905081810360008301526126f7818461267f565b905092915050565b6127088161251d565b82525050565b600060208201905061272360008301846126ff565b92915050565b600060808201905061273e60008301876125f5565b61274b60208301866126ff565b61275860408301856126ff565b61276560608301846126ff565b95945050505050565b600080fd5b600080fd5b6000601f19601f8301169050919050565b7f4e487b7100000000000000000000000000000000000000000000000000000000600052604160045260246000fd5b6127c182612778565b810181811067ffffffffffffffff821117156127e0576127df612789565b5b80604052505050565b60006127f36124e9565b90506127ff82826127b8565b919050565b600067ffffffffffffffff82111561281f5761281e612789565b5b61282882612778565b9050602081019050919050565b82818337600083830152505050565b600061285761285284612804565b6127e9565b90508281526020810184848401111561287357612872612773565b5b61287e848285612835565b509392505050565b600082601f83011261289b5761289a61276e565b5b81356128ab848260208601612844565b91505092915050565b6128bd816125eb565b81146128c857600080fd5b50565b6000813590506128da816128b4565b92915050565b60008060008060008060c087890312156128fd576128fc6124f3565b5b600061290b89828a01612546565b965050602087013567ffffffffffffffff81111561292c5761292b6124f8565b5b61293889828a01612886565b955050604061294989828a016128cb565b945050606061295a89828a016128cb565b935050608061296b89828a016128cb565b92505060a061297c89828a016128cb565b9150509295509295509295565b600081519050919050565b600082825260208201905092915050565b60005b838110156129c35780820151818401526020810190506129a8565b60008484015250505050565b60006129da82612989565b6129e48185612994565b93506129f48185602086016129a5565b6129fd81612778565b840191505092915050565b612a1181612588565b82525050565b60006040820190508181036000830152612a3181856129cf565b9050612a406020830184612a08565b9392505050565b600060208284031215612a5d57612a5c6124f3565b5b6000612a6b848285016128cb565b91505092915050565b6000602082019050612a896000830184612a08565b92915050565b6000819050919050565b6000612ab4612aaf612aaa846124fd565b612a8f565b6124fd565b9050919050565b6000612ac682612a99565b9050919050565b6000612ad882612abb565b9050919050565b612ae881612acd565b82525050565b6000602082019050612b036000830184612adf565b92915050565b6000612b1482612abb565b9050919050565b612b2481612b09565b82525050565b6000602082019050612b3f6000830184612b1b565b92915050565b60007fffffffff0000000000000000000000000000000000000000000000000000000082169050919050565b612b7a81612b45565b82525050565b6000604082019050612b9560008301856126ff565b612ba26020830184612b71565b9392505050565b60008115159050919050565b612bbe81612ba9565b8114612bc957600080fd5b50565b600081519050612bdb81612bb5565b92915050565b600060208284031215612bf757612bf66124f3565b5b6000612c0584828501612bcc565b91505092915050565b7f4e6f7420616c6c6f776564000000000000000000000000000000000000000000600082015250565b6000612c44600b83612994565b9150612c4f82612c0e565b602082019050919050565b60006020820190508181036000830152612c7381612c37565b9050919050565b7f436f6e7472616374206973206e6f742041646d696e0000000000000000000000600082015250565b6000612cb0601583612994565b9150612cbb82612c7a565b602082019050919050565b60006020820190508181036000830152612cdf81612ca3565b9050919050565b600081905092915050565b6000612cfc82612989565b612d068185612ce6565b9350612d168185602086016129a5565b80840191505092915050565b6000612d2e8289612cf1565b9150612d3a8288612cf1565b9150612d468287612cf1565b9150612d528286612cf1565b9150612d5e8285612cf1565b9150612d6a8284612cf1565b9150819050979650505050505050565b6000612d868284612cf1565b915081905092915050565b7f4e6f7420416c6c6f776564000000000000000000000000000000000000000000600082015250565b6000612dc7600b83612994565b9150612dd282612d91565b602082019050919050565b60006020820190508181036000830152612df681612dba565b9050919050565b7f44726f7020457865637574656400000000000000000000000000000000000000600082015250565b6000612e33600d83612994565b9150612e3e82612dfd565b602082019050919050565b60006020820190508181036000830152612e6281612e26565b9050919050565b7f7072696365000000000000000000000000000000000000000000000000000000600082015250565b6000612e9f600583612994565b9150612eaa82612e69565b602082019050919050565b60006020820190508181036000830152612ece81612e92565b9050919050565b7f4e487b7100000000000000000000000000000000000000000000000000000000600052603260045260246000fd5b7f4e487b7100000000000000000000000000000000000000000000000000000000600052601260045260246000fd5b7f4e487b7100000000000000000000000000000000000000000000000000000000600052601160045260246000fd5b6000612f6d826125eb565b9150612f78836125eb565b925082612f8857612f87612f04565b5b828204905092915050565b600081905092915050565b50565b6000612fae600083612f93565b9150612fb982612f9e565b600082019050919050565b6000612fcf82612fa1565b9150819050919050565b7f455448206661696c656400000000000000000000000000000000000000000000600082015250565b600061300f600a83612994565b915061301a82612fd9565b602082019050919050565b6000602082019050818103600083015261303e81613002565b9050919050565b600081519050919050565b600082825260208201905092915050565b6000819050602082019050919050565b61307a8161251d565b82525050565b600061308c8383613071565b60208301905092915050565b6000602082019050919050565b60006130b082613045565b6130ba8185613050565b93506130c583613061565b8060005b838110156130f65781516130dd8882613080565b97506130e883613098565b9250506001810190506130c9565b5085935050505092915050565b600081519050919050565b600082825260208201905092915050565b6000819050602082019050919050565b600082825260208201905092915050565b600061314b82612989565b613155818561312f565b93506131658185602086016129a5565b61316e81612778565b840191505092915050565b60006131858383613140565b905092915050565b6000602082019050919050565b60006131a582613103565b6131af818561310e565b9350836020820285016131c18561311f565b8060005b858110156131fd57848403895281516131de8582613179565b94506131e98361318d565b925060208a019950506001810190506131c5565b50829750879550505050505092915050565b600081519050919050565b600082825260208201905092915050565b6000819050602082019050919050565b613244816125eb565b82525050565b6000613256838361323b565b60208301905092915050565b6000602082019050919050565b600061327a8261320f565b613284818561321a565b935061328f8361322b565b8060005b838110156132c05781516132a7888261324a565b97506132b283613262565b925050600181019050613293565b5085935050505092915050565b600060a08201905081810360008301526132e781886130a5565b905081810360208301526132fb818761319a565b9050818103604083015261330f818661326f565b905061331e60608301856125f5565b8181036080830152613330818461326f565b90509695505050505050565b60008151905061334b816128b4565b92915050565b600060208284031215613367576133666124f3565b5b60006133758482850161333c565b91505092915050565b6000819050919050565b60006133a361339e6133998461337e565b612a8f565b6125eb565b9050919050565b6133b381613388565b82525050565b600060a0820190506133ce60008301886126ff565b81810360208301526133e081876129cf565b90506133ef60408301866133aa565b6133fc60608301856125f5565b61340960808301846125f5565b9695505050505050565b7f4e6f7420666f756e640000000000000000000000000000000000000000000000600082015250565b6000613449600983612994565b915061345482613413565b602082019050919050565b600060208201905081810360008301526134788161343c565b9050919050565b7f4f776e61626c653a206e6577206f776e657220697320746865207a65726f206160008201527f6464726573730000000000000000000000000000000000000000000000000000602082015250565b60006134db602683612994565b91506134e68261347f565b604082019050919050565b6000602082019050818103600083015261350a816134ce565b9050919050565b600061351c826125eb565b9150613527836125eb565b9250828202613535816125eb565b9150828204841483151761354c5761354b612f33565b5b5092915050565b600061355e826125eb565b9150613569836125eb565b925082820190508082111561358157613580612f33565b5b92915050565b6000613592826125eb565b9150600082036135a5576135a4612f33565b5b600182039050919050565b7f537472696e67733a20686578206c656e67746820696e73756666696369656e74600082015250565b60006135e6602083612994565b91506135f1826135b0565b602082019050919050565b60006020820190508181036000830152613615816135d9565b9050919050565b7f4f776e61626c653a2063616c6c6572206973206e6f7420746865206f776e6572600082015250565b6000613652602083612994565b915061365d8261361c565b602082019050919050565b6000602082019050818103600083015261368181613645565b905091905056fea26469706673582212201d93aea305eee5a8eb770851f62f5bc5a8f86022419cf59d3583bd9399f8638a64736f6c63430008130033","linkReferences":{}},"methodIdentifiers":{"activeTime()":"cb8c478a","adminsContract()":"7e3c9be7","allDrops(uint256)":"9d45c3f7","curatorsPoolAddress()":"5a6fcb28","mintDrop(address,string,uint256,uint256,uint256,uint256)":"9a28f741","minterContract()":"92f00233","owner()":"8da5cb5b","payOutAddress()":"c5280731","renounceOwnership()":"715018a6","retrieveAuctionPoster(uint256)":"73a9542c","retrieveAuctionPrice(uint256)":"d63f7c10","retrieveDropID(uint256)":"7ca98332","retrieveDropInfo(bytes32)":"61da5031","retrieveDrops()":"43226e8b","retrieveExecutionAddress(uint256)":"96f448ce","retrieveMessageAndDropID(address,string,uint256,uint256,uint256,uint256)":"6c7ca0f7","retrieveTokenID(bytes32)":"4098fff1","tdhSigner()":"efe11c35","tdhThreshold()":"4b79fd6b","transferOwnership(address)":"f2fde38b","updateAdminContract(address)":"388d2c24","updateCuratorsPoolAddress(address)":"5b96e4c5","updateMinterContract(address)":"48337282","updatePayOutAddress(address)":"ac582595","updateTDHsigner(address)":"e20043b1"},"id":6}