{"abi":[{"type":"constructor","inputs":[{"name":"_minterContract","type":"address","internalType":"address"},{"name":"_gencore","type":"address","internalType":"address"},{"name":"_adminsContract","type":"address","internalType":"address"},{"name":"_dropsContract","type":"address","internalType":"address"},{"name":"_payOutAddress","type":"address","internalType":"address"},{"name":"_curatorsPoolAddress","type":"address","internalType":"address"}],"stateMutability":"nonpayable"},{"type":"function","name":"adminsContract","inputs":[],"outputs":[{"name":"","type":"address","internalType":"contract IStreamAdmins"}],"stateMutability":"view"},{"type":"function","name":"auctionClaim","inputs":[{"name":"","type":"uint256","internalType":"uint256"}],"outputs":[{"name":"","type":"bool","internalType":"bool"}],"stateMutability":"view"},{"type":"function","name":"auctionHighestBid","inputs":[{"name":"","type":"uint256","internalType":"uint256"}],"outputs":[{"name":"","type":"uint256","internalType":"uint256"}],"stateMutability":"view"},{"type":"function","name":"auctionHighestBidder","inputs":[{"name":"","type":"uint256","internalType":"uint256"}],"outputs":[{"name":"","type":"address","internalType":"address"}],"stateMutability":"view"},{"type":"function","name":"claimAuction","inputs":[{"name":"_tokenid","type":"uint256","internalType":"uint256"}],"outputs":[],"stateMutability":"nonpayable"},{"type":"function","name":"curatorsPoolAddress","inputs":[],"outputs":[{"name":"","type":"address","internalType":"address"}],"stateMutability":"view"},{"type":"function","name":"dropsContract","inputs":[],"outputs":[{"name":"","type":"address","internalType":"contract IStreamDrops"}],"stateMutability":"view"},{"type":"function","name":"emergencyWithdraw","inputs":[],"outputs":[],"stateMutability":"nonpayable"},{"type":"function","name":"extensionTime","inputs":[],"outputs":[{"name":"","type":"uint256","internalType":"uint256"}],"stateMutability":"view"},{"type":"function","name":"gencore","inputs":[],"outputs":[{"name":"","type":"address","internalType":"address"}],"stateMutability":"view"},{"type":"function","name":"incPercent","inputs":[],"outputs":[{"name":"","type":"uint256","internalType":"uint256"}],"stateMutability":"view"},{"type":"function","name":"minterContract","inputs":[],"outputs":[{"name":"","type":"address","internalType":"contract IStreamMinter"}],"stateMutability":"view"},{"type":"function","name":"participateToAuction","inputs":[{"name":"_tokenid","type":"uint256","internalType":"uint256"}],"outputs":[],"stateMutability":"payable"},{"type":"function","name":"payOutAddress","inputs":[],"outputs":[{"name":"","type":"address","internalType":"address"}],"stateMutability":"view"},{"type":"function","name":"updateAdminContract","inputs":[{"name":"_newadminsContract","type":"address","internalType":"address"}],"outputs":[],"stateMutability":"nonpayable"},{"type":"function","name":"updateCuratorsPoolAddress","inputs":[{"name":"_curatorsPoolAddress","type":"address","internalType":"address"}],"outputs":[],"stateMutability":"nonpayable"},{"type":"function","name":"updateDropsContract","inputs":[{"name":"_dropsContract","type":"address","internalType":"address"}],"outputs":[],"stateMutability":"nonpayable"},{"type":"function","name":"updateMinterContract","inputs":[{"name":"_minterContract","type":"address","internalType":"address"}],"outputs":[],"stateMutability":"nonpayable"},{"type":"function","name":"updatePayOutAddress","inputs":[{"name":"_payOutAddress","type":"address","internalType":"address"}],"outputs":[],"stateMutability":"nonpayable"},{"type":"function","name":"updatePercentAndExtensionTime","inputs":[{"name":"_opt","type":"uint256","internalType":"uint256"},{"name":"_value","type":"uint256","internalType":"uint256"}],"outputs":[],"stateMutability":"nonpayable"},{"type":"event","name":"ClaimAuction","inputs":[{"name":"tokenid","type":"uint256","indexed":true,"internalType":"uint256"},{"name":"bid","type":"uint256","indexed":true,"internalType":"uint256"}],"anonymous":false},{"type":"event","name":"Participate","inputs":[{"name":"_add","type":"address","indexed":true,"internalType":"address"},{"name":"tokenid","type":"uint256","indexed":true,"internalType":"uint256"},{"name":"bid","type":"uint256","indexed":true,"internalType":"uint256"}],"anonymous":false},{"type":"event","name":"Withdraw","inputs":[{"name":"_add","type":"address","indexed":true,"internalType":"address"},{"name":"status","type":"bool","indexed":false,"internalType":"bool"},{"name":"funds","type":"uint256","indexed":true,"internalType":"uint256"}],"anonymous":false},{"type":"error","name":"ReentrancyGuardReentrantCall","inputs":[]}],"bytecode":{"object":"0x60806040523480156200001157600080fd5b50604051620030d3380380620030d383398181016040528101906200003791906200024c565b600160008190555085600160006101000a81548173ffffffffffffffffffffffffffffffffffffffff021916908373ffffffffffffffffffffffffffffffffffffffff16021790555084600460006101000a81548173ffffffffffffffffffffffffffffffffffffffff021916908373ffffffffffffffffffffffffffffffffffffffff16021790555083600260006101000a81548173ffffffffffffffffffffffffffffffffffffffff021916908373ffffffffffffffffffffffffffffffffffffffff16021790555082600360006101000a81548173ffffffffffffffffffffffffffffffffffffffff021916908373ffffffffffffffffffffffffffffffffffffffff16021790555081600560006101000a81548173ffffffffffffffffffffffffffffffffffffffff021916908373ffffffffffffffffffffffffffffffffffffffff16021790555080600660006101000a81548173ffffffffffffffffffffffffffffffffffffffff021916908373ffffffffffffffffffffffffffffffffffffffff160217905550600560078190555061012c600881905550505050505050620002e8565b600080fd5b600073ffffffffffffffffffffffffffffffffffffffff82169050919050565b60006200021482620001e7565b9050919050565b620002268162000207565b81146200023257600080fd5b50565b60008151905062000246816200021b565b92915050565b60008060008060008060c087890312156200026c576200026b620001e2565b5b60006200027c89828a0162000235565b96505060206200028f89828a0162000235565b9550506040620002a289828a0162000235565b9450506060620002b589828a0162000235565b9350506080620002c889828a0162000235565b92505060a0620002db89828a0162000235565b9150509295509295509295565b612ddb80620002f86000396000f3fe60806040526004361061011f5760003560e01c80639aafc6c9116100a0578063bdaaf19411610064578063bdaaf194146103b0578063c5280731146103ed578063db2e21bc14610418578063de6cb60a1461042f578063eeed1b261461045a5761011f565b80639aafc6c9146102cb578063a43b87a2146102f4578063a497815614610331578063ac5825951461035c578063b5bc955f146103855761011f565b80635b96e4c5116100e75780635b96e4c5146102075780636bffee9b146102305780637e3c9be714610259578063926a09441461028457806392f00233146102a05761011f565b80630a72dd141461012457806325ff80801461014d578063388d2c241461018a57806348337282146101b35780635a6fcb28146101dc575b600080fd5b34801561013057600080fd5b5061014b600480360381019061014691906124a2565b610485565b005b34801561015957600080fd5b50610174600480360381019061016f9190612505565b610660565b604051610181919061254d565b60405180910390f35b34801561019657600080fd5b506101b160048036038101906101ac91906124a2565b610680565b005b3480156101bf57600080fd5b506101da60048036038101906101d591906124a2565b610910565b005b3480156101e857600080fd5b506101f1610ba0565b6040516101fe9190612577565b60405180910390f35b34801561021357600080fd5b5061022e600480360381019061022991906124a2565b610bc6565b005b34801561023c57600080fd5b5061025760048036038101906102529190612592565b610da1565b005b34801561026557600080fd5b5061026e610f58565b60405161027b9190612631565b60405180910390f35b61029e60048036038101906102999190612505565b610f7e565b005b3480156102ac57600080fd5b506102b5611607565b6040516102c2919061266d565b60405180910390f35b3480156102d757600080fd5b506102f260048036038101906102ed9190612505565b61162d565b005b34801561030057600080fd5b5061031b60048036038101906103169190612505565b611e1a565b6040516103289190612577565b60405180910390f35b34801561033d57600080fd5b50610346611e4d565b60405161035391906126a9565b60405180910390f35b34801561036857600080fd5b50610383600480360381019061037e91906124a2565b611e73565b005b34801561039157600080fd5b5061039a61204e565b6040516103a79190612577565b60405180910390f35b3480156103bc57600080fd5b506103d760048036038101906103d29190612505565b612074565b6040516103e491906126d3565b60405180910390f35b3480156103f957600080fd5b5061040261208c565b60405161040f9190612577565b60405180910390f35b34801561042457600080fd5b5061042d6120b2565b005b34801561043b57600080fd5b506104446123e3565b60405161045191906126d3565b60405180910390f35b34801561046657600080fd5b5061046f6123e9565b60405161047c91906126d3565b60405180910390f35b630a72dd1460e01b60011515600260009054906101000a900473ffffffffffffffffffffffffffffffffffffffff1673ffffffffffffffffffffffffffffffffffffffff1663feb2e23333846040518363ffffffff1660e01b81526004016104ee929190612729565b602060405180830381865afa15801561050b573d6000803e3d6000fd5b505050506040513d601f19601f8201168201806040525081019061052f919061277e565b151514806105dc575060011515600260009054906101000a900473ffffffffffffffffffffffffffffffffffffffff1673ffffffffffffffffffffffffffffffffffffffff1663b3076d55336040518263ffffffff1660e01b81526004016105979190612577565b602060405180830381865afa1580156105b4573d6000803e3d6000fd5b505050506040513d601f19601f820116820180604052508101906105d8919061277e565b1515145b61061b576040517f08c379a000000000000000000000000000000000000000000000000000000000815260040161061290612808565b60405180910390fd5b81600360006101000a81548173ffffffffffffffffffffffffffffffffffffffff021916908373ffffffffffffffffffffffffffffffffffffffff1602179055505050565b600b6020528060005260406000206000915054906101000a900460ff1681565b63388d2c2460e01b60011515600260009054906101000a900473ffffffffffffffffffffffffffffffffffffffff1673ffffffffffffffffffffffffffffffffffffffff1663feb2e23333846040518363ffffffff1660e01b81526004016106e9929190612729565b602060405180830381865afa158015610706573d6000803e3d6000fd5b505050506040513d601f19601f8201168201806040525081019061072a919061277e565b151514806107d7575060011515600260009054906101000a900473ffffffffffffffffffffffffffffffffffffffff1673ffffffffffffffffffffffffffffffffffffffff1663b3076d55336040518263ffffffff1660e01b81526004016107929190612577565b602060405180830381865afa1580156107af573d6000803e3d6000fd5b505050506040513d601f19601f820116820180604052508101906107d3919061277e565b1515145b610816576040517f08c379a000000000000000000000000000000000000000000000000000000000815260040161080d90612808565b60405180910390fd5b600115158273ffffffffffffffffffffffffffffffffffffffff16639068edac6040518163ffffffff1660e01b8152600401602060405180830381865afa158015610865573d6000803e3d6000fd5b505050506040513d601f19601f82011682018060405250810190610889919061277e565b1515146108cb576040517f08c379a00000000000000000000000000000000000000000000000000000000081526004016108c290612874565b60405180910390fd5b81600260006101000a81548173ffffffffffffffffffffffffffffffffffffffff021916908373ffffffffffffffffffffffffffffffffffffffff1602179055505050565b634833728260e01b60011515600260009054906101000a900473ffffffffffffffffffffffffffffffffffffffff1673ffffffffffffffffffffffffffffffffffffffff1663feb2e23333846040518363ffffffff1660e01b8152600401610979929190612729565b602060405180830381865afa158015610996573d6000803e3d6000fd5b505050506040513d601f19601f820116820180604052508101906109ba919061277e565b15151480610a67575060011515600260009054906101000a900473ffffffffffffffffffffffffffffffffffffffff1673ffffffffffffffffffffffffffffffffffffffff1663b3076d55336040518263ffffffff1660e01b8152600401610a229190612577565b602060405180830381865afa158015610a3f573d6000803e3d6000fd5b505050506040513d601f19601f82011682018060405250810190610a63919061277e565b1515145b610aa6576040517f08c379a0000000000000000000000000000000000000000000000000000000008152600401610a9d90612808565b60405180910390fd5b600115158273ffffffffffffffffffffffffffffffffffffffff1663fb9422ff6040518163ffffffff1660e01b8152600401602060405180830381865afa158015610af5573d6000803e3d6000fd5b505050506040513d601f19601f82011682018060405250810190610b19919061277e565b151514610b5b576040517f08c379a0000000000000000000000000000000000000000000000000000000008152600401610b52906128e0565b60405180910390fd5b81600160006101000a81548173ffffffffffffffffffffffffffffffffffffffff021916908373ffffffffffffffffffffffffffffffffffffffff1602179055505050565b600660009054906101000a900473ffffffffffffffffffffffffffffffffffffffff1681565b635b96e4c560e01b60011515600260009054906101000a900473ffffffffffffffffffffffffffffffffffffffff1673ffffffffffffffffffffffffffffffffffffffff1663feb2e23333846040518363ffffffff1660e01b8152600401610c2f929190612729565b602060405180830381865afa158015610c4c573d6000803e3d6000fd5b505050506040513d601f19601f82011682018060405250810190610c70919061277e565b15151480610d1d575060011515600260009054906101000a900473ffffffffffffffffffffffffffffffffffffffff1673ffffffffffffffffffffffffffffffffffffffff1663b3076d55336040518263ffffffff1660e01b8152600401610cd89190612577565b602060405180830381865afa158015610cf5573d6000803e3d6000fd5b505050506040513d601f19601f82011682018060405250810190610d19919061277e565b1515145b610d5c576040517f08c379a0000000000000000000000000000000000000000000000000000000008152600401610d5390612808565b60405180910390fd5b81600660006101000a81548173ffffffffffffffffffffffffffffffffffffffff021916908373ffffffffffffffffffffffffffffffffffffffff1602179055505050565b636bffee9b60e01b60011515600260009054906101000a900473ffffffffffffffffffffffffffffffffffffffff1673ffffffffffffffffffffffffffffffffffffffff1663feb2e23333846040518363ffffffff1660e01b8152600401610e0a929190612729565b602060405180830381865afa158015610e27573d6000803e3d6000fd5b505050506040513d601f19601f82011682018060405250810190610e4b919061277e565b15151480610ef8575060011515600260009054906101000a900473ffffffffffffffffffffffffffffffffffffffff1673ffffffffffffffffffffffffffffffffffffffff1663b3076d55336040518263ffffffff1660e01b8152600401610eb39190612577565b602060405180830381865afa158015610ed0573d6000803e3d6000fd5b505050506040513d601f19601f82011682018060405250810190610ef4919061277e565b1515145b610f37576040517f08c379a0000000000000000000000000000000000000000000000000000000008152600401610f2e90612808565b60405180910390fd5b60018303610f4b5781600781905550610f53565b816008819055505b505050565b600260009054906101000a900473ffffffffffffffffffffffffffffffffffffffff1681565b600160009054906101000a900473ffffffffffffffffffffffffffffffffffffffff1673ffffffffffffffffffffffffffffffffffffffff1663930e79f1826040518263ffffffff1660e01b8152600401610fd991906126d3565b602060405180830381865afa158015610ff6573d6000803e3d6000fd5b505050506040513d601f19601f8201168201806040525081019061101a9190612915565b42111580156110c8575060011515600160009054906101000a900473ffffffffffffffffffffffffffffffffffffffff1673ffffffffffffffffffffffffffffffffffffffff16637765c52c836040518263ffffffff1660e01b815260040161108391906126d3565b602060405180830381865afa1580156110a0573d6000803e3d6000fd5b505050506040513d601f19601f820116820180604052508101906110c4919061277e565b1515145b611107576040517f08c379a00000000000000000000000000000000000000000000000000000000081526004016110fe9061298e565b60405180910390fd5b600080600060096000858152602001908152602001600020540361120b57600360009054906101000a900473ffffffffffffffffffffffffffffffffffffffff1673ffffffffffffffffffffffffffffffffffffffff1663d63f7c10846040518263ffffffff1660e01b815260040161118091906126d3565b602060405180830381865afa15801561119d573d6000803e3d6000fd5b505050506040513d601f19601f820116820180604052508101906111c19190612915565b915081341015611206576040517f08c379a00000000000000000000000000000000000000000000000000000000081526004016111fd90612a20565b60405180910390fd5b61136c565b600960008481526020019081526020016000205491506064600754836112319190612a6f565b61123b9190612ae0565b826112469190612b11565b341015611288576040517f08c379a000000000000000000000000000000000000000000000000000000000815260040161127f90612b91565b60405180910390fd5b600a600084815260200190815260200160002060009054906101000a900473ffffffffffffffffffffffffffffffffffffffff16905060008173ffffffffffffffffffffffffffffffffffffffff16836040516112e490612be2565b60006040518083038185875af1925050503d8060008114611321576040519150601f19603f3d011682016040523d82523d6000602084013e611326565b606091505b505090508061136a576040517f08c379a000000000000000000000000000000000000000000000000000000000815260040161136190612c43565b60405180910390fd5b505b60085442600160009054906101000a900473ffffffffffffffffffffffffffffffffffffffff1673ffffffffffffffffffffffffffffffffffffffff1663930e79f1866040518263ffffffff1660e01b81526004016113cb91906126d3565b602060405180830381865afa1580156113e8573d6000803e3d6000fd5b505050506040513d601f19601f8201168201806040525081019061140c9190612915565b6114169190612c63565b1161155357600160009054906101000a900473ffffffffffffffffffffffffffffffffffffffff1673ffffffffffffffffffffffffffffffffffffffff1663d9f303a284600854600160009054906101000a900473ffffffffffffffffffffffffffffffffffffffff1673ffffffffffffffffffffffffffffffffffffffff1663930e79f1886040518263ffffffff1660e01b81526004016114b891906126d3565b602060405180830381865afa1580156114d5573d6000803e3d6000fd5b505050506040513d601f19601f820116820180604052508101906114f99190612915565b6115039190612b11565b6040518363ffffffff1660e01b8152600401611520929190612c97565b600060405180830381600087803b15801561153a57600080fd5b505af115801561154e573d6000803e3d6000fd5b505050505b34600960008581526020019081526020016000208190555033600a600085815260200190815260200160002060006101000a81548173ffffffffffffffffffffffffffffffffffffffff021916908373ffffffffffffffffffffffffffffffffffffffff16021790555034833373ffffffffffffffffffffffffffffffffffffffff167ffe85789374f996e0a134e187beae4b2d8ff423bb23269afd8b092e6e2359865460405160405180910390a4505050565b600160009054906101000a900473ffffffffffffffffffffffffffffffffffffffff1681565b6116356123ef565b600160009054906101000a900473ffffffffffffffffffffffffffffffffffffffff1673ffffffffffffffffffffffffffffffffffffffff1663930e79f1826040518263ffffffff1660e01b815260040161169091906126d3565b602060405180830381865afa1580156116ad573d6000803e3d6000fd5b505050506040513d601f19601f820116820180604052508101906116d19190612915565b4211801561177e575060011515600160009054906101000a900473ffffffffffffffffffffffffffffffffffffffff1673ffffffffffffffffffffffffffffffffffffffff16637765c52c836040518263ffffffff1660e01b815260040161173991906126d3565b602060405180830381865afa158015611756573d6000803e3d6000fd5b505050506040513d601f19601f8201168201806040525081019061177a919061277e565b1515145b80156117ae575060001515600b600083815260200190815260200160002060009054906101000a900460ff161515145b6117ed576040517f08c379a00000000000000000000000000000000000000000000000000000000081526004016117e490612d0c565b60405180910390fd5b6001600b600083815260200190815260200160002060006101000a81548160ff0219169083151502179055506000600960008381526020019081526020016000205490506000600460009054906101000a900473ffffffffffffffffffffffffffffffffffffffff1673ffffffffffffffffffffffffffffffffffffffff16636352211e846040518263ffffffff1660e01b815260040161188e91906126d3565b602060405180830381865afa1580156118ab573d6000803e3d6000fd5b505050506040513d601f19601f820116820180604052508101906118cf9190612d41565b90506000600a600085815260200190815260200160002060009054906101000a900473ffffffffffffffffffffffffffffffffffffffff16905060008303611a4257600460009054906101000a900473ffffffffffffffffffffffffffffffffffffffff1673ffffffffffffffffffffffffffffffffffffffff166342842e0e83600360009054906101000a900473ffffffffffffffffffffffffffffffffffffffff1673ffffffffffffffffffffffffffffffffffffffff166396f448ce886040518263ffffffff1660e01b81526004016119ab91906126d3565b602060405180830381865afa1580156119c8573d6000803e3d6000fd5b505050506040513d601f19601f820116820180604052508101906119ec9190612d41565b876040518463ffffffff1660e01b8152600401611a0b93929190612d6e565b600060405180830381600087803b158015611a2557600080fd5b505af1158015611a39573d6000803e3d6000fd5b50505050611e0c565b6000600360009054906101000a900473ffffffffffffffffffffffffffffffffffffffff1673ffffffffffffffffffffffffffffffffffffffff166373a9542c866040518263ffffffff1660e01b8152600401611a9f91906126d3565b602060405180830381865afa158015611abc573d6000803e3d6000fd5b505050506040513d601f19601f82011682018060405250810190611ae09190612d41565b73ffffffffffffffffffffffffffffffffffffffff16600285611b039190612ae0565b604051611b0f90612be2565b60006040518083038185875af1925050503d8060008114611b4c576040519150601f19603f3d011682016040523d82523d6000602084013e611b51565b606091505b5050905080611b95576040517f08c379a0000000000000000000000000000000000000000000000000000000008152600401611b8c90612c43565b60405180910390fd5b6000600560009054906101000a900473ffffffffffffffffffffffffffffffffffffffff1673ffffffffffffffffffffffffffffffffffffffff16600486611bdd9190612ae0565b604051611be990612be2565b60006040518083038185875af1925050503d8060008114611c26576040519150601f19603f3d011682016040523d82523d6000602084013e611c2b565b606091505b5050905080611c6f576040517f08c379a0000000000000000000000000000000000000000000000000000000008152600401611c6690612c43565b60405180910390fd5b6000600660009054906101000a900473ffffffffffffffffffffffffffffffffffffffff1673ffffffffffffffffffffffffffffffffffffffff16600487611cb79190612ae0565b604051611cc390612be2565b60006040518083038185875af1925050503d8060008114611d00576040519150601f19603f3d011682016040523d82523d6000602084013e611d05565b606091505b5050905080611d49576040517f08c379a0000000000000000000000000000000000000000000000000000000008152600401611d4090612c43565b60405180910390fd5b600460009054906101000a900473ffffffffffffffffffffffffffffffffffffffff1673ffffffffffffffffffffffffffffffffffffffff166342842e0e86868a6040518463ffffffff1660e01b8152600401611da893929190612d6e565b600060405180830381600087803b158015611dc257600080fd5b505af1158015611dd6573d6000803e3d6000fd5b5050505085877f3850baa46c5379f1523fd73eabc21a2d4832913719b2dc88e0c8a9d588f0dc6660405160405180910390a35050505b505050611e17612435565b50565b600a6020528060005260406000206000915054906101000a900473ffffffffffffffffffffffffffffffffffffffff1681565b600360009054906101000a900473ffffffffffffffffffffffffffffffffffffffff1681565b63ac58259560e01b60011515600260009054906101000a900473ffffffffffffffffffffffffffffffffffffffff1673ffffffffffffffffffffffffffffffffffffffff1663feb2e23333846040518363ffffffff1660e01b8152600401611edc929190612729565b602060405180830381865afa158015611ef9573d6000803e3d6000fd5b505050506040513d601f19601f82011682018060405250810190611f1d919061277e565b15151480611fca575060011515600260009054906101000a900473ffffffffffffffffffffffffffffffffffffffff1673ffffffffffffffffffffffffffffffffffffffff1663b3076d55336040518263ffffffff1660e01b8152600401611f859190612577565b602060405180830381865afa158015611fa2573d6000803e3d6000fd5b505050506040513d601f19601f82011682018060405250810190611fc6919061277e565b1515145b612009576040517f08c379a000000000000000000000000000000000000000000000000000000000815260040161200090612808565b60405180910390fd5b81600560006101000a81548173ffffffffffffffffffffffffffffffffffffffff021916908373ffffffffffffffffffffffffffffffffffffffff1602179055505050565b600460009054906101000a900473ffffffffffffffffffffffffffffffffffffffff1681565b60096020528060005260406000206000915090505481565b600560009054906101000a900473ffffffffffffffffffffffffffffffffffffffff1681565b63db2e21bc60e01b60011515600260009054906101000a900473ffffffffffffffffffffffffffffffffffffffff1673ffffffffffffffffffffffffffffffffffffffff1663feb2e23333846040518363ffffffff1660e01b815260040161211b929190612729565b602060405180830381865afa158015612138573d6000803e3d6000fd5b505050506040513d601f19601f8201168201806040525081019061215c919061277e565b15151480612209575060011515600260009054906101000a900473ffffffffffffffffffffffffffffffffffffffff1673ffffffffffffffffffffffffffffffffffffffff1663b3076d55336040518263ffffffff1660e01b81526004016121c49190612577565b602060405180830381865afa1580156121e1573d6000803e3d6000fd5b505050506040513d601f19601f82011682018060405250810190612205919061277e565b1515145b612248576040517f08c379a000000000000000000000000000000000000000000000000000000000815260040161223f90612808565b60405180910390fd5b60004790506000600260009054906101000a900473ffffffffffffffffffffffffffffffffffffffff1673ffffffffffffffffffffffffffffffffffffffff16638da5cb5b6040518163ffffffff1660e01b8152600401602060405180830381865afa1580156122bc573d6000803e3d6000fd5b505050506040513d601f19601f820116820180604052508101906122e09190612d41565b905060008173ffffffffffffffffffffffffffffffffffffffff168360405161230890612be2565b60006040518083038185875af1925050503d8060008114612345576040519150601f19603f3d011682016040523d82523d6000602084013e61234a565b606091505b505090508061238e576040517f08c379a000000000000000000000000000000000000000000000000000000000815260040161238590612c43565b60405180910390fd5b823373ffffffffffffffffffffffffffffffffffffffff167f4a48cb98c5be023b78a0b3ec94107a01a0397b2e389d4b5f252aef518e633ec3836040516123d5919061254d565b60405180910390a350505050565b60075481565b60085481565b60026000540361242b576040517f3ee5aeb500000000000000000000000000000000000000000000000000000000815260040160405180910390fd5b6002600081905550565b6001600081905550565b600080fd5b600073ffffffffffffffffffffffffffffffffffffffff82169050919050565b600061246f82612444565b9050919050565b61247f81612464565b811461248a57600080fd5b50565b60008135905061249c81612476565b92915050565b6000602082840312156124b8576124b761243f565b5b60006124c68482850161248d565b91505092915050565b6000819050919050565b6124e2816124cf565b81146124ed57600080fd5b50565b6000813590506124ff816124d9565b92915050565b60006020828403121561251b5761251a61243f565b5b6000612529848285016124f0565b91505092915050565b60008115159050919050565b61254781612532565b82525050565b6000602082019050612562600083018461253e565b92915050565b61257181612464565b82525050565b600060208201905061258c6000830184612568565b92915050565b600080604083850312156125a9576125a861243f565b5b60006125b7858286016124f0565b92505060206125c8858286016124f0565b9150509250929050565b6000819050919050565b60006125f76125f26125ed84612444565b6125d2565b612444565b9050919050565b6000612609826125dc565b9050919050565b600061261b826125fe565b9050919050565b61262b81612610565b82525050565b60006020820190506126466000830184612622565b92915050565b6000612657826125fe565b9050919050565b6126678161264c565b82525050565b6000602082019050612682600083018461265e565b92915050565b6000612693826125fe565b9050919050565b6126a381612688565b82525050565b60006020820190506126be600083018461269a565b92915050565b6126cd816124cf565b82525050565b60006020820190506126e860008301846126c4565b92915050565b60007fffffffff0000000000000000000000000000000000000000000000000000000082169050919050565b612723816126ee565b82525050565b600060408201905061273e6000830185612568565b61274b602083018461271a565b9392505050565b61275b81612532565b811461276657600080fd5b50565b60008151905061277881612752565b92915050565b6000602082840312156127945761279361243f565b5b60006127a284828501612769565b91505092915050565b600082825260208201905092915050565b7f4e6f7420616c6c6f776564000000000000000000000000000000000000000000600082015250565b60006127f2600b836127ab565b91506127fd826127bc565b602082019050919050565b60006020820190508181036000830152612821816127e5565b9050919050565b7f436f6e7472616374206973206e6f742041646d696e0000000000000000000000600082015250565b600061285e6015836127ab565b915061286982612828565b602082019050919050565b6000602082019050818103600083015261288d81612851565b9050919050565b7f436f6e7472616374206973206e6f74204d696e74657200000000000000000000600082015250565b60006128ca6016836127ab565b91506128d582612894565b602082019050919050565b600060208201905081810360008301526128f9816128bd565b9050919050565b60008151905061290f816124d9565b92915050565b60006020828403121561292b5761292a61243f565b5b600061293984828501612900565b91505092915050565b7f456e646564000000000000000000000000000000000000000000000000000000600082015250565b60006129786005836127ab565b915061298382612942565b602082019050919050565b600060208201905081810360008301526129a78161296b565b9050919050565b7f457175616c206f7220486967686572207468616e207374617274696e6720626960008201527f6400000000000000000000000000000000000000000000000000000000000000602082015250565b6000612a0a6021836127ab565b9150612a15826129ae565b604082019050919050565b60006020820190508181036000830152612a39816129fd565b9050919050565b7f4e487b7100000000000000000000000000000000000000000000000000000000600052601160045260246000fd5b6000612a7a826124cf565b9150612a85836124cf565b9250828202612a93816124cf565b91508282048414831517612aaa57612aa9612a40565b5b5092915050565b7f4e487b7100000000000000000000000000000000000000000000000000000000600052601260045260246000fd5b6000612aeb826124cf565b9150612af6836124cf565b925082612b0657612b05612ab1565b5b828204905092915050565b6000612b1c826124cf565b9150612b27836124cf565b9250828201905080821115612b3f57612b3e612a40565b5b92915050565b7f25206d6f7265207468616e206869676865737420626964000000000000000000600082015250565b6000612b7b6017836127ab565b9150612b8682612b45565b602082019050919050565b60006020820190508181036000830152612baa81612b6e565b9050919050565b600081905092915050565b50565b6000612bcc600083612bb1565b9150612bd782612bbc565b600082019050919050565b6000612bed82612bbf565b9150819050919050565b7f455448206661696c656400000000000000000000000000000000000000000000600082015250565b6000612c2d600a836127ab565b9150612c3882612bf7565b602082019050919050565b60006020820190508181036000830152612c5c81612c20565b9050919050565b6000612c6e826124cf565b9150612c79836124cf565b9250828203905081811115612c9157612c90612a40565b5b92915050565b6000604082019050612cac60008301856126c4565b612cb960208301846126c4565b9392505050565b7f6572720000000000000000000000000000000000000000000000000000000000600082015250565b6000612cf66003836127ab565b9150612d0182612cc0565b602082019050919050565b60006020820190508181036000830152612d2581612ce9565b9050919050565b600081519050612d3b81612476565b92915050565b600060208284031215612d5757612d5661243f565b5b6000612d6584828501612d2c565b91505092915050565b6000606082019050612d836000830186612568565b612d906020830185612568565b612d9d60408301846126c4565b94935050505056fea26469706673582212208c5e7c5a54385afc74498c12a617c7898f0928e9f9d969d9743600c49aea059464736f6c63430008130033","linkReferences":{}},"methodIdentifiers":{"adminsContract()":"7e3c9be7","auctionClaim(uint256)":"25ff8080","auctionHighestBid(uint256)":"bdaaf194","auctionHighestBidder(uint256)":"a43b87a2","claimAuction(uint256)":"9aafc6c9","curatorsPoolAddress()":"5a6fcb28","dropsContract()":"a4978156","emergencyWithdraw()":"db2e21bc","extensionTime()":"eeed1b26","gencore()":"b5bc955f","incPercent()":"de6cb60a","minterContract()":"92f00233","participateToAuction(uint256)":"926a0944","payOutAddress()":"c5280731","updateAdminContract(address)":"388d2c24","updateCuratorsPoolAddress(address)":"5b96e4c5","updateDropsContract(address)":"0a72dd14","updateMinterContract(address)":"48337282","updatePayOutAddress(address)":"ac582595","updatePercentAndExtensionTime(uint256,uint256)":"6bffee9b"},"id":0}