{"abi":[{"type":"constructor","inputs":[{"name":"_adminsContract","type":"address","internalType":"address"},{"name":"_del","type":"address","internalType":"address"}],"stateMutability":"nonpayable"},{"type":"receive","stateMutability":"payable"},{"type":"function","name":"claimRewards","inputs":[{"name":"_collectionID","type":"uint256","internalType":"uint256"},{"name":"_amount","type":"uint256","internalType":"uint256"},{"name":"merkleProof","type":"bytes32[]","internalType":"bytes32[]"},{"name":"_delegator","type":"address","internalType":"address"}],"outputs":[],"stateMutability":"nonpayable"},{"type":"function","name":"collectionMerkleRoot","inputs":[{"name":"","type":"uint256","internalType":"uint256"}],"outputs":[{"name":"","type":"bytes32","internalType":"bytes32"}],"stateMutability":"view"},{"type":"function","name":"emergencyWithdraw","inputs":[],"outputs":[],"stateMutability":"nonpayable"},{"type":"function","name":"rewardsClaimPerAddress","inputs":[{"name":"","type":"uint256","internalType":"uint256"},{"name":"","type":"address","internalType":"address"}],"outputs":[{"name":"","type":"bool","internalType":"bool"}],"stateMutability":"view"},{"type":"function","name":"rewardsPerAddress","inputs":[{"name":"","type":"uint256","internalType":"uint256"},{"name":"","type":"address","internalType":"address"}],"outputs":[{"name":"","type":"uint256","internalType":"uint256"}],"stateMutability":"view"},{"type":"function","name":"setMerkleRoot","inputs":[{"name":"_collectionID","type":"uint256","internalType":"uint256"},{"name":"_merkleRoot","type":"bytes32","internalType":"bytes32"}],"outputs":[],"stateMutability":"nonpayable"},{"type":"function","name":"setMultipleMerkleRoots","inputs":[{"name":"_collectionIDs","type":"uint256[]","internalType":"uint256[]"},{"name":"_merkleRoot","type":"bytes32[]","internalType":"bytes32[]"}],"outputs":[],"stateMutability":"nonpayable"},{"type":"function","name":"updateAdminContracts","inputs":[{"name":"_newContract","type":"address","internalType":"address"}],"outputs":[],"stateMutability":"nonpayable"},{"type":"event","name":"Reward","inputs":[{"name":"_add","type":"address","indexed":true,"internalType":"address"},{"name":"collectionID","type":"uint256","indexed":true,"internalType":"uint256"},{"name":"amount","type":"uint256","indexed":true,"internalType":"uint256"}],"anonymous":false},{"type":"event","name":"Withdraw","inputs":[{"name":"_add","type":"address","indexed":true,"internalType":"address"},{"name":"status","type":"bool","indexed":false,"internalType":"bool"},{"name":"funds","type":"uint256","indexed":true,"internalType":"uint256"}],"anonymous":false}],"bytecode":{"object":"0x60806040523480156200001157600080fd5b5060405162001ec638038062001ec683398181016040528101906200003791906200012b565b81600360006101000a81548173ffffffffffffffffffffffffffffffffffffffff021916908373ffffffffffffffffffffffffffffffffffffffff16021790555080600460006101000a81548173ffffffffffffffffffffffffffffffffffffffff021916908373ffffffffffffffffffffffffffffffffffffffff160217905550505062000172565b600080fd5b600073ffffffffffffffffffffffffffffffffffffffff82169050919050565b6000620000f382620000c6565b9050919050565b6200010581620000e6565b81146200011157600080fd5b50565b6000815190506200012581620000fa565b92915050565b60008060408385031215620001455762000144620000c1565b5b6000620001558582860162000114565b9250506020620001688582860162000114565b9150509250929050565b611d4480620001826000396000f3fe60806040526004361061007f5760003560e01c8063ceddc6a61161004e578063ceddc6a614610143578063db2e21bc14610180578063e7d3146f14610197578063ff6b4a12146101d457610086565b806318712c211461008b578063571308f7146100b45780638834674a146100f1578063b326283b1461011a57610086565b3661008657005b600080fd5b34801561009757600080fd5b506100b260048036038101906100ad91906111bb565b6101fd565b005b3480156100c057600080fd5b506100db60048036038101906100d69190611259565b6103af565b6040516100e891906112b4565b60405180910390f35b3480156100fd57600080fd5b50610118600480360381019061011391906114eb565b6103de565b005b34801561012657600080fd5b50610141600480360381019061013c91906115be565b6105e4565b005b34801561014f57600080fd5b5061016a60048036038101906101659190611646565b610a8a565b6040516101779190611682565b60405180910390f35b34801561018c57600080fd5b50610195610aa2565b005b3480156101a357600080fd5b506101be60048036038101906101b99190611259565b610dd3565b6040516101cb91906116ac565b60405180910390f35b3480156101e057600080fd5b506101fb60048036038101906101f691906116c7565b610df8565b005b6318712c2160e01b60011515600360009054906101000a900473ffffffffffffffffffffffffffffffffffffffff1673ffffffffffffffffffffffffffffffffffffffff1663feb2e23333846040518363ffffffff1660e01b815260040161026692919061173e565b602060405180830381865afa158015610283573d6000803e3d6000fd5b505050506040513d601f19601f820116820180604052508101906102a79190611793565b15151480610354575060011515600360009054906101000a900473ffffffffffffffffffffffffffffffffffffffff1673ffffffffffffffffffffffffffffffffffffffff1663b3076d55336040518263ffffffff1660e01b815260040161030f91906117c0565b602060405180830381865afa15801561032c573d6000803e3d6000fd5b505050506040513d601f19601f820116820180604052508101906103509190611793565b1515145b610393576040517f08c379a000000000000000000000000000000000000000000000000000000000815260040161038a90611838565b60405180910390fd5b8160008085815260200190815260200160002081905550505050565b60026020528160005260406000206020528060005260406000206000915091509054906101000a900460ff1681565b6318712c2160e01b60011515600360009054906101000a900473ffffffffffffffffffffffffffffffffffffffff1673ffffffffffffffffffffffffffffffffffffffff1663feb2e23333846040518363ffffffff1660e01b815260040161044792919061173e565b602060405180830381865afa158015610464573d6000803e3d6000fd5b505050506040513d601f19601f820116820180604052508101906104889190611793565b15151480610535575060011515600360009054906101000a900473ffffffffffffffffffffffffffffffffffffffff1673ffffffffffffffffffffffffffffffffffffffff1663b3076d55336040518263ffffffff1660e01b81526004016104f091906117c0565b602060405180830381865afa15801561050d573d6000803e3d6000fd5b505050506040513d601f19601f820116820180604052508101906105319190611793565b1515145b610574576040517f08c379a000000000000000000000000000000000000000000000000000000000815260040161056b90611838565b60405180910390fd5b60005b83518110156105de5782818151811061059357610592611858565b5b60200260200101516000808684815181106105b1576105b0611858565b5b602002602001015181526020019081526020016000208190555080806105d6906118b6565b915050610577565b50505050565b600080600073ffffffffffffffffffffffffffffffffffffffff168373ffffffffffffffffffffffffffffffffffffffff1614610779576000600460009054906101000a900473ffffffffffffffffffffffffffffffffffffffff1673ffffffffffffffffffffffffffffffffffffffff1663d986ff6d857388888888888888888888888888888888888888883360016040518563ffffffff1660e01b81526004016106939493929190611943565b602060405180830381865afa1580156106b0573d6000803e3d6000fd5b505050506040513d601f19601f820116820180604052508101906106d49190611793565b9050600115158115151461071d576040517f08c379a0000000000000000000000000000000000000000000000000000000008152600401610714906119d4565b60405180910390fd5b83888860405160200161073293929190611a5d565b604051602081830303815290604052805190602001206040516020016107589190611abb565b604051602081830303815290604052805190602001209150839250506107d0565b33878760405160200161078e93929190611a5d565b604051602081830303815290604052805190602001206040516020016107b49190611abb565b6040516020818303038152906040528051906020012090503391505b600015156002600089815260200190815260200160002060008473ffffffffffffffffffffffffffffffffffffffff1673ffffffffffffffffffffffffffffffffffffffff16815260200190815260200160002060009054906101000a900460ff16151514610874576040517f08c379a000000000000000000000000000000000000000000000000000000000815260040161086b90611b22565b60405180910390fd5b61089285856000808b81526020019081526020016000205484611088565b6108d1576040517f08c379a00000000000000000000000000000000000000000000000000000000081526004016108c890611b8e565b60405180910390fd5b856001600089815260200190815260200160002060008473ffffffffffffffffffffffffffffffffffffffff1673ffffffffffffffffffffffffffffffffffffffff1681526020019081526020016000208190555060016002600089815260200190815260200160002060008473ffffffffffffffffffffffffffffffffffffffff1673ffffffffffffffffffffffffffffffffffffffff16815260200190815260200160002060006101000a81548160ff02191690831515021790555060008273ffffffffffffffffffffffffffffffffffffffff16876040516109b590611bdf565b60006040518083038185875af1925050503d80600081146109f2576040519150601f19603f3d011682016040523d82523d6000602084013e6109f7565b606091505b5050905080610a3b576040517f08c379a0000000000000000000000000000000000000000000000000000000008152600401610a3290611c40565b60405180910390fd5b86888473ffffffffffffffffffffffffffffffffffffffff167f02a6a2be713fedf52f113c0a759f1c1a23a113476d9b1b1a2a453c910660de4e60405160405180910390a45050505050505050565b60006020528060005260406000206000915090505481565b63db2e21bc60e01b60011515600360009054906101000a900473ffffffffffffffffffffffffffffffffffffffff1673ffffffffffffffffffffffffffffffffffffffff1663feb2e23333846040518363ffffffff1660e01b8152600401610b0b92919061173e565b602060405180830381865afa158015610b28573d6000803e3d6000fd5b505050506040513d601f19601f82011682018060405250810190610b4c9190611793565b15151480610bf9575060011515600360009054906101000a900473ffffffffffffffffffffffffffffffffffffffff1673ffffffffffffffffffffffffffffffffffffffff1663b3076d55336040518263ffffffff1660e01b8152600401610bb491906117c0565b602060405180830381865afa158015610bd1573d6000803e3d6000fd5b505050506040513d601f19601f82011682018060405250810190610bf59190611793565b1515145b610c38576040517f08c379a0000000000000000000000000000000000000000000000000000000008152600401610c2f90611838565b60405180910390fd5b60004790506000600360009054906101000a900473ffffffffffffffffffffffffffffffffffffffff1673ffffffffffffffffffffffffffffffffffffffff16638da5cb5b6040518163ffffffff1660e01b8152600401602060405180830381865afa158015610cac573d6000803e3d6000fd5b505050506040513d601f19601f82011682018060405250810190610cd09190611c75565b905060008173ffffffffffffffffffffffffffffffffffffffff1683604051610cf890611bdf565b60006040518083038185875af1925050503d8060008114610d35576040519150601f19603f3d011682016040523d82523d6000602084013e610d3a565b606091505b5050905080610d7e576040517f08c379a0000000000000000000000000000000000000000000000000000000008152600401610d7590611c40565b60405180910390fd5b823373ffffffffffffffffffffffffffffffffffffffff167f4a48cb98c5be023b78a0b3ec94107a01a0397b2e389d4b5f252aef518e633ec383604051610dc591906112b4565b60405180910390a350505050565b6001602052816000526040600020602052806000526040600020600091509150505481565b63ff6b4a1260e01b60011515600360009054906101000a900473ffffffffffffffffffffffffffffffffffffffff1673ffffffffffffffffffffffffffffffffffffffff1663feb2e23333846040518363ffffffff1660e01b8152600401610e6192919061173e565b602060405180830381865afa158015610e7e573d6000803e3d6000fd5b505050506040513d601f19601f82011682018060405250810190610ea29190611793565b15151480610f4f575060011515600360009054906101000a900473ffffffffffffffffffffffffffffffffffffffff1673ffffffffffffffffffffffffffffffffffffffff1663b3076d55336040518263ffffffff1660e01b8152600401610f0a91906117c0565b602060405180830381865afa158015610f27573d6000803e3d6000fd5b505050506040513d601f19601f82011682018060405250810190610f4b9190611793565b1515145b610f8e576040517f08c379a0000000000000000000000000000000000000000000000000000000008152600401610f8590611838565b60405180910390fd5b600115158273ffffffffffffffffffffffffffffffffffffffff16639068edac6040518163ffffffff1660e01b8152600401602060405180830381865afa158015610fdd573d6000803e3d6000fd5b505050506040513d601f19601f820116820180604052508101906110019190611793565b151514611043576040517f08c379a000000000000000000000000000000000000000000000000000000000815260040161103a90611cee565b60405180910390fd5b81600360006101000a81548173ffffffffffffffffffffffffffffffffffffffff021916908373ffffffffffffffffffffffffffffffffffffffff1602179055505050565b6000826110968686856110a1565b149050949350505050565b60008082905060005b858590508110156110ed576110d8828787848181106110cc576110cb611858565b5b905060200201356110f9565b915080806110e5906118b6565b9150506110aa565b50809150509392505050565b60008183106111115761110c8284611124565b61111c565b61111b8383611124565b5b905092915050565b600082600052816020526040600020905092915050565b6000604051905090565b600080fd5b600080fd5b6000819050919050565b6111628161114f565b811461116d57600080fd5b50565b60008135905061117f81611159565b92915050565b6000819050919050565b61119881611185565b81146111a357600080fd5b50565b6000813590506111b58161118f565b92915050565b600080604083850312156111d2576111d1611145565b5b60006111e085828601611170565b92505060206111f1858286016111a6565b9150509250929050565b600073ffffffffffffffffffffffffffffffffffffffff82169050919050565b6000611226826111fb565b9050919050565b6112368161121b565b811461124157600080fd5b50565b6000813590506112538161122d565b92915050565b600080604083850312156112705761126f611145565b5b600061127e85828601611170565b925050602061128f85828601611244565b9150509250929050565b60008115159050919050565b6112ae81611299565b82525050565b60006020820190506112c960008301846112a5565b92915050565b600080fd5b6000601f19601f8301169050919050565b7f4e487b7100000000000000000000000000000000000000000000000000000000600052604160045260246000fd5b61131d826112d4565b810181811067ffffffffffffffff8211171561133c5761133b6112e5565b5b80604052505050565b600061134f61113b565b905061135b8282611314565b919050565b600067ffffffffffffffff82111561137b5761137a6112e5565b5b602082029050602081019050919050565b600080fd5b60006113a461139f84611360565b611345565b905080838252602082019050602084028301858111156113c7576113c661138c565b5b835b818110156113f057806113dc8882611170565b8452602084019350506020810190506113c9565b5050509392505050565b600082601f83011261140f5761140e6112cf565b5b813561141f848260208601611391565b91505092915050565b600067ffffffffffffffff821115611443576114426112e5565b5b602082029050602081019050919050565b600061146761146284611428565b611345565b9050808382526020820190506020840283018581111561148a5761148961138c565b5b835b818110156114b3578061149f88826111a6565b84526020840193505060208101905061148c565b5050509392505050565b600082601f8301126114d2576114d16112cf565b5b81356114e2848260208601611454565b91505092915050565b6000806040838503121561150257611501611145565b5b600083013567ffffffffffffffff8111156115205761151f61114a565b5b61152c858286016113fa565b925050602083013567ffffffffffffffff81111561154d5761154c61114a565b5b611559858286016114bd565b9150509250929050565b600080fd5b60008083601f84011261157e5761157d6112cf565b5b8235905067ffffffffffffffff81111561159b5761159a611563565b5b6020830191508360208202830111156115b7576115b661138c565b5b9250929050565b6000806000806000608086880312156115da576115d9611145565b5b60006115e888828901611170565b95505060206115f988828901611170565b945050604086013567ffffffffffffffff81111561161a5761161961114a565b5b61162688828901611568565b9350935050606061163988828901611244565b9150509295509295909350565b60006020828403121561165c5761165b611145565b5b600061166a84828501611170565b91505092915050565b61167c81611185565b82525050565b60006020820190506116976000830184611673565b92915050565b6116a68161114f565b82525050565b60006020820190506116c1600083018461169d565b92915050565b6000602082840312156116dd576116dc611145565b5b60006116eb84828501611244565b91505092915050565b6116fd8161121b565b82525050565b60007fffffffff0000000000000000000000000000000000000000000000000000000082169050919050565b61173881611703565b82525050565b600060408201905061175360008301856116f4565b611760602083018461172f565b9392505050565b61177081611299565b811461177b57600080fd5b50565b60008151905061178d81611767565b92915050565b6000602082840312156117a9576117a8611145565b5b60006117b78482850161177e565b91505092915050565b60006020820190506117d560008301846116f4565b92915050565b600082825260208201905092915050565b7f4e6f7420616c6c6f776564000000000000000000000000000000000000000000600082015250565b6000611822600b836117db565b915061182d826117ec565b602082019050919050565b6000602082019050818103600083015261185181611815565b9050919050565b7f4e487b7100000000000000000000000000000000000000000000000000000000600052603260045260246000fd5b7f4e487b7100000000000000000000000000000000000000000000000000000000600052601160045260246000fd5b60006118c18261114f565b91507fffffffffffffffffffffffffffffffffffffffffffffffffffffffffffffffff82036118f3576118f2611887565b5b600182019050919050565b6000819050919050565b6000819050919050565b600061192d611928611923846118fe565b611908565b61114f565b9050919050565b61193d81611912565b82525050565b600060808201905061195860008301876116f4565b61196560208301866116f4565b61197260408301856116f4565b61197f6060830184611934565b95945050505050565b7f4e6f2064656c65676174696f6e00000000000000000000000000000000000000600082015250565b60006119be600d836117db565b91506119c982611988565b602082019050919050565b600060208201905081810360008301526119ed816119b1565b9050919050565b60008160601b9050919050565b6000611a0c826119f4565b9050919050565b6000611a1e82611a01565b9050919050565b611a36611a318261121b565b611a13565b82525050565b6000819050919050565b611a57611a528261114f565b611a3c565b82525050565b6000611a698286611a25565b601482019150611a798285611a46565b602082019150611a898284611a46565b602082019150819050949350505050565b6000819050919050565b611ab5611ab082611185565b611a9a565b82525050565b6000611ac78284611aa4565b60208201915081905092915050565b7f5265776172647320436c61696d65640000000000000000000000000000000000600082015250565b6000611b0c600f836117db565b9150611b1782611ad6565b602082019050919050565b60006020820190508181036000830152611b3b81611aff565b9050919050565b7f696e76616c69642070726f6f6600000000000000000000000000000000000000600082015250565b6000611b78600d836117db565b9150611b8382611b42565b602082019050919050565b60006020820190508181036000830152611ba781611b6b565b9050919050565b600081905092915050565b50565b6000611bc9600083611bae565b9150611bd482611bb9565b600082019050919050565b6000611bea82611bbc565b9150819050919050565b7f455448206661696c656400000000000000000000000000000000000000000000600082015250565b6000611c2a600a836117db565b9150611c3582611bf4565b602082019050919050565b60006020820190508181036000830152611c5981611c1d565b9050919050565b600081519050611c6f8161122d565b92915050565b600060208284031215611c8b57611c8a611145565b5b6000611c9984828501611c60565b91505092915050565b7f436f6e7472616374206973206e6f742041646d696e0000000000000000000000600082015250565b6000611cd86015836117db565b9150611ce382611ca2565b602082019050919050565b60006020820190508181036000830152611d0781611ccb565b905091905056fea26469706673582212205004d3470f2dbb92d4c02ece32363ba31eed12beede22d31e35870a0b2e89ccf64736f6c63430008130033","linkReferences":{}},"methodIdentifiers":{"claimRewards(uint256,uint256,bytes32[],address)":"b326283b","collectionMerkleRoot(uint256)":"ceddc6a6","emergencyWithdraw()":"db2e21bc","rewardsClaimPerAddress(uint256,address)":"571308f7","rewardsPerAddress(uint256,address)":"e7d3146f","setMerkleRoot(uint256,bytes32)":"18712c21","setMultipleMerkleRoots(uint256[],bytes32[])":"8834674a","updateAdminContracts(address)":"ff6b4a12"},"id":5}